{
	"data": {
		"bytecode": {
			"linkReferences": {},
			"object": "60806040525f6001553480156012575f80fd5b50335f806101000a81548173ffffffffffffffffffffffffffffffffffffffff021916908373ffffffffffffffffffffffffffffffffffffffff1602179055506147ad8061005f5f395ff3fe6080604052600436106100c1575f3560e01c806364db84e61161007e5780638736381a116100585780638736381a1461023d578063c6edda8614610267578063e5511522146102a3578063fa2f8b6b146102df576100c1565b806364db84e6146101c55780636b932bd6146101ed57806377b130aa14610215576100c1565b806302068664146100c55780632672f526146100e1578063302e693e1461010b57806341fd4d2e14610135578063474da79a1461015d5780635129a6fd1461019d575b5f80fd5b6100df60048036038101906100da9190612a91565b610307565b005b3480156100ec575f80fd5b506100f56108f7565b6040516101029190612ade565b60405180910390f35b348015610116575f80fd5b5061011f61091a565b60405161012c919061320b565b60405180910390f35b348015610140575f80fd5b5061015b60048036038101906101569190612a91565b610e05565b005b348015610168575f80fd5b50610183600480360381019061017e919061322b565b611140565b604051610194959493929190613283565b60405180910390f35b3480156101a8575f80fd5b506101c360048036038101906101be91906132d4565b6111aa565b005b3480156101d0575f80fd5b506101eb60048036038101906101e6919061333c565b611526565b005b3480156101f8575f80fd5b50610213600480360381019061020e91906134cc565b611bdd565b005b348015610220575f80fd5b5061023b60048036038101906102369190613538565b611f05565b005b348015610248575f80fd5b506102516120ef565b60405161025e9190613588565b60405180910390f35b348015610272575f80fd5b5061028d60048036038101906102889190612a91565b6120f5565b60405161029a9190613624565b60405180910390f35b3480156102ae575f80fd5b506102c960048036038101906102c4919061322b565b6122e5565b6040516102d691906136b0565b60405180910390f35b3480156102ea575f80fd5b506103056004803603810190610300919061385e565b6123c2565b005b8160025f8281526020019081526020015f205f015f9054906101000a900473ffffffffffffffffffffffffffffffffffffffff1673ffffffffffffffffffffffffffffffffffffffff163373ffffffffffffffffffffffffffffffffffffffff16146103a8576040517f08c379a000000000000000000000000000000000000000000000000000000000815260040161039f9061395e565b60405180910390fd5b5f60025f8581526020019081526020015f2090505f6103c78585612549565b905081600701805490508110610412576040517f08c379a0000000000000000000000000000000000000000000000000000000008152600401610409906139c6565b60405180910390fd5b5f826007018281548110610429576104286139e4565b5b905f5260205f2090600302016001015490505f836007018381548110610452576104516139e4565b5b905f5260205f2090600302016002015490503481836104719190613a3e565b146104b1576040517f08c379a00000000000000000000000000000000000000000000000000000000081526004016104a890613aef565b60405180910390fd5b8573ffffffffffffffffffffffffffffffffffffffff168460070184815481106104de576104dd6139e4565b5b905f5260205f2090600302015f015f9054906101000a900473ffffffffffffffffffffffffffffffffffffffff1673ffffffffffffffffffffffffffffffffffffffff1614610562576040517f08c379a000000000000000000000000000000000000000000000000000000000815260040161055990613b57565b60405180910390fd5b600115158460060160019054906101000a900460ff1615151480156105ba57505f600381111561059557610594612c0f565b5b846006015f9054906101000a900460ff1660038111156105b8576105b7612c0f565b5b145b6105f9576040517f08c379a00000000000000000000000000000000000000000000000000000000081526004016105f090613be5565b60405180910390fd5b5f81856004015461060a9190613c03565b101561064b576040517f08c379a000000000000000000000000000000000000000000000000000000000815260040161064290613c80565b60405180910390fd5b836001016040518060a001604052803373ffffffffffffffffffffffffffffffffffffffff1681526020018387600501546106869190613a3e565b81526020018381526020015f67ffffffffffffffff8111156106ab576106aa613390565b5b6040519080825280602002602001820160405280156106d95781602001602082028036833780820191505090505b5081526020015f60038111156106f2576106f1612c0f565b5b815250908060018154018082558091505060019003905f5260205f2090600502015f909190919091505f820151815f015f6101000a81548173ffffffffffffffffffffffffffffffffffffffff021916908373ffffffffffffffffffffffffffffffffffffffff1602179055506020820151816001015560408201518160020155606082015181600301908051906020019061078f929190612815565b506080820151816004015f6101000a81548160ff021916908360038111156107ba576107b9612c0f565b5b021790555050508360070183815481106107d7576107d66139e4565b5b905f5260205f2090600302015f8082015f6101000a81549073ffffffffffffffffffffffffffffffffffffffff0219169055600182015f9055600282015f9055505080846004015f82825461082c9190613c03565b925050819055507f19439d2f13b8e31a345c68e37f0c812831a8a55918a850b8b0d16ed1d0870e9e878784846040516108689493929190613c9e565b60405180910390a15f8460040154036108ee576001846006015f6101000a81548160ff021916908360038111156108a2576108a1612c0f565b5b0217905550836007015f6108b69190612860565b7f318a250f8c30f2d9fef18cb7f019f4dffe3f45db4e76f8fbe408bae19e5304cd876040516108e59190613588565b60405180910390a15b50505050505050565b5f8054906101000a900473ffffffffffffffffffffffffffffffffffffffff1681565b60605f60015467ffffffffffffffff81111561093957610938613390565b5b60405190808252806020026020018201604052801561097257816020015b61095f612881565b8152602001906001900390816109575790505b5090505f5b600154811015610dfd5760025f8281526020019081526020015f20604051806101200160405290815f82015f9054906101000a900473ffffffffffffffffffffffffffffffffffffffff1673ffffffffffffffffffffffffffffffffffffffff1673ffffffffffffffffffffffffffffffffffffffff16815260200160018201805480602002602001604051908101604052809291908181526020015f905b82821015610b3e578382905f5260205f2090600502016040518060a00160405290815f82015f9054906101000a900473ffffffffffffffffffffffffffffffffffffffff1673ffffffffffffffffffffffffffffffffffffffff1673ffffffffffffffffffffffffffffffffffffffff168152602001600182015481526020016002820154815260200160038201805480602002602001604051908101604052809291908181526020018280548015610aec57602002820191905f5260205f20905b815481526020019060010190808311610ad8575b50505050508152602001600482015f9054906101000a900460ff166003811115610b1957610b18612c0f565b5b6003811115610b2b57610b2a612c0f565b5b8152505081526020019060010190610a16565b50505050815260200160028201805480602002602001604051908101604052809291908181526020018280548015610bc857602002820191905f5260205f20905b815f9054906101000a900473ffffffffffffffffffffffffffffffffffffffff1673ffffffffffffffffffffffffffffffffffffffff1681526020019060010190808311610b7f575b5050505050815260200160038201805480602002602001604051908101604052809291908181526020015f905b82821015610c9d578382905f5260205f20018054610c1290613d0e565b80601f0160208091040260200160405190810160405280929190818152602001828054610c3e90613d0e565b8015610c895780601f10610c6057610100808354040283529160200191610c89565b820191905f5260205f20905b815481529060010190602001808311610c6c57829003601f168201915b505050505081526020019060010190610bf5565b5050505081526020016004820154815260200160058201548152602001600682015f9054906101000a900460ff166003811115610cdd57610cdc612c0f565b5b6003811115610cef57610cee612c0f565b5b81526020016006820160019054906101000a900460ff1615151515815260200160078201805480602002602001604051908101604052809291908181526020015f905b82821015610dca578382905f5260205f2090600302016040518060600160405290815f82015f9054906101000a900473ffffffffffffffffffffffffffffffffffffffff1673ffffffffffffffffffffffffffffffffffffffff1673ffffffffffffffffffffffffffffffffffffffff1681526020016001820154815260200160028201548152505081526020019060010190610d32565b5050505081525050828281518110610de557610de46139e4565b5b60200260200101819052508080600101915050610977565b508091505090565b8160025f8281526020019081526020015f205f015f9054906101000a900473ffffffffffffffffffffffffffffffffffffffff1673ffffffffffffffffffffffffffffffffffffffff163373ffffffffffffffffffffffffffffffffffffffff1614610ea6576040517f08c379a0000000000000000000000000000000000000000000000000000000008152600401610e9d9061395e565b60405180910390fd5b5f60025f8581526020019081526020015f2090505f610ec5858561260e565b905081600101805490508110610f10576040517f08c379a0000000000000000000000000000000000000000000000000000000008152600401610f0790613d88565b60405180910390fd5b5f6003811115610f2357610f22612c0f565b5b826001018281548110610f3957610f386139e4565b5b905f5260205f2090600502016004015f9054906101000a900460ff166003811115610f6757610f66612c0f565b5b14610fa7576040517f08c379a0000000000000000000000000000000000000000000000000000000008152600401610f9e90613e16565b60405180910390fd5b6002826001018281548110610fbf57610fbe6139e4565b5b905f5260205f2090600502016004015f6101000a81548160ff02191690836003811115610fef57610fee612c0f565b5b0217905550610ffd856126d3565b5f826001018281548110611014576110136139e4565b5b905f5260205f2090600502016002015483600101838154811061103a576110396139e4565b5b905f5260205f209060050201600101546110549190613a3e565b90505f8573ffffffffffffffffffffffffffffffffffffffff168260405161107b90613e61565b5f6040518083038185875af1925050503d805f81146110b5576040519150601f19603f3d011682016040523d82523d5f602084013e6110ba565b606091505b50509050806110fe576040517f08c379a00000000000000000000000000000000000000000000000000000000081526004016110f590613ebf565b60405180910390fd5b7f94bfe4304c4a019a643db1361c608e44b3b0809910ddccf2c432f88b751dce9b878760405161112f929190613edd565b60405180910390a150505050505050565b6002602052805f5260405f205f91509050805f015f9054906101000a900473ffffffffffffffffffffffffffffffffffffffff1690806004015490806005015490806006015f9054906101000a900460ff16908060060160019054906101000a900460ff16905085565b5f60025f8481526020019081526020015f2090505f60038111156111d1576111d0612c0f565b5b816006015f9054906101000a900460ff1660038111156111f4576111f3612c0f565b5b14611234576040517f08c379a000000000000000000000000000000000000000000000000000000000815260040161122b90613f74565b60405180910390fd5b5f15158160060160019054906101000a900460ff1615151461128b576040517f08c379a000000000000000000000000000000000000000000000000000000000815260040161128290614002565b60405180910390fd5b81816004015410156112d2576040517f08c379a00000000000000000000000000000000000000000000000000000000081526004016112c990614090565b60405180910390fd5b806001016040518060a001604052803373ffffffffffffffffffffffffffffffffffffffff16815260200184846005015461130d9190613a3e565b81526020018481526020015f67ffffffffffffffff81111561133257611331613390565b5b6040519080825280602002602001820160405280156113605781602001602082028036833780820191505090505b5081526020015f600381111561137957611378612c0f565b5b815250908060018154018082558091505060019003905f5260205f2090600502015f909190919091505f820151815f015f6101000a81548173ffffffffffffffffffffffffffffffffffffffff021916908373ffffffffffffffffffffffffffffffffffffffff16021790555060208201518160010155604082015181600201556060820151816003019080519060200190611416929190612815565b506080820151816004015f6101000a81548160ff0219169083600381111561144157611440612c0f565b5b0217905550505081816004015f82825461145b9190613c03565b925050819055507f19439d2f13b8e31a345c68e37f0c812831a8a55918a850b8b0d16ed1d0870e9e833383600501548560405161149b9493929190613c9e565b60405180910390a15f816004015403611521576001816006015f6101000a81548160ff021916908360038111156114d5576114d4612c0f565b5b0217905550806007015f6114e99190612860565b7f318a250f8c30f2d9fef18cb7f019f4dffe3f45db4e76f8fbe408bae19e5304cd836040516115189190613588565b60405180910390a15b505050565b5f8054906101000a900473ffffffffffffffffffffffffffffffffffffffff1673ffffffffffffffffffffffffffffffffffffffff163373ffffffffffffffffffffffffffffffffffffffff16146115b3576040517f08c379a00000000000000000000000000000000000000000000000000000000081526004016115aa9061411e565b60405180910390fd5b5f60025f8581526020019081526020015f2090505f6115d2858561260e565b90508160010180549050811061161d576040517f08c379a000000000000000000000000000000000000000000000000000000000815260040161161490613d88565b60405180910390fd5b6002600381111561163157611630612c0f565b5b826006015f9054906101000a900460ff16600381111561165457611653612c0f565b5b14611694576040517f08c379a000000000000000000000000000000000000000000000000000000000815260040161168b906141ac565b60405180910390fd5b600160038111156116a8576116a7612c0f565b5b8260010182815481106116be576116bd6139e4565b5b905f5260205f2090600502016004015f9054906101000a900460ff1660038111156116ec576116eb612c0f565b5b1461172c576040517f08c379a000000000000000000000000000000000000000000000000000000000815260040161172390614214565b60405180910390fd5b821561198757600282600101828154811061174a576117496139e4565b5b905f5260205f2090600502016004015f6101000a81548160ff0219169083600381111561177a57611779612c0f565b5b0217905550611788856126d3565b5f67ffffffffffffffff8111156117a2576117a1613390565b5b6040519080825280602002602001820160405280156117d05781602001602082028036833780820191505090505b508260010182815481106117e7576117e66139e4565b5b905f5260205f2090600502016003019080519060200190611809929190612815565b505f826001018281548110611821576118206139e4565b5b905f5260205f20906005020160020154836001018381548110611847576118466139e4565b5b905f5260205f209060050201600101546118619190613a3e565b90505f8573ffffffffffffffffffffffffffffffffffffffff168260405161188890613e61565b5f6040518083038185875af1925050503d805f81146118c2576040519150601f19603f3d011682016040523d82523d5f602084013e6118c7565b606091505b505090508061190b576040517f08c379a000000000000000000000000000000000000000000000000000000000815260040161190290613ebf565b60405180910390fd5b7fd88a0d2b84d1abbfe3f09463e545789513c74ca862aeef5b498b2dc97431f1f98787600160405161193f93929190614232565b60405180910390a17f94bfe4304c4a019a643db1361c608e44b3b0809910ddccf2c432f88b751dce9b8787604051611978929190613edd565b60405180910390a15050611bd6565b600382600101828154811061199f5761199e6139e4565b5b905f5260205f2090600502016004015f6101000a81548160ff021916908360038111156119cf576119ce612c0f565b5b02179055508160010181815481106119ea576119e96139e4565b5b905f5260205f209060050201600201548260040154611a099190614267565b82600401819055505f826006015f6101000a81548160ff02191690836003811115611a3757611a36612c0f565b5b02179055505f826001018281548110611a5357611a526139e4565b5b905f5260205f20906005020160020154836001018381548110611a7957611a786139e4565b5b905f5260205f20906005020160010154611a939190613a3e565b90505f835f015f9054906101000a900473ffffffffffffffffffffffffffffffffffffffff1673ffffffffffffffffffffffffffffffffffffffff1682604051611adc90613e61565b5f6040518083038185875af1925050503d805f8114611b16576040519150601f19603f3d011682016040523d82523d5f602084013e611b1b565b606091505b5050905080611b5f576040517f08c379a0000000000000000000000000000000000000000000000000000000008152600401611b5690613ebf565b60405180910390fd5b7fd88a0d2b84d1abbfe3f09463e545789513c74ca862aeef5b498b2dc97431f1f987875f604051611b9293929190614232565b60405180910390a17f79aa2e5f64c5ebe6553a9646e8a7d869e4e018fd1199481883b0e91fcabf95ab8787604051611bcb929190613edd565b60405180910390a150505b5050505050565b8260025f8281526020019081526020015f205f015f9054906101000a900473ffffffffffffffffffffffffffffffffffffffff1673ffffffffffffffffffffffffffffffffffffffff163373ffffffffffffffffffffffffffffffffffffffff1614611c7e576040517f08c379a0000000000000000000000000000000000000000000000000000000008152600401611c759061395e565b60405180910390fd5b5f60025f8681526020019081526020015f20905060016003811115611ca657611ca5612c0f565b5b816006015f9054906101000a900460ff166003811115611cc957611cc8612c0f565b5b1480611d0857505f6003811115611ce357611ce2612c0f565b5b816006015f9054906101000a900460ff166003811115611d0657611d05612c0f565b5b145b611d47576040517f08c379a0000000000000000000000000000000000000000000000000000000008152600401611d3e9061430a565b60405180910390fd5b6002816006015f6101000a81548160ff02191690836003811115611d6e57611d6d612c0f565b5b02179055505f611d7e868661260e565b905081600101805490508110611dc9576040517f08c379a0000000000000000000000000000000000000000000000000000000008152600401611dc090613d88565b60405180910390fd5b6001826001018281548110611de157611de06139e4565b5b905f5260205f2090600502016004015f6101000a81548160ff02191690836003811115611e1157611e10612c0f565b5b0217905550816001018181548110611e2c57611e2b6139e4565b5b905f5260205f2090600502016003015f611e4691906128f2565b5f5b8451811015611ec157826001018281548110611e6757611e666139e4565b5b905f5260205f209060050201600301858281518110611e8957611e886139e4565b5b6020026020010151908060018154018082558091505060019003905f5260205f20015f90919091909150558080600101915050611e48565b507fdd73ff114f3ac78604467696adc4df178dafb4cc7e2f984473a21d424ee0341b868686604051611ef593929190614394565b60405180910390a1505050505050565b5f60025f8581526020019081526020015f209050600115158160060160019054906101000a900460ff161515148015611f7157505f6003811115611f4c57611f4b612c0f565b5b816006015f9054906101000a900460ff166003811115611f6f57611f6e612c0f565b5b145b611fb0576040517f08c379a0000000000000000000000000000000000000000000000000000000008152600401611fa790614440565b60405180910390fd5b8281600401541015611ff7576040517f08c379a0000000000000000000000000000000000000000000000000000000008152600401611fee90614090565b60405180910390fd5b8060070160405180606001604052803373ffffffffffffffffffffffffffffffffffffffff16815260200184815260200185815250908060018154018082558091505060019003905f5260205f2090600302015f909190919091505f820151815f015f6101000a81548173ffffffffffffffffffffffffffffffffffffffff021916908373ffffffffffffffffffffffffffffffffffffffff160217905550602082015181600101556040820151816002015550507ff88ee2fa0f4aa3cc508b9c967b3d6ef3d016d3138044fe12c14505fa0b5343ca843385856040516120e19493929190613c9e565b60405180910390a150505050565b60015481565b60605f60025f8581526020019081526020015f2090505f612116858561260e565b905081600101805490508110612161576040517f08c379a000000000000000000000000000000000000000000000000000000000815260040161215890613d88565b60405180910390fd5b5f826001018281548110612178576121776139e4565b5b905f5260205f20906005020160030190505f818054905067ffffffffffffffff8111156121a8576121a7613390565b5b6040519080825280602002602001820160405280156121db57816020015b60608152602001906001900390816121c65790505b5090505f5b82805490508110156122d75784600301838281548110612203576122026139e4565b5b905f5260205f2001548154811061221d5761221c6139e4565b5b905f5260205f2001805461223090613d0e565b80601f016020809104026020016040519081016040528092919081815260200182805461225c90613d0e565b80156122a75780601f1061227e576101008083540402835291602001916122a7565b820191905f5260205f20905b81548152906001019060200180831161228a57829003601f168201915b50505050508282815181106122bf576122be6139e4565b5b602002602001018190525080806001019150506121e0565b508094505050505092915050565b60605f60025f8481526020019081526020015f20905080600701805480602002602001604051908101604052809291908181526020015f905b828210156123b6578382905f5260205f2090600302016040518060600160405290815f82015f9054906101000a900473ffffffffffffffffffffffffffffffffffffffff1673ffffffffffffffffffffffffffffffffffffffff1673ffffffffffffffffffffffffffffffffffffffff168152602001600182015481526020016002820154815250508152602001906001019061231e565b50505050915050919050565b5f60025f60015481526020019081526020015f20905033815f015f6101000a81548173ffffffffffffffffffffffffffffffffffffffff021916908373ffffffffffffffffffffffffffffffffffffffff160217905550806003015f6124289190612910565b5f5b855181101561248e578160030186828151811061244a576124496139e4565b5b6020026020010151908060018154018082558091505060019003905f5260205f20015f90919091909150908161248091906145fb565b50808060010191505061242a565b508281600501819055508381600401819055505f816006015f6101000a81548160ff021916908360038111156124c7576124c6612c0f565b5b0217905550818160060160016101000a81548160ff0219169083151502179055507fdb565bd8b7d99da141036d23ab6e2b3fb4eb4faa0968cb9f4e4414bf7486afc06001543387878787604051612523969594939291906146ca565b60405180910390a160015f81548092919061253d90614730565b91905055505050505050565b5f8060025f8581526020019081526020015f2090505f816007018054905090505f5b81811015612601578473ffffffffffffffffffffffffffffffffffffffff168360070182815481106125a05761259f6139e4565b5b905f5260205f2090600302015f015f9054906101000a900473ffffffffffffffffffffffffffffffffffffffff1673ffffffffffffffffffffffffffffffffffffffff16036125f457809350505050612608565b808060010191505061256b565b5080925050505b92915050565b5f8060025f8581526020019081526020015f2090505f816001018054905090505f5b818110156126c6578473ffffffffffffffffffffffffffffffffffffffff16836001018281548110612665576126646139e4565b5b905f5260205f2090600502015f015f9054906101000a900473ffffffffffffffffffffffffffffffffffffffff1673ffffffffffffffffffffffffffffffffffffffff16036126b9578093505050506126cd565b8080600101915050612630565b5080925050505b92915050565b5f600190505f60025f8481526020019081526020015f2090505f5b81600101805490508110156127cd576002600381111561271157612710612c0f565b5b826001018281548110612727576127266139e4565b5b905f5260205f2090600502016004015f9054906101000a900460ff16600381111561275557612754612c0f565b5b1415806127b757506003808111156127705761276f612c0f565b5b826001018281548110612786576127856139e4565b5b905f5260205f2090600502016004015f9054906101000a900460ff1660038111156127b4576127b3612c0f565b5b14155b156127c0575f92505b80806001019150506126ee565b508180156127de57505f8160040154145b15612810576003816006015f6101000a81548160ff0219169083600381111561280a57612809612c0f565b5b02179055505b505050565b828054828255905f5260205f2090810192821561284f579160200282015b8281111561284e578251825591602001919060010190612833565b5b50905061285c919061292e565b5090565b5080545f8255600302905f5260205f209081019061287e9190612949565b50565b6040518061012001604052805f73ffffffffffffffffffffffffffffffffffffffff1681526020016060815260200160608152602001606081526020015f81526020015f81526020015f60038111156128dd576128dc612c0f565b5b81526020015f15158152602001606081525090565b5080545f8255905f5260205f209081019061290d919061292e565b50565b5080545f8255905f5260205f209081019061292b9190612993565b50565b5b80821115612945575f815f90555060010161292f565b5090565b5b8082111561298f575f8082015f6101000a81549073ffffffffffffffffffffffffffffffffffffffff0219169055600182015f9055600282015f90555060030161294a565b5090565b5b808211156129b2575f81816129a991906129b6565b50600101612994565b5090565b5080546129c290613d0e565b5f825580601f106129d357506129f0565b601f0160209004905f5260205f20908101906129ef919061292e565b5b50565b5f604051905090565b5f80fd5b5f80fd5b5f819050919050565b612a1681612a04565b8114612a20575f80fd5b50565b5f81359050612a3181612a0d565b92915050565b5f73ffffffffffffffffffffffffffffffffffffffff82169050919050565b5f612a6082612a37565b9050919050565b612a7081612a56565b8114612a7a575f80fd5b50565b5f81359050612a8b81612a67565b92915050565b5f8060408385031215612aa757612aa66129fc565b5b5f612ab485828601612a23565b9250506020612ac585828601612a7d565b9150509250929050565b612ad881612a56565b82525050565b5f602082019050612af15f830184612acf565b92915050565b5f81519050919050565b5f82825260208201905092915050565b5f819050602082019050919050565b612b2981612a56565b82525050565b5f81519050919050565b5f82825260208201905092915050565b5f819050602082019050919050565b612b6181612a04565b82525050565b5f81519050919050565b5f82825260208201905092915050565b5f819050602082019050919050565b5f612b9b8383612b58565b60208301905092915050565b5f602082019050919050565b5f612bbd82612b67565b612bc78185612b71565b9350612bd283612b81565b805f5b83811015612c02578151612be98882612b90565b9750612bf483612ba7565b925050600181019050612bd5565b5085935050505092915050565b7f4e487b71000000000000000000000000000000000000000000000000000000005f52602160045260245ffd5b60048110612c4d57612c4c612c0f565b5b50565b5f819050612c5d82612c3c565b919050565b5f612c6c82612c50565b9050919050565b612c7c81612c62565b82525050565b5f60a083015f830151612c975f860182612b20565b506020830151612caa6020860182612b58565b506040830151612cbd6040860182612b58565b5060608301518482036060860152612cd58282612bb3565b9150506080830151612cea6080860182612c73565b508091505092915050565b5f612d008383612c82565b905092915050565b5f602082019050919050565b5f612d1e82612b2f565b612d288185612b39565b935083602082028501612d3a85612b49565b805f5b85811015612d755784840389528151612d568582612cf5565b9450612d6183612d08565b925060208a01995050600181019050612d3d565b50829750879550505050505092915050565b5f81519050919050565b5f82825260208201905092915050565b5f819050602082019050919050565b5f612dbb8383612b20565b60208301905092915050565b5f602082019050919050565b5f612ddd82612d87565b612de78185612d91565b9350612df283612da1565b805f5b83811015612e22578151612e098882612db0565b9750612e1483612dc7565b925050600181019050612df5565b5085935050505092915050565b5f81519050919050565b5f82825260208201905092915050565b5f819050602082019050919050565b5f81519050919050565b5f82825260208201905092915050565b8281835e5f83830152505050565b5f601f19601f8301169050919050565b5f612e9a82612e58565b612ea48185612e62565b9350612eb4818560208601612e72565b612ebd81612e80565b840191505092915050565b5f612ed38383612e90565b905092915050565b5f602082019050919050565b5f612ef182612e2f565b612efb8185612e39565b935083602082028501612f0d85612e49565b805f5b85811015612f485784840389528151612f298582612ec8565b9450612f3483612edb565b925060208a01995050600181019050612f10565b50829750879550505050505092915050565b60048110612f6b57612f6a612c0f565b5b50565b5f819050612f7b82612f5a565b919050565b5f612f8a82612f6e565b9050919050565b612f9a81612f80565b82525050565b5f8115159050919050565b612fb481612fa0565b82525050565b5f81519050919050565b5f82825260208201905092915050565b5f819050602082019050919050565b606082015f820151612ff75f850182612b20565b50602082015161300a6020850182612b58565b50604082015161301d6040850182612b58565b50505050565b5f61302e8383612fe3565b60608301905092915050565b5f602082019050919050565b5f61305082612fba565b61305a8185612fc4565b935061306583612fd4565b805f5b8381101561309557815161307c8882613023565b97506130878361303a565b925050600181019050613068565b5085935050505092915050565b5f61012083015f8301516130b85f860182612b20565b50602083015184820360208601526130d08282612d14565b915050604083015184820360408601526130ea8282612dd3565b915050606083015184820360608601526131048282612ee7565b91505060808301516131196080860182612b58565b5060a083015161312c60a0860182612b58565b5060c083015161313f60c0860182612f91565b5060e083015161315260e0860182612fab565b5061010083015184820361010086015261316c8282613046565b9150508091505092915050565b5f61318483836130a2565b905092915050565b5f602082019050919050565b5f6131a282612af7565b6131ac8185612b01565b9350836020820285016131be85612b11565b805f5b858110156131f957848403895281516131da8582613179565b94506131e58361318c565b925060208a019950506001810190506131c1565b50829750879550505050505092915050565b5f6020820190508181035f8301526132238184613198565b905092915050565b5f602082840312156132405761323f6129fc565b5b5f61324d84828501612a23565b91505092915050565b61325f81612a04565b82525050565b61326e81612f80565b82525050565b61327d81612fa0565b82525050565b5f60a0820190506132965f830188612acf565b6132a36020830187613256565b6132b06040830186613256565b6132bd6060830185613265565b6132ca6080830184613274565b9695505050505050565b5f80604083850312156132ea576132e96129fc565b5b5f6132f785828601612a23565b925050602061330885828601612a23565b9150509250929050565b61331b81612fa0565b8114613325575f80fd5b50565b5f8135905061333681613312565b92915050565b5f805f60608486031215613353576133526129fc565b5b5f61336086828701612a23565b935050602061337186828701612a7d565b925050604061338286828701613328565b9150509250925092565b5f80fd5b7f4e487b71000000000000000000000000000000000000000000000000000000005f52604160045260245ffd5b6133c682612e80565b810181811067ffffffffffffffff821117156133e5576133e4613390565b5b80604052505050565b5f6133f76129f3565b905061340382826133bd565b919050565b5f67ffffffffffffffff82111561342257613421613390565b5b602082029050602081019050919050565b5f80fd5b5f61344961344484613408565b6133ee565b9050808382526020820190506020840283018581111561346c5761346b613433565b5b835b8181101561349557806134818882612a23565b84526020840193505060208101905061346e565b5050509392505050565b5f82601f8301126134b3576134b261338c565b5b81356134c3848260208601613437565b91505092915050565b5f805f606084860312156134e3576134e26129fc565b5b5f6134f086828701612a23565b935050602061350186828701612a7d565b925050604084013567ffffffffffffffff81111561352257613521612a00565b5b61352e8682870161349f565b9150509250925092565b5f805f6060848603121561354f5761354e6129fc565b5b5f61355c86828701612a23565b935050602061356d86828701612a23565b925050604061357e86828701612a23565b9150509250925092565b5f60208201905061359b5f830184613256565b92915050565b5f82825260208201905092915050565b5f6135bb82612e2f565b6135c581856135a1565b9350836020820285016135d785612e49565b805f5b8581101561361257848403895281516135f38582612ec8565b94506135fe83612edb565b925060208a019950506001810190506135da565b50829750879550505050505092915050565b5f6020820190508181035f83015261363c81846135b1565b905092915050565b5f82825260208201905092915050565b5f61365e82612fba565b6136688185613644565b935061367383612fd4565b805f5b838110156136a357815161368a8882613023565b97506136958361303a565b925050600181019050613676565b5085935050505092915050565b5f6020820190508181035f8301526136c88184613654565b905092915050565b5f67ffffffffffffffff8211156136ea576136e9613390565b5b602082029050602081019050919050565b5f80fd5b5f67ffffffffffffffff82111561371957613718613390565b5b61372282612e80565b9050602081019050919050565b828183375f83830152505050565b5f61374f61374a846136ff565b6133ee565b90508281526020810184848401111561376b5761376a6136fb565b5b61377684828561372f565b509392505050565b5f82601f8301126137925761379161338c565b5b81356137a284826020860161373d565b91505092915050565b5f6137bd6137b8846136d0565b6133ee565b905080838252602082019050602084028301858111156137e0576137df613433565b5b835b8181101561382757803567ffffffffffffffff8111156138055761380461338c565b5b808601613812898261377e565b855260208501945050506020810190506137e2565b5050509392505050565b5f82601f8301126138455761384461338c565b5b81356138558482602086016137ab565b91505092915050565b5f805f8060808587031215613876576138756129fc565b5b5f85013567ffffffffffffffff81111561389357613892612a00565b5b61389f87828801613831565b94505060206138b087828801612a23565b93505060406138c187828801612a23565b92505060606138d287828801613328565b91505092959194509250565b5f82825260208201905092915050565b7f4f6e6c792062757965722063616e2063616c6c20746869732066756e6374696f5f8201527f6e00000000000000000000000000000000000000000000000000000000000000602082015250565b5f6139486021836138de565b9150613953826138ee565b604082019050919050565b5f6020820190508181035f8301526139758161393c565b9050919050565b7f54686520626964206973206e6f7420617661696c61626c6500000000000000005f82015250565b5f6139b06018836138de565b91506139bb8261397c565b602082019050919050565b5f6020820190508181035f8301526139dd816139a4565b9050919050565b7f4e487b71000000000000000000000000000000000000000000000000000000005f52603260045260245ffd5b7f4e487b71000000000000000000000000000000000000000000000000000000005f52601160045260245ffd5b5f613a4882612a04565b9150613a5383612a04565b9250828202613a6181612a04565b91508282048414831517613a7857613a77613a11565b5b5092915050565b7f546865207072696365206973206e6f742073616d65206173206e65676f7469615f8201527f74696f6e00000000000000000000000000000000000000000000000000000000602082015250565b5f613ad96024836138de565b9150613ae482613a7f565b604082019050919050565b5f6020820190508181035f830152613b0681613acd565b9050919050565b7f4e6f74207468652073616d65206661726d6572000000000000000000000000005f82015250565b5f613b416013836138de565b9150613b4c82613b0d565b602082019050919050565b5f6020820190508181035f830152613b6e81613b35565b9050919050565b7f436f6e7472616374206973206e6f7420617661696c61626c6520666f72206e655f8201527f676f74696174696f6e0000000000000000000000000000000000000000000000602082015250565b5f613bcf6029836138de565b9150613bda82613b75565b604082019050919050565b5f6020820190508181035f830152613bfc81613bc3565b9050919050565b5f613c0d82612a04565b9150613c1883612a04565b9250828203905081811115613c3057613c2f613a11565b5b92915050565b7f5175616e746974792067726561746572207468616e20726571756972656400005f82015250565b5f613c6a601e836138de565b9150613c7582613c36565b602082019050919050565b5f6020820190508181035f830152613c9781613c5e565b9050919050565b5f608082019050613cb15f830187613256565b613cbe6020830186612acf565b613ccb6040830185613256565b613cd86060830184613256565b95945050505050565b7f4e487b71000000000000000000000000000000000000000000000000000000005f52602260045260245ffd5b5f6002820490506001821680613d2557607f821691505b602082108103613d3857613d37613ce1565b5b50919050565b7f546865206661726d6572206973206e6f7420617661696c61626c6500000000005f82015250565b5f613d72601b836138de565b9150613d7d82613d3e565b602082019050919050565b5f6020820190508181035f830152613d9f81613d66565b9050919050565b7f4661726d657220636f6e7472616374206973206e6f7420696e206163636570745f8201527f6564207374617465000000000000000000000000000000000000000000000000602082015250565b5f613e006028836138de565b9150613e0b82613da6565b604082019050919050565b5f6020820190508181035f830152613e2d81613df4565b9050919050565b5f81905092915050565b50565b5f613e4c5f83613e34565b9150613e5782613e3e565b5f82019050919050565b5f613e6b82613e41565b9150819050919050565b7f5061796d656e74206661696c65642e00000000000000000000000000000000005f82015250565b5f613ea9600f836138de565b9150613eb482613e75565b602082019050919050565b5f6020820190508181035f830152613ed681613e9d565b9050919050565b5f604082019050613ef05f830185613256565b613efd6020830184612acf565b9392505050565b7f436f6e7472616374206973206e6f7420617661696c61626c6520666f722061635f8201527f63657074616e6365000000000000000000000000000000000000000000000000602082015250565b5f613f5e6028836138de565b9150613f6982613f04565b604082019050919050565b5f6020820190508181035f830152613f8b81613f52565b9050919050565b7f506c6561736520706c6163652061206269642e20436f6e74726163742063616e5f8201527f6e6f74206265206163636570746564206469726563746c790000000000000000602082015250565b5f613fec6038836138de565b9150613ff782613f92565b604082019050919050565b5f6020820190508181035f83015261401981613fe0565b9050919050565b7f546865207175616e74697479206d75737420626520657175616c20746f206f725f8201527f206c657373207468616e207265717569726564207175616e7469747900000000602082015250565b5f61407a603c836138de565b915061408582614020565b604082019050919050565b5f6020820190508181035f8301526140a78161406e565b9050919050565b7f4f6e6c7920676f7665726e6d656e742063616e2063616c6c20746869732066755f8201527f6e6374696f6e0000000000000000000000000000000000000000000000000000602082015250565b5f6141086026836138de565b9150614113826140ae565b604082019050919050565b5f6020820190508181035f830152614135816140fc565b9050919050565b7f436f6e7472616374206973206e6f7420696e20646973707574656420737461745f8201527f6500000000000000000000000000000000000000000000000000000000000000602082015250565b5f6141966021836138de565b91506141a18261413c565b604082019050919050565b5f6020820190508181035f8301526141c38161418a565b9050919050565b7f546865206661726d6572206973206e6f7420696e2064697370757465000000005f82015250565b5f6141fe601c836138de565b9150614209826141ca565b602082019050919050565b5f6020820190508181035f83015261422b816141f2565b9050919050565b5f6060820190506142455f830186613256565b6142526020830185612acf565b61425f6040830184613274565b949350505050565b5f61427182612a04565b915061427c83612a04565b925082820190508082111561429457614293613a11565b5b92915050565b7f436f6e7472616374206973206e6f7420696e20616363657074656420737461745f8201527f6500000000000000000000000000000000000000000000000000000000000000602082015250565b5f6142f46021836138de565b91506142ff8261429a565b604082019050919050565b5f6020820190508181035f830152614321816142e8565b9050919050565b5f82825260208201905092915050565b5f61434282612b67565b61434c8185614328565b935061435783612b81565b805f5b8381101561438757815161436e8882612b90565b975061437983612ba7565b92505060018101905061435a565b5085935050505092915050565b5f6060820190506143a75f830186613256565b6143b46020830185612acf565b81810360408301526143c68184614338565b9050949350505050565b7f54686520636f6e7472616374206973206e6f7420617661696c61626c6520666f5f8201527f72206e65676f74696174696f6e00000000000000000000000000000000000000602082015250565b5f61442a602d836138de565b9150614435826143d0565b604082019050919050565b5f6020820190508181035f8301526144578161441e565b9050919050565b5f819050815f5260205f209050919050565b5f6020601f8301049050919050565b5f82821b905092915050565b5f600883026144ba7fffffffffffffffffffffffffffffffffffffffffffffffffffffffffffffffff8261447f565b6144c4868361447f565b95508019841693508086168417925050509392505050565b5f819050919050565b5f6144ff6144fa6144f584612a04565b6144dc565b612a04565b9050919050565b5f819050919050565b614518836144e5565b61452c61452482614506565b84845461448b565b825550505050565b5f90565b614540614534565b61454b81848461450f565b505050565b5b8181101561456e576145635f82614538565b600181019050614551565b5050565b601f8211156145b3576145848161445e565b61458d84614470565b8101602085101561459c578190505b6145b06145a885614470565b830182614550565b50505b505050565b5f82821c905092915050565b5f6145d35f19846008026145b8565b1980831691505092915050565b5f6145eb83836145c4565b9150826002028217905092915050565b61460482612e58565b67ffffffffffffffff81111561461d5761461c613390565b5b6146278254613d0e565b614632828285614572565b5f60209050601f831160018114614663575f8415614651578287015190505b61465b85826145e0565b8655506146c2565b601f1984166146718661445e565b5f5b8281101561469857848901518255600182019150602085019450602081019050614673565b868310156146b557848901516146b1601f8916826145c4565b8355505b6001600288020188555050505b505050505050565b5f60c0820190506146dd5f830189613256565b6146ea6020830188612acf565b81810360408301526146fc81876135b1565b905061470b6060830186613256565b6147186080830185613256565b61472560a0830184613274565b979650505050505050565b5f61473a82612a04565b91507fffffffffffffffffffffffffffffffffffffffffffffffffffffffffffffffff820361476c5761476b613a11565b5b60018201905091905056fea2646970667358221220322757a616d25765ad430bc6f3d230107b51bfd30e05f48eefd47d5633a963bc64736f6c634300081a0033",
			"opcodes": "PUSH1 0x80 PUSH1 0x40 MSTORE PUSH0 PUSH1 0x1 SSTORE CALLVALUE DUP1 ISZERO PUSH1 0x12 JUMPI PUSH0 DUP1 REVERT JUMPDEST POP CALLER PUSH0 DUP1 PUSH2 0x100 EXP DUP2 SLOAD DUP2 PUSH20 0xFFFFFFFFFFFFFFFFFFFFFFFFFFFFFFFFFFFFFFFF MUL NOT AND SWAP1 DUP4 PUSH20 0xFFFFFFFFFFFFFFFFFFFFFFFFFFFFFFFFFFFFFFFF AND MUL OR SWAP1 SSTORE POP PUSH2 0x47AD DUP1 PUSH2 0x5F PUSH0 CODECOPY PUSH0 RETURN INVALID PUSH1 0x80 PUSH1 0x40 MSTORE PUSH1 0x4 CALLDATASIZE LT PUSH2 0xC1 JUMPI PUSH0 CALLDATALOAD PUSH1 0xE0 SHR DUP1 PUSH4 0x64DB84E6 GT PUSH2 0x7E JUMPI DUP1 PUSH4 0x8736381A GT PUSH2 0x58 JUMPI DUP1 PUSH4 0x8736381A EQ PUSH2 0x23D JUMPI DUP1 PUSH4 0xC6EDDA86 EQ PUSH2 0x267 JUMPI DUP1 PUSH4 0xE5511522 EQ PUSH2 0x2A3 JUMPI DUP1 PUSH4 0xFA2F8B6B EQ PUSH2 0x2DF JUMPI PUSH2 0xC1 JUMP JUMPDEST DUP1 PUSH4 0x64DB84E6 EQ PUSH2 0x1C5 JUMPI DUP1 PUSH4 0x6B932BD6 EQ PUSH2 0x1ED JUMPI DUP1 PUSH4 0x77B130AA EQ PUSH2 0x215 JUMPI PUSH2 0xC1 JUMP JUMPDEST DUP1 PUSH4 0x2068664 EQ PUSH2 0xC5 JUMPI DUP1 PUSH4 0x2672F526 EQ PUSH2 0xE1 JUMPI DUP1 PUSH4 0x302E693E EQ PUSH2 0x10B JUMPI DUP1 PUSH4 0x41FD4D2E EQ PUSH2 0x135 JUMPI DUP1 PUSH4 0x474DA79A EQ PUSH2 0x15D JUMPI DUP1 PUSH4 0x5129A6FD EQ PUSH2 0x19D JUMPI JUMPDEST PUSH0 DUP1 REVERT JUMPDEST PUSH2 0xDF PUSH1 0x4 DUP1 CALLDATASIZE SUB DUP2 ADD SWAP1 PUSH2 0xDA SWAP2 SWAP1 PUSH2 0x2A91 JUMP JUMPDEST PUSH2 0x307 JUMP JUMPDEST STOP JUMPDEST CALLVALUE DUP1 ISZERO PUSH2 0xEC JUMPI PUSH0 DUP1 REVERT JUMPDEST POP PUSH2 0xF5 PUSH2 0x8F7 JUMP JUMPDEST PUSH1 0x40 MLOAD PUSH2 0x102 SWAP2 SWAP1 PUSH2 0x2ADE JUMP JUMPDEST PUSH1 0x40 MLOAD DUP1 SWAP2 SUB SWAP1 RETURN JUMPDEST CALLVALUE DUP1 ISZERO PUSH2 0x116 JUMPI PUSH0 DUP1 REVERT JUMPDEST POP PUSH2 0x11F PUSH2 0x91A JUMP JUMPDEST PUSH1 0x40 MLOAD PUSH2 0x12C SWAP2 SWAP1 PUSH2 0x320B JUMP JUMPDEST PUSH1 0x40 MLOAD DUP1 SWAP2 SUB SWAP1 RETURN JUMPDEST CALLVALUE DUP1 ISZERO PUSH2 0x140 JUMPI PUSH0 DUP1 REVERT JUMPDEST POP PUSH2 0x15B PUSH1 0x4 DUP1 CALLDATASIZE SUB DUP2 ADD SWAP1 PUSH2 0x156 SWAP2 SWAP1 PUSH2 0x2A91 JUMP JUMPDEST PUSH2 0xE05 JUMP JUMPDEST STOP JUMPDEST CALLVALUE DUP1 ISZERO PUSH2 0x168 JUMPI PUSH0 DUP1 REVERT JUMPDEST POP PUSH2 0x183 PUSH1 0x4 DUP1 CALLDATASIZE SUB DUP2 ADD SWAP1 PUSH2 0x17E SWAP2 SWAP1 PUSH2 0x322B JUMP JUMPDEST PUSH2 0x1140 JUMP JUMPDEST PUSH1 0x40 MLOAD PUSH2 0x194 SWAP6 SWAP5 SWAP4 SWAP3 SWAP2 SWAP1 PUSH2 0x3283 JUMP JUMPDEST PUSH1 0x40 MLOAD DUP1 SWAP2 SUB SWAP1 RETURN JUMPDEST CALLVALUE DUP1 ISZERO PUSH2 0x1A8 JUMPI PUSH0 DUP1 REVERT JUMPDEST POP PUSH2 0x1C3 PUSH1 0x4 DUP1 CALLDATASIZE SUB DUP2 ADD SWAP1 PUSH2 0x1BE SWAP2 SWAP1 PUSH2 0x32D4 JUMP JUMPDEST PUSH2 0x11AA JUMP JUMPDEST STOP JUMPDEST CALLVALUE DUP1 ISZERO PUSH2 0x1D0 JUMPI PUSH0 DUP1 REVERT JUMPDEST POP PUSH2 0x1EB PUSH1 0x4 DUP1 CALLDATASIZE SUB DUP2 ADD SWAP1 PUSH2 0x1E6 SWAP2 SWAP1 PUSH2 0x333C JUMP JUMPDEST PUSH2 0x1526 JUMP JUMPDEST STOP JUMPDEST CALLVALUE DUP1 ISZERO PUSH2 0x1F8 JUMPI PUSH0 DUP1 REVERT JUMPDEST POP PUSH2 0x213 PUSH1 0x4 DUP1 CALLDATASIZE SUB DUP2 ADD SWAP1 PUSH2 0x20E SWAP2 SWAP1 PUSH2 0x34CC JUMP JUMPDEST PUSH2 0x1BDD JUMP JUMPDEST STOP JUMPDEST CALLVALUE DUP1 ISZERO PUSH2 0x220 JUMPI PUSH0 DUP1 REVERT JUMPDEST POP PUSH2 0x23B PUSH1 0x4 DUP1 CALLDATASIZE SUB DUP2 ADD SWAP1 PUSH2 0x236 SWAP2 SWAP1 PUSH2 0x3538 JUMP JUMPDEST PUSH2 0x1F05 JUMP JUMPDEST STOP JUMPDEST CALLVALUE DUP1 ISZERO PUSH2 0x248 JUMPI PUSH0 DUP1 REVERT JUMPDEST POP PUSH2 0x251 PUSH2 0x20EF JUMP JUMPDEST PUSH1 0x40 MLOAD PUSH2 0x25E SWAP2 SWAP1 PUSH2 0x3588 JUMP JUMPDEST PUSH1 0x40 MLOAD DUP1 SWAP2 SUB SWAP1 RETURN JUMPDEST CALLVALUE DUP1 ISZERO PUSH2 0x272 JUMPI PUSH0 DUP1 REVERT JUMPDEST POP PUSH2 0x28D PUSH1 0x4 DUP1 CALLDATASIZE SUB DUP2 ADD SWAP1 PUSH2 0x288 SWAP2 SWAP1 PUSH2 0x2A91 JUMP JUMPDEST PUSH2 0x20F5 JUMP JUMPDEST PUSH1 0x40 MLOAD PUSH2 0x29A SWAP2 SWAP1 PUSH2 0x3624 JUMP JUMPDEST PUSH1 0x40 MLOAD DUP1 SWAP2 SUB SWAP1 RETURN JUMPDEST CALLVALUE DUP1 ISZERO PUSH2 0x2AE JUMPI PUSH0 DUP1 REVERT JUMPDEST POP PUSH2 0x2C9 PUSH1 0x4 DUP1 CALLDATASIZE SUB DUP2 ADD SWAP1 PUSH2 0x2C4 SWAP2 SWAP1 PUSH2 0x322B JUMP JUMPDEST PUSH2 0x22E5 JUMP JUMPDEST PUSH1 0x40 MLOAD PUSH2 0x2D6 SWAP2 SWAP1 PUSH2 0x36B0 JUMP JUMPDEST PUSH1 0x40 MLOAD DUP1 SWAP2 SUB SWAP1 RETURN JUMPDEST CALLVALUE DUP1 ISZERO PUSH2 0x2EA JUMPI PUSH0 DUP1 REVERT JUMPDEST POP PUSH2 0x305 PUSH1 0x4 DUP1 CALLDATASIZE SUB DUP2 ADD SWAP1 PUSH2 0x300 SWAP2 SWAP1 PUSH2 0x385E JUMP JUMPDEST PUSH2 0x23C2 JUMP JUMPDEST STOP JUMPDEST DUP2 PUSH1 0x2 PUSH0 DUP3 DUP2 MSTORE PUSH1 0x20 ADD SWAP1 DUP2 MSTORE PUSH1 0x20 ADD PUSH0 KECCAK256 PUSH0 ADD PUSH0 SWAP1 SLOAD SWAP1 PUSH2 0x100 EXP SWAP1 DIV PUSH20 0xFFFFFFFFFFFFFFFFFFFFFFFFFFFFFFFFFFFFFFFF AND PUSH20 0xFFFFFFFFFFFFFFFFFFFFFFFFFFFFFFFFFFFFFFFF AND CALLER PUSH20 0xFFFFFFFFFFFFFFFFFFFFFFFFFFFFFFFFFFFFFFFF AND EQ PUSH2 0x3A8 JUMPI PUSH1 0x40 MLOAD PUSH32 0x8C379A000000000000000000000000000000000000000000000000000000000 DUP2 MSTORE PUSH1 0x4 ADD PUSH2 0x39F SWAP1 PUSH2 0x395E JUMP JUMPDEST PUSH1 0x40 MLOAD DUP1 SWAP2 SUB SWAP1 REVERT JUMPDEST PUSH0 PUSH1 0x2 PUSH0 DUP6 DUP2 MSTORE PUSH1 0x20 ADD SWAP1 DUP2 MSTORE PUSH1 0x20 ADD PUSH0 KECCAK256 SWAP1 POP PUSH0 PUSH2 0x3C7 DUP6 DUP6 PUSH2 0x2549 JUMP JUMPDEST SWAP1 POP DUP2 PUSH1 0x7 ADD DUP1 SLOAD SWAP1 POP DUP2 LT PUSH2 0x412 JUMPI PUSH1 0x40 MLOAD PUSH32 0x8C379A000000000000000000000000000000000000000000000000000000000 DUP2 MSTORE PUSH1 0x4 ADD PUSH2 0x409 SWAP1 PUSH2 0x39C6 JUMP JUMPDEST PUSH1 0x40 MLOAD DUP1 SWAP2 SUB SWAP1 REVERT JUMPDEST PUSH0 DUP3 PUSH1 0x7 ADD DUP3 DUP2 SLOAD DUP2 LT PUSH2 0x429 JUMPI PUSH2 0x428 PUSH2 0x39E4 JUMP JUMPDEST JUMPDEST SWAP1 PUSH0 MSTORE PUSH1 0x20 PUSH0 KECCAK256 SWAP1 PUSH1 0x3 MUL ADD PUSH1 0x1 ADD SLOAD SWAP1 POP PUSH0 DUP4 PUSH1 0x7 ADD DUP4 DUP2 SLOAD DUP2 LT PUSH2 0x452 JUMPI PUSH2 0x451 PUSH2 0x39E4 JUMP JUMPDEST JUMPDEST SWAP1 PUSH0 MSTORE PUSH1 0x20 PUSH0 KECCAK256 SWAP1 PUSH1 0x3 MUL ADD PUSH1 0x2 ADD SLOAD SWAP1 POP CALLVALUE DUP2 DUP4 PUSH2 0x471 SWAP2 SWAP1 PUSH2 0x3A3E JUMP JUMPDEST EQ PUSH2 0x4B1 JUMPI PUSH1 0x40 MLOAD PUSH32 0x8C379A000000000000000000000000000000000000000000000000000000000 DUP2 MSTORE PUSH1 0x4 ADD PUSH2 0x4A8 SWAP1 PUSH2 0x3AEF JUMP JUMPDEST PUSH1 0x40 MLOAD DUP1 SWAP2 SUB SWAP1 REVERT JUMPDEST DUP6 PUSH20 0xFFFFFFFFFFFFFFFFFFFFFFFFFFFFFFFFFFFFFFFF AND DUP5 PUSH1 0x7 ADD DUP5 DUP2 SLOAD DUP2 LT PUSH2 0x4DE JUMPI PUSH2 0x4DD PUSH2 0x39E4 JUMP JUMPDEST JUMPDEST SWAP1 PUSH0 MSTORE PUSH1 0x20 PUSH0 KECCAK256 SWAP1 PUSH1 0x3 MUL ADD PUSH0 ADD PUSH0 SWAP1 SLOAD SWAP1 PUSH2 0x100 EXP SWAP1 DIV PUSH20 0xFFFFFFFFFFFFFFFFFFFFFFFFFFFFFFFFFFFFFFFF AND PUSH20 0xFFFFFFFFFFFFFFFFFFFFFFFFFFFFFFFFFFFFFFFF AND EQ PUSH2 0x562 JUMPI PUSH1 0x40 MLOAD PUSH32 0x8C379A000000000000000000000000000000000000000000000000000000000 DUP2 MSTORE PUSH1 0x4 ADD PUSH2 0x559 SWAP1 PUSH2 0x3B57 JUMP JUMPDEST PUSH1 0x40 MLOAD DUP1 SWAP2 SUB SWAP1 REVERT JUMPDEST PUSH1 0x1 ISZERO ISZERO DUP5 PUSH1 0x6 ADD PUSH1 0x1 SWAP1 SLOAD SWAP1 PUSH2 0x100 EXP SWAP1 DIV PUSH1 0xFF AND ISZERO ISZERO EQ DUP1 ISZERO PUSH2 0x5BA JUMPI POP PUSH0 PUSH1 0x3 DUP2 GT ISZERO PUSH2 0x595 JUMPI PUSH2 0x594 PUSH2 0x2C0F JUMP JUMPDEST JUMPDEST DUP5 PUSH1 0x6 ADD PUSH0 SWAP1 SLOAD SWAP1 PUSH2 0x100 EXP SWAP1 DIV PUSH1 0xFF AND PUSH1 0x3 DUP2 GT ISZERO PUSH2 0x5B8 JUMPI PUSH2 0x5B7 PUSH2 0x2C0F JUMP JUMPDEST JUMPDEST EQ JUMPDEST PUSH2 0x5F9 JUMPI PUSH1 0x40 MLOAD PUSH32 0x8C379A000000000000000000000000000000000000000000000000000000000 DUP2 MSTORE PUSH1 0x4 ADD PUSH2 0x5F0 SWAP1 PUSH2 0x3BE5 JUMP JUMPDEST PUSH1 0x40 MLOAD DUP1 SWAP2 SUB SWAP1 REVERT JUMPDEST PUSH0 DUP2 DUP6 PUSH1 0x4 ADD SLOAD PUSH2 0x60A SWAP2 SWAP1 PUSH2 0x3C03 JUMP JUMPDEST LT ISZERO PUSH2 0x64B JUMPI PUSH1 0x40 MLOAD PUSH32 0x8C379A000000000000000000000000000000000000000000000000000000000 DUP2 MSTORE PUSH1 0x4 ADD PUSH2 0x642 SWAP1 PUSH2 0x3C80 JUMP JUMPDEST PUSH1 0x40 MLOAD DUP1 SWAP2 SUB SWAP1 REVERT JUMPDEST DUP4 PUSH1 0x1 ADD PUSH1 0x40 MLOAD DUP1 PUSH1 0xA0 ADD PUSH1 0x40 MSTORE DUP1 CALLER PUSH20 0xFFFFFFFFFFFFFFFFFFFFFFFFFFFFFFFFFFFFFFFF AND DUP2 MSTORE PUSH1 0x20 ADD DUP4 DUP8 PUSH1 0x5 ADD SLOAD PUSH2 0x686 SWAP2 SWAP1 PUSH2 0x3A3E JUMP JUMPDEST DUP2 MSTORE PUSH1 0x20 ADD DUP4 DUP2 MSTORE PUSH1 0x20 ADD PUSH0 PUSH8 0xFFFFFFFFFFFFFFFF DUP2 GT ISZERO PUSH2 0x6AB JUMPI PUSH2 0x6AA PUSH2 0x3390 JUMP JUMPDEST JUMPDEST PUSH1 0x40 MLOAD SWAP1 DUP1 DUP3 MSTORE DUP1 PUSH1 0x20 MUL PUSH1 0x20 ADD DUP3 ADD PUSH1 0x40 MSTORE DUP1 ISZERO PUSH2 0x6D9 JUMPI DUP2 PUSH1 0x20 ADD PUSH1 0x20 DUP3 MUL DUP1 CALLDATASIZE DUP4 CALLDATACOPY DUP1 DUP3 ADD SWAP2 POP POP SWAP1 POP JUMPDEST POP DUP2 MSTORE PUSH1 0x20 ADD PUSH0 PUSH1 0x3 DUP2 GT ISZERO PUSH2 0x6F2 JUMPI PUSH2 0x6F1 PUSH2 0x2C0F JUMP JUMPDEST JUMPDEST DUP2 MSTORE POP SWAP1 DUP1 PUSH1 0x1 DUP2 SLOAD ADD DUP1 DUP3 SSTORE DUP1 SWAP2 POP POP PUSH1 0x1 SWAP1 SUB SWAP1 PUSH0 MSTORE PUSH1 0x20 PUSH0 KECCAK256 SWAP1 PUSH1 0x5 MUL ADD PUSH0 SWAP1 SWAP2 SWAP1 SWAP2 SWAP1 SWAP2 POP PUSH0 DUP3 ADD MLOAD DUP2 PUSH0 ADD PUSH0 PUSH2 0x100 EXP DUP2 SLOAD DUP2 PUSH20 0xFFFFFFFFFFFFFFFFFFFFFFFFFFFFFFFFFFFFFFFF MUL NOT AND SWAP1 DUP4 PUSH20 0xFFFFFFFFFFFFFFFFFFFFFFFFFFFFFFFFFFFFFFFF AND MUL OR SWAP1 SSTORE POP PUSH1 0x20 DUP3 ADD MLOAD DUP2 PUSH1 0x1 ADD SSTORE PUSH1 0x40 DUP3 ADD MLOAD DUP2 PUSH1 0x2 ADD SSTORE PUSH1 0x60 DUP3 ADD MLOAD DUP2 PUSH1 0x3 ADD SWAP1 DUP1 MLOAD SWAP1 PUSH1 0x20 ADD SWAP1 PUSH2 0x78F SWAP3 SWAP2 SWAP1 PUSH2 0x2815 JUMP JUMPDEST POP PUSH1 0x80 DUP3 ADD MLOAD DUP2 PUSH1 0x4 ADD PUSH0 PUSH2 0x100 EXP DUP2 SLOAD DUP2 PUSH1 0xFF MUL NOT AND SWAP1 DUP4 PUSH1 0x3 DUP2 GT ISZERO PUSH2 0x7BA JUMPI PUSH2 0x7B9 PUSH2 0x2C0F JUMP JUMPDEST JUMPDEST MUL OR SWAP1 SSTORE POP POP POP DUP4 PUSH1 0x7 ADD DUP4 DUP2 SLOAD DUP2 LT PUSH2 0x7D7 JUMPI PUSH2 0x7D6 PUSH2 0x39E4 JUMP JUMPDEST JUMPDEST SWAP1 PUSH0 MSTORE PUSH1 0x20 PUSH0 KECCAK256 SWAP1 PUSH1 0x3 MUL ADD PUSH0 DUP1 DUP3 ADD PUSH0 PUSH2 0x100 EXP DUP2 SLOAD SWAP1 PUSH20 0xFFFFFFFFFFFFFFFFFFFFFFFFFFFFFFFFFFFFFFFF MUL NOT AND SWAP1 SSTORE PUSH1 0x1 DUP3 ADD PUSH0 SWAP1 SSTORE PUSH1 0x2 DUP3 ADD PUSH0 SWAP1 SSTORE POP POP DUP1 DUP5 PUSH1 0x4 ADD PUSH0 DUP3 DUP3 SLOAD PUSH2 0x82C SWAP2 SWAP1 PUSH2 0x3C03 JUMP JUMPDEST SWAP3 POP POP DUP2 SWAP1 SSTORE POP PUSH32 0x19439D2F13B8E31A345C68E37F0C812831A8A55918A850B8B0D16ED1D0870E9E DUP8 DUP8 DUP5 DUP5 PUSH1 0x40 MLOAD PUSH2 0x868 SWAP5 SWAP4 SWAP3 SWAP2 SWAP1 PUSH2 0x3C9E JUMP JUMPDEST PUSH1 0x40 MLOAD DUP1 SWAP2 SUB SWAP1 LOG1 PUSH0 DUP5 PUSH1 0x4 ADD SLOAD SUB PUSH2 0x8EE JUMPI PUSH1 0x1 DUP5 PUSH1 0x6 ADD PUSH0 PUSH2 0x100 EXP DUP2 SLOAD DUP2 PUSH1 0xFF MUL NOT AND SWAP1 DUP4 PUSH1 0x3 DUP2 GT ISZERO PUSH2 0x8A2 JUMPI PUSH2 0x8A1 PUSH2 0x2C0F JUMP JUMPDEST JUMPDEST MUL OR SWAP1 SSTORE POP DUP4 PUSH1 0x7 ADD PUSH0 PUSH2 0x8B6 SWAP2 SWAP1 PUSH2 0x2860 JUMP JUMPDEST PUSH32 0x318A250F8C30F2D9FEF18CB7F019F4DFFE3F45DB4E76F8FBE408BAE19E5304CD DUP8 PUSH1 0x40 MLOAD PUSH2 0x8E5 SWAP2 SWAP1 PUSH2 0x3588 JUMP JUMPDEST PUSH1 0x40 MLOAD DUP1 SWAP2 SUB SWAP1 LOG1 JUMPDEST POP POP POP POP POP POP POP JUMP JUMPDEST PUSH0 DUP1 SLOAD SWAP1 PUSH2 0x100 EXP SWAP1 DIV PUSH20 0xFFFFFFFFFFFFFFFFFFFFFFFFFFFFFFFFFFFFFFFF AND DUP2 JUMP JUMPDEST PUSH1 0x60 PUSH0 PUSH1 0x1 SLOAD PUSH8 0xFFFFFFFFFFFFFFFF DUP2 GT ISZERO PUSH2 0x939 JUMPI PUSH2 0x938 PUSH2 0x3390 JUMP JUMPDEST JUMPDEST PUSH1 0x40 MLOAD SWAP1 DUP1 DUP3 MSTORE DUP1 PUSH1 0x20 MUL PUSH1 0x20 ADD DUP3 ADD PUSH1 0x40 MSTORE DUP1 ISZERO PUSH2 0x972 JUMPI DUP2 PUSH1 0x20 ADD JUMPDEST PUSH2 0x95F PUSH2 0x2881 JUMP JUMPDEST DUP2 MSTORE PUSH1 0x20 ADD SWAP1 PUSH1 0x1 SWAP1 SUB SWAP1 DUP2 PUSH2 0x957 JUMPI SWAP1 POP JUMPDEST POP SWAP1 POP PUSH0 JUMPDEST PUSH1 0x1 SLOAD DUP2 LT ISZERO PUSH2 0xDFD JUMPI PUSH1 0x2 PUSH0 DUP3 DUP2 MSTORE PUSH1 0x20 ADD SWAP1 DUP2 MSTORE PUSH1 0x20 ADD PUSH0 KECCAK256 PUSH1 0x40 MLOAD DUP1 PUSH2 0x120 ADD PUSH1 0x40 MSTORE SWAP1 DUP2 PUSH0 DUP3 ADD PUSH0 SWAP1 SLOAD SWAP1 PUSH2 0x100 EXP SWAP1 DIV PUSH20 0xFFFFFFFFFFFFFFFFFFFFFFFFFFFFFFFFFFFFFFFF AND PUSH20 0xFFFFFFFFFFFFFFFFFFFFFFFFFFFFFFFFFFFFFFFF AND PUSH20 0xFFFFFFFFFFFFFFFFFFFFFFFFFFFFFFFFFFFFFFFF AND DUP2 MSTORE PUSH1 0x20 ADD PUSH1 0x1 DUP3 ADD DUP1 SLOAD DUP1 PUSH1 0x20 MUL PUSH1 0x20 ADD PUSH1 0x40 MLOAD SWAP1 DUP2 ADD PUSH1 0x40 MSTORE DUP1 SWAP3 SWAP2 SWAP1 DUP2 DUP2 MSTORE PUSH1 0x20 ADD PUSH0 SWAP1 JUMPDEST DUP3 DUP3 LT ISZERO PUSH2 0xB3E JUMPI DUP4 DUP3 SWAP1 PUSH0 MSTORE PUSH1 0x20 PUSH0 KECCAK256 SWAP1 PUSH1 0x5 MUL ADD PUSH1 0x40 MLOAD DUP1 PUSH1 0xA0 ADD PUSH1 0x40 MSTORE SWAP1 DUP2 PUSH0 DUP3 ADD PUSH0 SWAP1 SLOAD SWAP1 PUSH2 0x100 EXP SWAP1 DIV PUSH20 0xFFFFFFFFFFFFFFFFFFFFFFFFFFFFFFFFFFFFFFFF AND PUSH20 0xFFFFFFFFFFFFFFFFFFFFFFFFFFFFFFFFFFFFFFFF AND PUSH20 0xFFFFFFFFFFFFFFFFFFFFFFFFFFFFFFFFFFFFFFFF AND DUP2 MSTORE PUSH1 0x20 ADD PUSH1 0x1 DUP3 ADD SLOAD DUP2 MSTORE PUSH1 0x20 ADD PUSH1 0x2 DUP3 ADD SLOAD DUP2 MSTORE PUSH1 0x20 ADD PUSH1 0x3 DUP3 ADD DUP1 SLOAD DUP1 PUSH1 0x20 MUL PUSH1 0x20 ADD PUSH1 0x40 MLOAD SWAP1 DUP2 ADD PUSH1 0x40 MSTORE DUP1 SWAP3 SWAP2 SWAP1 DUP2 DUP2 MSTORE PUSH1 0x20 ADD DUP3 DUP1 SLOAD DUP1 ISZERO PUSH2 0xAEC JUMPI PUSH1 0x20 MUL DUP3 ADD SWAP2 SWAP1 PUSH0 MSTORE PUSH1 0x20 PUSH0 KECCAK256 SWAP1 JUMPDEST DUP2 SLOAD DUP2 MSTORE PUSH1 0x20 ADD SWAP1 PUSH1 0x1 ADD SWAP1 DUP1 DUP4 GT PUSH2 0xAD8 JUMPI JUMPDEST POP POP POP POP POP DUP2 MSTORE PUSH1 0x20 ADD PUSH1 0x4 DUP3 ADD PUSH0 SWAP1 SLOAD SWAP1 PUSH2 0x100 EXP SWAP1 DIV PUSH1 0xFF AND PUSH1 0x3 DUP2 GT ISZERO PUSH2 0xB19 JUMPI PUSH2 0xB18 PUSH2 0x2C0F JUMP JUMPDEST JUMPDEST PUSH1 0x3 DUP2 GT ISZERO PUSH2 0xB2B JUMPI PUSH2 0xB2A PUSH2 0x2C0F JUMP JUMPDEST JUMPDEST DUP2 MSTORE POP POP DUP2 MSTORE PUSH1 0x20 ADD SWAP1 PUSH1 0x1 ADD SWAP1 PUSH2 0xA16 JUMP JUMPDEST POP POP POP POP DUP2 MSTORE PUSH1 0x20 ADD PUSH1 0x2 DUP3 ADD DUP1 SLOAD DUP1 PUSH1 0x20 MUL PUSH1 0x20 ADD PUSH1 0x40 MLOAD SWAP1 DUP2 ADD PUSH1 0x40 MSTORE DUP1 SWAP3 SWAP2 SWAP1 DUP2 DUP2 MSTORE PUSH1 0x20 ADD DUP3 DUP1 SLOAD DUP1 ISZERO PUSH2 0xBC8 JUMPI PUSH1 0x20 MUL DUP3 ADD SWAP2 SWAP1 PUSH0 MSTORE PUSH1 0x20 PUSH0 KECCAK256 SWAP1 JUMPDEST DUP2 PUSH0 SWAP1 SLOAD SWAP1 PUSH2 0x100 EXP SWAP1 DIV PUSH20 0xFFFFFFFFFFFFFFFFFFFFFFFFFFFFFFFFFFFFFFFF AND PUSH20 0xFFFFFFFFFFFFFFFFFFFFFFFFFFFFFFFFFFFFFFFF AND DUP2 MSTORE PUSH1 0x20 ADD SWAP1 PUSH1 0x1 ADD SWAP1 DUP1 DUP4 GT PUSH2 0xB7F JUMPI JUMPDEST POP POP POP POP POP DUP2 MSTORE PUSH1 0x20 ADD PUSH1 0x3 DUP3 ADD DUP1 SLOAD DUP1 PUSH1 0x20 MUL PUSH1 0x20 ADD PUSH1 0x40 MLOAD SWAP1 DUP2 ADD PUSH1 0x40 MSTORE DUP1 SWAP3 SWAP2 SWAP1 DUP2 DUP2 MSTORE PUSH1 0x20 ADD PUSH0 SWAP1 JUMPDEST DUP3 DUP3 LT ISZERO PUSH2 0xC9D JUMPI DUP4 DUP3 SWAP1 PUSH0 MSTORE PUSH1 0x20 PUSH0 KECCAK256 ADD DUP1 SLOAD PUSH2 0xC12 SWAP1 PUSH2 0x3D0E JUMP JUMPDEST DUP1 PUSH1 0x1F ADD PUSH1 0x20 DUP1 SWAP2 DIV MUL PUSH1 0x20 ADD PUSH1 0x40 MLOAD SWAP1 DUP2 ADD PUSH1 0x40 MSTORE DUP1 SWAP3 SWAP2 SWAP1 DUP2 DUP2 MSTORE PUSH1 0x20 ADD DUP3 DUP1 SLOAD PUSH2 0xC3E SWAP1 PUSH2 0x3D0E JUMP JUMPDEST DUP1 ISZERO PUSH2 0xC89 JUMPI DUP1 PUSH1 0x1F LT PUSH2 0xC60 JUMPI PUSH2 0x100 DUP1 DUP4 SLOAD DIV MUL DUP4 MSTORE SWAP2 PUSH1 0x20 ADD SWAP2 PUSH2 0xC89 JUMP JUMPDEST DUP3 ADD SWAP2 SWAP1 PUSH0 MSTORE PUSH1 0x20 PUSH0 KECCAK256 SWAP1 JUMPDEST DUP2 SLOAD DUP2 MSTORE SWAP1 PUSH1 0x1 ADD SWAP1 PUSH1 0x20 ADD DUP1 DUP4 GT PUSH2 0xC6C JUMPI DUP3 SWAP1 SUB PUSH1 0x1F AND DUP3 ADD SWAP2 JUMPDEST POP POP POP POP POP DUP2 MSTORE PUSH1 0x20 ADD SWAP1 PUSH1 0x1 ADD SWAP1 PUSH2 0xBF5 JUMP JUMPDEST POP POP POP POP DUP2 MSTORE PUSH1 0x20 ADD PUSH1 0x4 DUP3 ADD SLOAD DUP2 MSTORE PUSH1 0x20 ADD PUSH1 0x5 DUP3 ADD SLOAD DUP2 MSTORE PUSH1 0x20 ADD PUSH1 0x6 DUP3 ADD PUSH0 SWAP1 SLOAD SWAP1 PUSH2 0x100 EXP SWAP1 DIV PUSH1 0xFF AND PUSH1 0x3 DUP2 GT ISZERO PUSH2 0xCDD JUMPI PUSH2 0xCDC PUSH2 0x2C0F JUMP JUMPDEST JUMPDEST PUSH1 0x3 DUP2 GT ISZERO PUSH2 0xCEF JUMPI PUSH2 0xCEE PUSH2 0x2C0F JUMP JUMPDEST JUMPDEST DUP2 MSTORE PUSH1 0x20 ADD PUSH1 0x6 DUP3 ADD PUSH1 0x1 SWAP1 SLOAD SWAP1 PUSH2 0x100 EXP SWAP1 DIV PUSH1 0xFF AND ISZERO ISZERO ISZERO ISZERO DUP2 MSTORE PUSH1 0x20 ADD PUSH1 0x7 DUP3 ADD DUP1 SLOAD DUP1 PUSH1 0x20 MUL PUSH1 0x20 ADD PUSH1 0x40 MLOAD SWAP1 DUP2 ADD PUSH1 0x40 MSTORE DUP1 SWAP3 SWAP2 SWAP1 DUP2 DUP2 MSTORE PUSH1 0x20 ADD PUSH0 SWAP1 JUMPDEST DUP3 DUP3 LT ISZERO PUSH2 0xDCA JUMPI DUP4 DUP3 SWAP1 PUSH0 MSTORE PUSH1 0x20 PUSH0 KECCAK256 SWAP1 PUSH1 0x3 MUL ADD PUSH1 0x40 MLOAD DUP1 PUSH1 0x60 ADD PUSH1 0x40 MSTORE SWAP1 DUP2 PUSH0 DUP3 ADD PUSH0 SWAP1 SLOAD SWAP1 PUSH2 0x100 EXP SWAP1 DIV PUSH20 0xFFFFFFFFFFFFFFFFFFFFFFFFFFFFFFFFFFFFFFFF AND PUSH20 0xFFFFFFFFFFFFFFFFFFFFFFFFFFFFFFFFFFFFFFFF AND PUSH20 0xFFFFFFFFFFFFFFFFFFFFFFFFFFFFFFFFFFFFFFFF AND DUP2 MSTORE PUSH1 0x20 ADD PUSH1 0x1 DUP3 ADD SLOAD DUP2 MSTORE PUSH1 0x20 ADD PUSH1 0x2 DUP3 ADD SLOAD DUP2 MSTORE POP POP DUP2 MSTORE PUSH1 0x20 ADD SWAP1 PUSH1 0x1 ADD SWAP1 PUSH2 0xD32 JUMP JUMPDEST POP POP POP POP DUP2 MSTORE POP POP DUP3 DUP3 DUP2 MLOAD DUP2 LT PUSH2 0xDE5 JUMPI PUSH2 0xDE4 PUSH2 0x39E4 JUMP JUMPDEST JUMPDEST PUSH1 0x20 MUL PUSH1 0x20 ADD ADD DUP2 SWAP1 MSTORE POP DUP1 DUP1 PUSH1 0x1 ADD SWAP2 POP POP PUSH2 0x977 JUMP JUMPDEST POP DUP1 SWAP2 POP POP SWAP1 JUMP JUMPDEST DUP2 PUSH1 0x2 PUSH0 DUP3 DUP2 MSTORE PUSH1 0x20 ADD SWAP1 DUP2 MSTORE PUSH1 0x20 ADD PUSH0 KECCAK256 PUSH0 ADD PUSH0 SWAP1 SLOAD SWAP1 PUSH2 0x100 EXP SWAP1 DIV PUSH20 0xFFFFFFFFFFFFFFFFFFFFFFFFFFFFFFFFFFFFFFFF AND PUSH20 0xFFFFFFFFFFFFFFFFFFFFFFFFFFFFFFFFFFFFFFFF AND CALLER PUSH20 0xFFFFFFFFFFFFFFFFFFFFFFFFFFFFFFFFFFFFFFFF AND EQ PUSH2 0xEA6 JUMPI PUSH1 0x40 MLOAD PUSH32 0x8C379A000000000000000000000000000000000000000000000000000000000 DUP2 MSTORE PUSH1 0x4 ADD PUSH2 0xE9D SWAP1 PUSH2 0x395E JUMP JUMPDEST PUSH1 0x40 MLOAD DUP1 SWAP2 SUB SWAP1 REVERT JUMPDEST PUSH0 PUSH1 0x2 PUSH0 DUP6 DUP2 MSTORE PUSH1 0x20 ADD SWAP1 DUP2 MSTORE PUSH1 0x20 ADD PUSH0 KECCAK256 SWAP1 POP PUSH0 PUSH2 0xEC5 DUP6 DUP6 PUSH2 0x260E JUMP JUMPDEST SWAP1 POP DUP2 PUSH1 0x1 ADD DUP1 SLOAD SWAP1 POP DUP2 LT PUSH2 0xF10 JUMPI PUSH1 0x40 MLOAD PUSH32 0x8C379A000000000000000000000000000000000000000000000000000000000 DUP2 MSTORE PUSH1 0x4 ADD PUSH2 0xF07 SWAP1 PUSH2 0x3D88 JUMP JUMPDEST PUSH1 0x40 MLOAD DUP1 SWAP2 SUB SWAP1 REVERT JUMPDEST PUSH0 PUSH1 0x3 DUP2 GT ISZERO PUSH2 0xF23 JUMPI PUSH2 0xF22 PUSH2 0x2C0F JUMP JUMPDEST JUMPDEST DUP3 PUSH1 0x1 ADD DUP3 DUP2 SLOAD DUP2 LT PUSH2 0xF39 JUMPI PUSH2 0xF38 PUSH2 0x39E4 JUMP JUMPDEST JUMPDEST SWAP1 PUSH0 MSTORE PUSH1 0x20 PUSH0 KECCAK256 SWAP1 PUSH1 0x5 MUL ADD PUSH1 0x4 ADD PUSH0 SWAP1 SLOAD SWAP1 PUSH2 0x100 EXP SWAP1 DIV PUSH1 0xFF AND PUSH1 0x3 DUP2 GT ISZERO PUSH2 0xF67 JUMPI PUSH2 0xF66 PUSH2 0x2C0F JUMP JUMPDEST JUMPDEST EQ PUSH2 0xFA7 JUMPI PUSH1 0x40 MLOAD PUSH32 0x8C379A000000000000000000000000000000000000000000000000000000000 DUP2 MSTORE PUSH1 0x4 ADD PUSH2 0xF9E SWAP1 PUSH2 0x3E16 JUMP JUMPDEST PUSH1 0x40 MLOAD DUP1 SWAP2 SUB SWAP1 REVERT JUMPDEST PUSH1 0x2 DUP3 PUSH1 0x1 ADD DUP3 DUP2 SLOAD DUP2 LT PUSH2 0xFBF JUMPI PUSH2 0xFBE PUSH2 0x39E4 JUMP JUMPDEST JUMPDEST SWAP1 PUSH0 MSTORE PUSH1 0x20 PUSH0 KECCAK256 SWAP1 PUSH1 0x5 MUL ADD PUSH1 0x4 ADD PUSH0 PUSH2 0x100 EXP DUP2 SLOAD DUP2 PUSH1 0xFF MUL NOT AND SWAP1 DUP4 PUSH1 0x3 DUP2 GT ISZERO PUSH2 0xFEF JUMPI PUSH2 0xFEE PUSH2 0x2C0F JUMP JUMPDEST JUMPDEST MUL OR SWAP1 SSTORE POP PUSH2 0xFFD DUP6 PUSH2 0x26D3 JUMP JUMPDEST PUSH0 DUP3 PUSH1 0x1 ADD DUP3 DUP2 SLOAD DUP2 LT PUSH2 0x1014 JUMPI PUSH2 0x1013 PUSH2 0x39E4 JUMP JUMPDEST JUMPDEST SWAP1 PUSH0 MSTORE PUSH1 0x20 PUSH0 KECCAK256 SWAP1 PUSH1 0x5 MUL ADD PUSH1 0x2 ADD SLOAD DUP4 PUSH1 0x1 ADD DUP4 DUP2 SLOAD DUP2 LT PUSH2 0x103A JUMPI PUSH2 0x1039 PUSH2 0x39E4 JUMP JUMPDEST JUMPDEST SWAP1 PUSH0 MSTORE PUSH1 0x20 PUSH0 KECCAK256 SWAP1 PUSH1 0x5 MUL ADD PUSH1 0x1 ADD SLOAD PUSH2 0x1054 SWAP2 SWAP1 PUSH2 0x3A3E JUMP JUMPDEST SWAP1 POP PUSH0 DUP6 PUSH20 0xFFFFFFFFFFFFFFFFFFFFFFFFFFFFFFFFFFFFFFFF AND DUP3 PUSH1 0x40 MLOAD PUSH2 0x107B SWAP1 PUSH2 0x3E61 JUMP JUMPDEST PUSH0 PUSH1 0x40 MLOAD DUP1 DUP4 SUB DUP2 DUP6 DUP8 GAS CALL SWAP3 POP POP POP RETURNDATASIZE DUP1 PUSH0 DUP2 EQ PUSH2 0x10B5 JUMPI PUSH1 0x40 MLOAD SWAP2 POP PUSH1 0x1F NOT PUSH1 0x3F RETURNDATASIZE ADD AND DUP3 ADD PUSH1 0x40 MSTORE RETURNDATASIZE DUP3 MSTORE RETURNDATASIZE PUSH0 PUSH1 0x20 DUP5 ADD RETURNDATACOPY PUSH2 0x10BA JUMP JUMPDEST PUSH1 0x60 SWAP2 POP JUMPDEST POP POP SWAP1 POP DUP1 PUSH2 0x10FE JUMPI PUSH1 0x40 MLOAD PUSH32 0x8C379A000000000000000000000000000000000000000000000000000000000 DUP2 MSTORE PUSH1 0x4 ADD PUSH2 0x10F5 SWAP1 PUSH2 0x3EBF JUMP JUMPDEST PUSH1 0x40 MLOAD DUP1 SWAP2 SUB SWAP1 REVERT JUMPDEST PUSH32 0x94BFE4304C4A019A643DB1361C608E44B3B0809910DDCCF2C432F88B751DCE9B DUP8 DUP8 PUSH1 0x40 MLOAD PUSH2 0x112F SWAP3 SWAP2 SWAP1 PUSH2 0x3EDD JUMP JUMPDEST PUSH1 0x40 MLOAD DUP1 SWAP2 SUB SWAP1 LOG1 POP POP POP POP POP POP POP JUMP JUMPDEST PUSH1 0x2 PUSH1 0x20 MSTORE DUP1 PUSH0 MSTORE PUSH1 0x40 PUSH0 KECCAK256 PUSH0 SWAP2 POP SWAP1 POP DUP1 PUSH0 ADD PUSH0 SWAP1 SLOAD SWAP1 PUSH2 0x100 EXP SWAP1 DIV PUSH20 0xFFFFFFFFFFFFFFFFFFFFFFFFFFFFFFFFFFFFFFFF AND SWAP1 DUP1 PUSH1 0x4 ADD SLOAD SWAP1 DUP1 PUSH1 0x5 ADD SLOAD SWAP1 DUP1 PUSH1 0x6 ADD PUSH0 SWAP1 SLOAD SWAP1 PUSH2 0x100 EXP SWAP1 DIV PUSH1 0xFF AND SWAP1 DUP1 PUSH1 0x6 ADD PUSH1 0x1 SWAP1 SLOAD SWAP1 PUSH2 0x100 EXP SWAP1 DIV PUSH1 0xFF AND SWAP1 POP DUP6 JUMP JUMPDEST PUSH0 PUSH1 0x2 PUSH0 DUP5 DUP2 MSTORE PUSH1 0x20 ADD SWAP1 DUP2 MSTORE PUSH1 0x20 ADD PUSH0 KECCAK256 SWAP1 POP PUSH0 PUSH1 0x3 DUP2 GT ISZERO PUSH2 0x11D1 JUMPI PUSH2 0x11D0 PUSH2 0x2C0F JUMP JUMPDEST JUMPDEST DUP2 PUSH1 0x6 ADD PUSH0 SWAP1 SLOAD SWAP1 PUSH2 0x100 EXP SWAP1 DIV PUSH1 0xFF AND PUSH1 0x3 DUP2 GT ISZERO PUSH2 0x11F4 JUMPI PUSH2 0x11F3 PUSH2 0x2C0F JUMP JUMPDEST JUMPDEST EQ PUSH2 0x1234 JUMPI PUSH1 0x40 MLOAD PUSH32 0x8C379A000000000000000000000000000000000000000000000000000000000 DUP2 MSTORE PUSH1 0x4 ADD PUSH2 0x122B SWAP1 PUSH2 0x3F74 JUMP JUMPDEST PUSH1 0x40 MLOAD DUP1 SWAP2 SUB SWAP1 REVERT JUMPDEST PUSH0 ISZERO ISZERO DUP2 PUSH1 0x6 ADD PUSH1 0x1 SWAP1 SLOAD SWAP1 PUSH2 0x100 EXP SWAP1 DIV PUSH1 0xFF AND ISZERO ISZERO EQ PUSH2 0x128B JUMPI PUSH1 0x40 MLOAD PUSH32 0x8C379A000000000000000000000000000000000000000000000000000000000 DUP2 MSTORE PUSH1 0x4 ADD PUSH2 0x1282 SWAP1 PUSH2 0x4002 JUMP JUMPDEST PUSH1 0x40 MLOAD DUP1 SWAP2 SUB SWAP1 REVERT JUMPDEST DUP2 DUP2 PUSH1 0x4 ADD SLOAD LT ISZERO PUSH2 0x12D2 JUMPI PUSH1 0x40 MLOAD PUSH32 0x8C379A000000000000000000000000000000000000000000000000000000000 DUP2 MSTORE PUSH1 0x4 ADD PUSH2 0x12C9 SWAP1 PUSH2 0x4090 JUMP JUMPDEST PUSH1 0x40 MLOAD DUP1 SWAP2 SUB SWAP1 REVERT JUMPDEST DUP1 PUSH1 0x1 ADD PUSH1 0x40 MLOAD DUP1 PUSH1 0xA0 ADD PUSH1 0x40 MSTORE DUP1 CALLER PUSH20 0xFFFFFFFFFFFFFFFFFFFFFFFFFFFFFFFFFFFFFFFF AND DUP2 MSTORE PUSH1 0x20 ADD DUP5 DUP5 PUSH1 0x5 ADD SLOAD PUSH2 0x130D SWAP2 SWAP1 PUSH2 0x3A3E JUMP JUMPDEST DUP2 MSTORE PUSH1 0x20 ADD DUP5 DUP2 MSTORE PUSH1 0x20 ADD PUSH0 PUSH8 0xFFFFFFFFFFFFFFFF DUP2 GT ISZERO PUSH2 0x1332 JUMPI PUSH2 0x1331 PUSH2 0x3390 JUMP JUMPDEST JUMPDEST PUSH1 0x40 MLOAD SWAP1 DUP1 DUP3 MSTORE DUP1 PUSH1 0x20 MUL PUSH1 0x20 ADD DUP3 ADD PUSH1 0x40 MSTORE DUP1 ISZERO PUSH2 0x1360 JUMPI DUP2 PUSH1 0x20 ADD PUSH1 0x20 DUP3 MUL DUP1 CALLDATASIZE DUP4 CALLDATACOPY DUP1 DUP3 ADD SWAP2 POP POP SWAP1 POP JUMPDEST POP DUP2 MSTORE PUSH1 0x20 ADD PUSH0 PUSH1 0x3 DUP2 GT ISZERO PUSH2 0x1379 JUMPI PUSH2 0x1378 PUSH2 0x2C0F JUMP JUMPDEST JUMPDEST DUP2 MSTORE POP SWAP1 DUP1 PUSH1 0x1 DUP2 SLOAD ADD DUP1 DUP3 SSTORE DUP1 SWAP2 POP POP PUSH1 0x1 SWAP1 SUB SWAP1 PUSH0 MSTORE PUSH1 0x20 PUSH0 KECCAK256 SWAP1 PUSH1 0x5 MUL ADD PUSH0 SWAP1 SWAP2 SWAP1 SWAP2 SWAP1 SWAP2 POP PUSH0 DUP3 ADD MLOAD DUP2 PUSH0 ADD PUSH0 PUSH2 0x100 EXP DUP2 SLOAD DUP2 PUSH20 0xFFFFFFFFFFFFFFFFFFFFFFFFFFFFFFFFFFFFFFFF MUL NOT AND SWAP1 DUP4 PUSH20 0xFFFFFFFFFFFFFFFFFFFFFFFFFFFFFFFFFFFFFFFF AND MUL OR SWAP1 SSTORE POP PUSH1 0x20 DUP3 ADD MLOAD DUP2 PUSH1 0x1 ADD SSTORE PUSH1 0x40 DUP3 ADD MLOAD DUP2 PUSH1 0x2 ADD SSTORE PUSH1 0x60 DUP3 ADD MLOAD DUP2 PUSH1 0x3 ADD SWAP1 DUP1 MLOAD SWAP1 PUSH1 0x20 ADD SWAP1 PUSH2 0x1416 SWAP3 SWAP2 SWAP1 PUSH2 0x2815 JUMP JUMPDEST POP PUSH1 0x80 DUP3 ADD MLOAD DUP2 PUSH1 0x4 ADD PUSH0 PUSH2 0x100 EXP DUP2 SLOAD DUP2 PUSH1 0xFF MUL NOT AND SWAP1 DUP4 PUSH1 0x3 DUP2 GT ISZERO PUSH2 0x1441 JUMPI PUSH2 0x1440 PUSH2 0x2C0F JUMP JUMPDEST JUMPDEST MUL OR SWAP1 SSTORE POP POP POP DUP2 DUP2 PUSH1 0x4 ADD PUSH0 DUP3 DUP3 SLOAD PUSH2 0x145B SWAP2 SWAP1 PUSH2 0x3C03 JUMP JUMPDEST SWAP3 POP POP DUP2 SWAP1 SSTORE POP PUSH32 0x19439D2F13B8E31A345C68E37F0C812831A8A55918A850B8B0D16ED1D0870E9E DUP4 CALLER DUP4 PUSH1 0x5 ADD SLOAD DUP6 PUSH1 0x40 MLOAD PUSH2 0x149B SWAP5 SWAP4 SWAP3 SWAP2 SWAP1 PUSH2 0x3C9E JUMP JUMPDEST PUSH1 0x40 MLOAD DUP1 SWAP2 SUB SWAP1 LOG1 PUSH0 DUP2 PUSH1 0x4 ADD SLOAD SUB PUSH2 0x1521 JUMPI PUSH1 0x1 DUP2 PUSH1 0x6 ADD PUSH0 PUSH2 0x100 EXP DUP2 SLOAD DUP2 PUSH1 0xFF MUL NOT AND SWAP1 DUP4 PUSH1 0x3 DUP2 GT ISZERO PUSH2 0x14D5 JUMPI PUSH2 0x14D4 PUSH2 0x2C0F JUMP JUMPDEST JUMPDEST MUL OR SWAP1 SSTORE POP DUP1 PUSH1 0x7 ADD PUSH0 PUSH2 0x14E9 SWAP2 SWAP1 PUSH2 0x2860 JUMP JUMPDEST PUSH32 0x318A250F8C30F2D9FEF18CB7F019F4DFFE3F45DB4E76F8FBE408BAE19E5304CD DUP4 PUSH1 0x40 MLOAD PUSH2 0x1518 SWAP2 SWAP1 PUSH2 0x3588 JUMP JUMPDEST PUSH1 0x40 MLOAD DUP1 SWAP2 SUB SWAP1 LOG1 JUMPDEST POP POP POP JUMP JUMPDEST PUSH0 DUP1 SLOAD SWAP1 PUSH2 0x100 EXP SWAP1 DIV PUSH20 0xFFFFFFFFFFFFFFFFFFFFFFFFFFFFFFFFFFFFFFFF AND PUSH20 0xFFFFFFFFFFFFFFFFFFFFFFFFFFFFFFFFFFFFFFFF AND CALLER PUSH20 0xFFFFFFFFFFFFFFFFFFFFFFFFFFFFFFFFFFFFFFFF AND EQ PUSH2 0x15B3 JUMPI PUSH1 0x40 MLOAD PUSH32 0x8C379A000000000000000000000000000000000000000000000000000000000 DUP2 MSTORE PUSH1 0x4 ADD PUSH2 0x15AA SWAP1 PUSH2 0x411E JUMP JUMPDEST PUSH1 0x40 MLOAD DUP1 SWAP2 SUB SWAP1 REVERT JUMPDEST PUSH0 PUSH1 0x2 PUSH0 DUP6 DUP2 MSTORE PUSH1 0x20 ADD SWAP1 DUP2 MSTORE PUSH1 0x20 ADD PUSH0 KECCAK256 SWAP1 POP PUSH0 PUSH2 0x15D2 DUP6 DUP6 PUSH2 0x260E JUMP JUMPDEST SWAP1 POP DUP2 PUSH1 0x1 ADD DUP1 SLOAD SWAP1 POP DUP2 LT PUSH2 0x161D JUMPI PUSH1 0x40 MLOAD PUSH32 0x8C379A000000000000000000000000000000000000000000000000000000000 DUP2 MSTORE PUSH1 0x4 ADD PUSH2 0x1614 SWAP1 PUSH2 0x3D88 JUMP JUMPDEST PUSH1 0x40 MLOAD DUP1 SWAP2 SUB SWAP1 REVERT JUMPDEST PUSH1 0x2 PUSH1 0x3 DUP2 GT ISZERO PUSH2 0x1631 JUMPI PUSH2 0x1630 PUSH2 0x2C0F JUMP JUMPDEST JUMPDEST DUP3 PUSH1 0x6 ADD PUSH0 SWAP1 SLOAD SWAP1 PUSH2 0x100 EXP SWAP1 DIV PUSH1 0xFF AND PUSH1 0x3 DUP2 GT ISZERO PUSH2 0x1654 JUMPI PUSH2 0x1653 PUSH2 0x2C0F JUMP JUMPDEST JUMPDEST EQ PUSH2 0x1694 JUMPI PUSH1 0x40 MLOAD PUSH32 0x8C379A000000000000000000000000000000000000000000000000000000000 DUP2 MSTORE PUSH1 0x4 ADD PUSH2 0x168B SWAP1 PUSH2 0x41AC JUMP JUMPDEST PUSH1 0x40 MLOAD DUP1 SWAP2 SUB SWAP1 REVERT JUMPDEST PUSH1 0x1 PUSH1 0x3 DUP2 GT ISZERO PUSH2 0x16A8 JUMPI PUSH2 0x16A7 PUSH2 0x2C0F JUMP JUMPDEST JUMPDEST DUP3 PUSH1 0x1 ADD DUP3 DUP2 SLOAD DUP2 LT PUSH2 0x16BE JUMPI PUSH2 0x16BD PUSH2 0x39E4 JUMP JUMPDEST JUMPDEST SWAP1 PUSH0 MSTORE PUSH1 0x20 PUSH0 KECCAK256 SWAP1 PUSH1 0x5 MUL ADD PUSH1 0x4 ADD PUSH0 SWAP1 SLOAD SWAP1 PUSH2 0x100 EXP SWAP1 DIV PUSH1 0xFF AND PUSH1 0x3 DUP2 GT ISZERO PUSH2 0x16EC JUMPI PUSH2 0x16EB PUSH2 0x2C0F JUMP JUMPDEST JUMPDEST EQ PUSH2 0x172C JUMPI PUSH1 0x40 MLOAD PUSH32 0x8C379A000000000000000000000000000000000000000000000000000000000 DUP2 MSTORE PUSH1 0x4 ADD PUSH2 0x1723 SWAP1 PUSH2 0x4214 JUMP JUMPDEST PUSH1 0x40 MLOAD DUP1 SWAP2 SUB SWAP1 REVERT JUMPDEST DUP3 ISZERO PUSH2 0x1987 JUMPI PUSH1 0x2 DUP3 PUSH1 0x1 ADD DUP3 DUP2 SLOAD DUP2 LT PUSH2 0x174A JUMPI PUSH2 0x1749 PUSH2 0x39E4 JUMP JUMPDEST JUMPDEST SWAP1 PUSH0 MSTORE PUSH1 0x20 PUSH0 KECCAK256 SWAP1 PUSH1 0x5 MUL ADD PUSH1 0x4 ADD PUSH0 PUSH2 0x100 EXP DUP2 SLOAD DUP2 PUSH1 0xFF MUL NOT AND SWAP1 DUP4 PUSH1 0x3 DUP2 GT ISZERO PUSH2 0x177A JUMPI PUSH2 0x1779 PUSH2 0x2C0F JUMP JUMPDEST JUMPDEST MUL OR SWAP1 SSTORE POP PUSH2 0x1788 DUP6 PUSH2 0x26D3 JUMP JUMPDEST PUSH0 PUSH8 0xFFFFFFFFFFFFFFFF DUP2 GT ISZERO PUSH2 0x17A2 JUMPI PUSH2 0x17A1 PUSH2 0x3390 JUMP JUMPDEST JUMPDEST PUSH1 0x40 MLOAD SWAP1 DUP1 DUP3 MSTORE DUP1 PUSH1 0x20 MUL PUSH1 0x20 ADD DUP3 ADD PUSH1 0x40 MSTORE DUP1 ISZERO PUSH2 0x17D0 JUMPI DUP2 PUSH1 0x20 ADD PUSH1 0x20 DUP3 MUL DUP1 CALLDATASIZE DUP4 CALLDATACOPY DUP1 DUP3 ADD SWAP2 POP POP SWAP1 POP JUMPDEST POP DUP3 PUSH1 0x1 ADD DUP3 DUP2 SLOAD DUP2 LT PUSH2 0x17E7 JUMPI PUSH2 0x17E6 PUSH2 0x39E4 JUMP JUMPDEST JUMPDEST SWAP1 PUSH0 MSTORE PUSH1 0x20 PUSH0 KECCAK256 SWAP1 PUSH1 0x5 MUL ADD PUSH1 0x3 ADD SWAP1 DUP1 MLOAD SWAP1 PUSH1 0x20 ADD SWAP1 PUSH2 0x1809 SWAP3 SWAP2 SWAP1 PUSH2 0x2815 JUMP JUMPDEST POP PUSH0 DUP3 PUSH1 0x1 ADD DUP3 DUP2 SLOAD DUP2 LT PUSH2 0x1821 JUMPI PUSH2 0x1820 PUSH2 0x39E4 JUMP JUMPDEST JUMPDEST SWAP1 PUSH0 MSTORE PUSH1 0x20 PUSH0 KECCAK256 SWAP1 PUSH1 0x5 MUL ADD PUSH1 0x2 ADD SLOAD DUP4 PUSH1 0x1 ADD DUP4 DUP2 SLOAD DUP2 LT PUSH2 0x1847 JUMPI PUSH2 0x1846 PUSH2 0x39E4 JUMP JUMPDEST JUMPDEST SWAP1 PUSH0 MSTORE PUSH1 0x20 PUSH0 KECCAK256 SWAP1 PUSH1 0x5 MUL ADD PUSH1 0x1 ADD SLOAD PUSH2 0x1861 SWAP2 SWAP1 PUSH2 0x3A3E JUMP JUMPDEST SWAP1 POP PUSH0 DUP6 PUSH20 0xFFFFFFFFFFFFFFFFFFFFFFFFFFFFFFFFFFFFFFFF AND DUP3 PUSH1 0x40 MLOAD PUSH2 0x1888 SWAP1 PUSH2 0x3E61 JUMP JUMPDEST PUSH0 PUSH1 0x40 MLOAD DUP1 DUP4 SUB DUP2 DUP6 DUP8 GAS CALL SWAP3 POP POP POP RETURNDATASIZE DUP1 PUSH0 DUP2 EQ PUSH2 0x18C2 JUMPI PUSH1 0x40 MLOAD SWAP2 POP PUSH1 0x1F NOT PUSH1 0x3F RETURNDATASIZE ADD AND DUP3 ADD PUSH1 0x40 MSTORE RETURNDATASIZE DUP3 MSTORE RETURNDATASIZE PUSH0 PUSH1 0x20 DUP5 ADD RETURNDATACOPY PUSH2 0x18C7 JUMP JUMPDEST PUSH1 0x60 SWAP2 POP JUMPDEST POP POP SWAP1 POP DUP1 PUSH2 0x190B JUMPI PUSH1 0x40 MLOAD PUSH32 0x8C379A000000000000000000000000000000000000000000000000000000000 DUP2 MSTORE PUSH1 0x4 ADD PUSH2 0x1902 SWAP1 PUSH2 0x3EBF JUMP JUMPDEST PUSH1 0x40 MLOAD DUP1 SWAP2 SUB SWAP1 REVERT JUMPDEST PUSH32 0xD88A0D2B84D1ABBFE3F09463E545789513C74CA862AEEF5B498B2DC97431F1F9 DUP8 DUP8 PUSH1 0x1 PUSH1 0x40 MLOAD PUSH2 0x193F SWAP4 SWAP3 SWAP2 SWAP1 PUSH2 0x4232 JUMP JUMPDEST PUSH1 0x40 MLOAD DUP1 SWAP2 SUB SWAP1 LOG1 PUSH32 0x94BFE4304C4A019A643DB1361C608E44B3B0809910DDCCF2C432F88B751DCE9B DUP8 DUP8 PUSH1 0x40 MLOAD PUSH2 0x1978 SWAP3 SWAP2 SWAP1 PUSH2 0x3EDD JUMP JUMPDEST PUSH1 0x40 MLOAD DUP1 SWAP2 SUB SWAP1 LOG1 POP POP PUSH2 0x1BD6 JUMP JUMPDEST PUSH1 0x3 DUP3 PUSH1 0x1 ADD DUP3 DUP2 SLOAD DUP2 LT PUSH2 0x199F JUMPI PUSH2 0x199E PUSH2 0x39E4 JUMP JUMPDEST JUMPDEST SWAP1 PUSH0 MSTORE PUSH1 0x20 PUSH0 KECCAK256 SWAP1 PUSH1 0x5 MUL ADD PUSH1 0x4 ADD PUSH0 PUSH2 0x100 EXP DUP2 SLOAD DUP2 PUSH1 0xFF MUL NOT AND SWAP1 DUP4 PUSH1 0x3 DUP2 GT ISZERO PUSH2 0x19CF JUMPI PUSH2 0x19CE PUSH2 0x2C0F JUMP JUMPDEST JUMPDEST MUL OR SWAP1 SSTORE POP DUP2 PUSH1 0x1 ADD DUP2 DUP2 SLOAD DUP2 LT PUSH2 0x19EA JUMPI PUSH2 0x19E9 PUSH2 0x39E4 JUMP JUMPDEST JUMPDEST SWAP1 PUSH0 MSTORE PUSH1 0x20 PUSH0 KECCAK256 SWAP1 PUSH1 0x5 MUL ADD PUSH1 0x2 ADD SLOAD DUP3 PUSH1 0x4 ADD SLOAD PUSH2 0x1A09 SWAP2 SWAP1 PUSH2 0x4267 JUMP JUMPDEST DUP3 PUSH1 0x4 ADD DUP2 SWAP1 SSTORE POP PUSH0 DUP3 PUSH1 0x6 ADD PUSH0 PUSH2 0x100 EXP DUP2 SLOAD DUP2 PUSH1 0xFF MUL NOT AND SWAP1 DUP4 PUSH1 0x3 DUP2 GT ISZERO PUSH2 0x1A37 JUMPI PUSH2 0x1A36 PUSH2 0x2C0F JUMP JUMPDEST JUMPDEST MUL OR SWAP1 SSTORE POP PUSH0 DUP3 PUSH1 0x1 ADD DUP3 DUP2 SLOAD DUP2 LT PUSH2 0x1A53 JUMPI PUSH2 0x1A52 PUSH2 0x39E4 JUMP JUMPDEST JUMPDEST SWAP1 PUSH0 MSTORE PUSH1 0x20 PUSH0 KECCAK256 SWAP1 PUSH1 0x5 MUL ADD PUSH1 0x2 ADD SLOAD DUP4 PUSH1 0x1 ADD DUP4 DUP2 SLOAD DUP2 LT PUSH2 0x1A79 JUMPI PUSH2 0x1A78 PUSH2 0x39E4 JUMP JUMPDEST JUMPDEST SWAP1 PUSH0 MSTORE PUSH1 0x20 PUSH0 KECCAK256 SWAP1 PUSH1 0x5 MUL ADD PUSH1 0x1 ADD SLOAD PUSH2 0x1A93 SWAP2 SWAP1 PUSH2 0x3A3E JUMP JUMPDEST SWAP1 POP PUSH0 DUP4 PUSH0 ADD PUSH0 SWAP1 SLOAD SWAP1 PUSH2 0x100 EXP SWAP1 DIV PUSH20 0xFFFFFFFFFFFFFFFFFFFFFFFFFFFFFFFFFFFFFFFF AND PUSH20 0xFFFFFFFFFFFFFFFFFFFFFFFFFFFFFFFFFFFFFFFF AND DUP3 PUSH1 0x40 MLOAD PUSH2 0x1ADC SWAP1 PUSH2 0x3E61 JUMP JUMPDEST PUSH0 PUSH1 0x40 MLOAD DUP1 DUP4 SUB DUP2 DUP6 DUP8 GAS CALL SWAP3 POP POP POP RETURNDATASIZE DUP1 PUSH0 DUP2 EQ PUSH2 0x1B16 JUMPI PUSH1 0x40 MLOAD SWAP2 POP PUSH1 0x1F NOT PUSH1 0x3F RETURNDATASIZE ADD AND DUP3 ADD PUSH1 0x40 MSTORE RETURNDATASIZE DUP3 MSTORE RETURNDATASIZE PUSH0 PUSH1 0x20 DUP5 ADD RETURNDATACOPY PUSH2 0x1B1B JUMP JUMPDEST PUSH1 0x60 SWAP2 POP JUMPDEST POP POP SWAP1 POP DUP1 PUSH2 0x1B5F JUMPI PUSH1 0x40 MLOAD PUSH32 0x8C379A000000000000000000000000000000000000000000000000000000000 DUP2 MSTORE PUSH1 0x4 ADD PUSH2 0x1B56 SWAP1 PUSH2 0x3EBF JUMP JUMPDEST PUSH1 0x40 MLOAD DUP1 SWAP2 SUB SWAP1 REVERT JUMPDEST PUSH32 0xD88A0D2B84D1ABBFE3F09463E545789513C74CA862AEEF5B498B2DC97431F1F9 DUP8 DUP8 PUSH0 PUSH1 0x40 MLOAD PUSH2 0x1B92 SWAP4 SWAP3 SWAP2 SWAP1 PUSH2 0x4232 JUMP JUMPDEST PUSH1 0x40 MLOAD DUP1 SWAP2 SUB SWAP1 LOG1 PUSH32 0x79AA2E5F64C5EBE6553A9646E8A7D869E4E018FD1199481883B0E91FCABF95AB DUP8 DUP8 PUSH1 0x40 MLOAD PUSH2 0x1BCB SWAP3 SWAP2 SWAP1 PUSH2 0x3EDD JUMP JUMPDEST PUSH1 0x40 MLOAD DUP1 SWAP2 SUB SWAP1 LOG1 POP POP JUMPDEST POP POP POP POP POP JUMP JUMPDEST DUP3 PUSH1 0x2 PUSH0 DUP3 DUP2 MSTORE PUSH1 0x20 ADD SWAP1 DUP2 MSTORE PUSH1 0x20 ADD PUSH0 KECCAK256 PUSH0 ADD PUSH0 SWAP1 SLOAD SWAP1 PUSH2 0x100 EXP SWAP1 DIV PUSH20 0xFFFFFFFFFFFFFFFFFFFFFFFFFFFFFFFFFFFFFFFF AND PUSH20 0xFFFFFFFFFFFFFFFFFFFFFFFFFFFFFFFFFFFFFFFF AND CALLER PUSH20 0xFFFFFFFFFFFFFFFFFFFFFFFFFFFFFFFFFFFFFFFF AND EQ PUSH2 0x1C7E JUMPI PUSH1 0x40 MLOAD PUSH32 0x8C379A000000000000000000000000000000000000000000000000000000000 DUP2 MSTORE PUSH1 0x4 ADD PUSH2 0x1C75 SWAP1 PUSH2 0x395E JUMP JUMPDEST PUSH1 0x40 MLOAD DUP1 SWAP2 SUB SWAP1 REVERT JUMPDEST PUSH0 PUSH1 0x2 PUSH0 DUP7 DUP2 MSTORE PUSH1 0x20 ADD SWAP1 DUP2 MSTORE PUSH1 0x20 ADD PUSH0 KECCAK256 SWAP1 POP PUSH1 0x1 PUSH1 0x3 DUP2 GT ISZERO PUSH2 0x1CA6 JUMPI PUSH2 0x1CA5 PUSH2 0x2C0F JUMP JUMPDEST JUMPDEST DUP2 PUSH1 0x6 ADD PUSH0 SWAP1 SLOAD SWAP1 PUSH2 0x100 EXP SWAP1 DIV PUSH1 0xFF AND PUSH1 0x3 DUP2 GT ISZERO PUSH2 0x1CC9 JUMPI PUSH2 0x1CC8 PUSH2 0x2C0F JUMP JUMPDEST JUMPDEST EQ DUP1 PUSH2 0x1D08 JUMPI POP PUSH0 PUSH1 0x3 DUP2 GT ISZERO PUSH2 0x1CE3 JUMPI PUSH2 0x1CE2 PUSH2 0x2C0F JUMP JUMPDEST JUMPDEST DUP2 PUSH1 0x6 ADD PUSH0 SWAP1 SLOAD SWAP1 PUSH2 0x100 EXP SWAP1 DIV PUSH1 0xFF AND PUSH1 0x3 DUP2 GT ISZERO PUSH2 0x1D06 JUMPI PUSH2 0x1D05 PUSH2 0x2C0F JUMP JUMPDEST JUMPDEST EQ JUMPDEST PUSH2 0x1D47 JUMPI PUSH1 0x40 MLOAD PUSH32 0x8C379A000000000000000000000000000000000000000000000000000000000 DUP2 MSTORE PUSH1 0x4 ADD PUSH2 0x1D3E SWAP1 PUSH2 0x430A JUMP JUMPDEST PUSH1 0x40 MLOAD DUP1 SWAP2 SUB SWAP1 REVERT JUMPDEST PUSH1 0x2 DUP2 PUSH1 0x6 ADD PUSH0 PUSH2 0x100 EXP DUP2 SLOAD DUP2 PUSH1 0xFF MUL NOT AND SWAP1 DUP4 PUSH1 0x3 DUP2 GT ISZERO PUSH2 0x1D6E JUMPI PUSH2 0x1D6D PUSH2 0x2C0F JUMP JUMPDEST JUMPDEST MUL OR SWAP1 SSTORE POP PUSH0 PUSH2 0x1D7E DUP7 DUP7 PUSH2 0x260E JUMP JUMPDEST SWAP1 POP DUP2 PUSH1 0x1 ADD DUP1 SLOAD SWAP1 POP DUP2 LT PUSH2 0x1DC9 JUMPI PUSH1 0x40 MLOAD PUSH32 0x8C379A000000000000000000000000000000000000000000000000000000000 DUP2 MSTORE PUSH1 0x4 ADD PUSH2 0x1DC0 SWAP1 PUSH2 0x3D88 JUMP JUMPDEST PUSH1 0x40 MLOAD DUP1 SWAP2 SUB SWAP1 REVERT JUMPDEST PUSH1 0x1 DUP3 PUSH1 0x1 ADD DUP3 DUP2 SLOAD DUP2 LT PUSH2 0x1DE1 JUMPI PUSH2 0x1DE0 PUSH2 0x39E4 JUMP JUMPDEST JUMPDEST SWAP1 PUSH0 MSTORE PUSH1 0x20 PUSH0 KECCAK256 SWAP1 PUSH1 0x5 MUL ADD PUSH1 0x4 ADD PUSH0 PUSH2 0x100 EXP DUP2 SLOAD DUP2 PUSH1 0xFF MUL NOT AND SWAP1 DUP4 PUSH1 0x3 DUP2 GT ISZERO PUSH2 0x1E11 JUMPI PUSH2 0x1E10 PUSH2 0x2C0F JUMP JUMPDEST JUMPDEST MUL OR SWAP1 SSTORE POP DUP2 PUSH1 0x1 ADD DUP2 DUP2 SLOAD DUP2 LT PUSH2 0x1E2C JUMPI PUSH2 0x1E2B PUSH2 0x39E4 JUMP JUMPDEST JUMPDEST SWAP1 PUSH0 MSTORE PUSH1 0x20 PUSH0 KECCAK256 SWAP1 PUSH1 0x5 MUL ADD PUSH1 0x3 ADD PUSH0 PUSH2 0x1E46 SWAP2 SWAP1 PUSH2 0x28F2 JUMP JUMPDEST PUSH0 JUMPDEST DUP5 MLOAD DUP2 LT ISZERO PUSH2 0x1EC1 JUMPI DUP3 PUSH1 0x1 ADD DUP3 DUP2 SLOAD DUP2 LT PUSH2 0x1E67 JUMPI PUSH2 0x1E66 PUSH2 0x39E4 JUMP JUMPDEST JUMPDEST SWAP1 PUSH0 MSTORE PUSH1 0x20 PUSH0 KECCAK256 SWAP1 PUSH1 0x5 MUL ADD PUSH1 0x3 ADD DUP6 DUP3 DUP2 MLOAD DUP2 LT PUSH2 0x1E89 JUMPI PUSH2 0x1E88 PUSH2 0x39E4 JUMP JUMPDEST JUMPDEST PUSH1 0x20 MUL PUSH1 0x20 ADD ADD MLOAD SWAP1 DUP1 PUSH1 0x1 DUP2 SLOAD ADD DUP1 DUP3 SSTORE DUP1 SWAP2 POP POP PUSH1 0x1 SWAP1 SUB SWAP1 PUSH0 MSTORE PUSH1 0x20 PUSH0 KECCAK256 ADD PUSH0 SWAP1 SWAP2 SWAP1 SWAP2 SWAP1 SWAP2 POP SSTORE DUP1 DUP1 PUSH1 0x1 ADD SWAP2 POP POP PUSH2 0x1E48 JUMP JUMPDEST POP PUSH32 0xDD73FF114F3AC78604467696ADC4DF178DAFB4CC7E2F984473A21D424EE0341B DUP7 DUP7 DUP7 PUSH1 0x40 MLOAD PUSH2 0x1EF5 SWAP4 SWAP3 SWAP2 SWAP1 PUSH2 0x4394 JUMP JUMPDEST PUSH1 0x40 MLOAD DUP1 SWAP2 SUB SWAP1 LOG1 POP POP POP POP POP POP JUMP JUMPDEST PUSH0 PUSH1 0x2 PUSH0 DUP6 DUP2 MSTORE PUSH1 0x20 ADD SWAP1 DUP2 MSTORE PUSH1 0x20 ADD PUSH0 KECCAK256 SWAP1 POP PUSH1 0x1 ISZERO ISZERO DUP2 PUSH1 0x6 ADD PUSH1 0x1 SWAP1 SLOAD SWAP1 PUSH2 0x100 EXP SWAP1 DIV PUSH1 0xFF AND ISZERO ISZERO EQ DUP1 ISZERO PUSH2 0x1F71 JUMPI POP PUSH0 PUSH1 0x3 DUP2 GT ISZERO PUSH2 0x1F4C JUMPI PUSH2 0x1F4B PUSH2 0x2C0F JUMP JUMPDEST JUMPDEST DUP2 PUSH1 0x6 ADD PUSH0 SWAP1 SLOAD SWAP1 PUSH2 0x100 EXP SWAP1 DIV PUSH1 0xFF AND PUSH1 0x3 DUP2 GT ISZERO PUSH2 0x1F6F JUMPI PUSH2 0x1F6E PUSH2 0x2C0F JUMP JUMPDEST JUMPDEST EQ JUMPDEST PUSH2 0x1FB0 JUMPI PUSH1 0x40 MLOAD PUSH32 0x8C379A000000000000000000000000000000000000000000000000000000000 DUP2 MSTORE PUSH1 0x4 ADD PUSH2 0x1FA7 SWAP1 PUSH2 0x4440 JUMP JUMPDEST PUSH1 0x40 MLOAD DUP1 SWAP2 SUB SWAP1 REVERT JUMPDEST DUP3 DUP2 PUSH1 0x4 ADD SLOAD LT ISZERO PUSH2 0x1FF7 JUMPI PUSH1 0x40 MLOAD PUSH32 0x8C379A000000000000000000000000000000000000000000000000000000000 DUP2 MSTORE PUSH1 0x4 ADD PUSH2 0x1FEE SWAP1 PUSH2 0x4090 JUMP JUMPDEST PUSH1 0x40 MLOAD DUP1 SWAP2 SUB SWAP1 REVERT JUMPDEST DUP1 PUSH1 0x7 ADD PUSH1 0x40 MLOAD DUP1 PUSH1 0x60 ADD PUSH1 0x40 MSTORE DUP1 CALLER PUSH20 0xFFFFFFFFFFFFFFFFFFFFFFFFFFFFFFFFFFFFFFFF AND DUP2 MSTORE PUSH1 0x20 ADD DUP5 DUP2 MSTORE PUSH1 0x20 ADD DUP6 DUP2 MSTORE POP SWAP1 DUP1 PUSH1 0x1 DUP2 SLOAD ADD DUP1 DUP3 SSTORE DUP1 SWAP2 POP POP PUSH1 0x1 SWAP1 SUB SWAP1 PUSH0 MSTORE PUSH1 0x20 PUSH0 KECCAK256 SWAP1 PUSH1 0x3 MUL ADD PUSH0 SWAP1 SWAP2 SWAP1 SWAP2 SWAP1 SWAP2 POP PUSH0 DUP3 ADD MLOAD DUP2 PUSH0 ADD PUSH0 PUSH2 0x100 EXP DUP2 SLOAD DUP2 PUSH20 0xFFFFFFFFFFFFFFFFFFFFFFFFFFFFFFFFFFFFFFFF MUL NOT AND SWAP1 DUP4 PUSH20 0xFFFFFFFFFFFFFFFFFFFFFFFFFFFFFFFFFFFFFFFF AND MUL OR SWAP1 SSTORE POP PUSH1 0x20 DUP3 ADD MLOAD DUP2 PUSH1 0x1 ADD SSTORE PUSH1 0x40 DUP3 ADD MLOAD DUP2 PUSH1 0x2 ADD SSTORE POP POP PUSH32 0xF88EE2FA0F4AA3CC508B9C967B3D6EF3D016D3138044FE12C14505FA0B5343CA DUP5 CALLER DUP6 DUP6 PUSH1 0x40 MLOAD PUSH2 0x20E1 SWAP5 SWAP4 SWAP3 SWAP2 SWAP1 PUSH2 0x3C9E JUMP JUMPDEST PUSH1 0x40 MLOAD DUP1 SWAP2 SUB SWAP1 LOG1 POP POP POP POP JUMP JUMPDEST PUSH1 0x1 SLOAD DUP2 JUMP JUMPDEST PUSH1 0x60 PUSH0 PUSH1 0x2 PUSH0 DUP6 DUP2 MSTORE PUSH1 0x20 ADD SWAP1 DUP2 MSTORE PUSH1 0x20 ADD PUSH0 KECCAK256 SWAP1 POP PUSH0 PUSH2 0x2116 DUP6 DUP6 PUSH2 0x260E JUMP JUMPDEST SWAP1 POP DUP2 PUSH1 0x1 ADD DUP1 SLOAD SWAP1 POP DUP2 LT PUSH2 0x2161 JUMPI PUSH1 0x40 MLOAD PUSH32 0x8C379A000000000000000000000000000000000000000000000000000000000 DUP2 MSTORE PUSH1 0x4 ADD PUSH2 0x2158 SWAP1 PUSH2 0x3D88 JUMP JUMPDEST PUSH1 0x40 MLOAD DUP1 SWAP2 SUB SWAP1 REVERT JUMPDEST PUSH0 DUP3 PUSH1 0x1 ADD DUP3 DUP2 SLOAD DUP2 LT PUSH2 0x2178 JUMPI PUSH2 0x2177 PUSH2 0x39E4 JUMP JUMPDEST JUMPDEST SWAP1 PUSH0 MSTORE PUSH1 0x20 PUSH0 KECCAK256 SWAP1 PUSH1 0x5 MUL ADD PUSH1 0x3 ADD SWAP1 POP PUSH0 DUP2 DUP1 SLOAD SWAP1 POP PUSH8 0xFFFFFFFFFFFFFFFF DUP2 GT ISZERO PUSH2 0x21A8 JUMPI PUSH2 0x21A7 PUSH2 0x3390 JUMP JUMPDEST JUMPDEST PUSH1 0x40 MLOAD SWAP1 DUP1 DUP3 MSTORE DUP1 PUSH1 0x20 MUL PUSH1 0x20 ADD DUP3 ADD PUSH1 0x40 MSTORE DUP1 ISZERO PUSH2 0x21DB JUMPI DUP2 PUSH1 0x20 ADD JUMPDEST PUSH1 0x60 DUP2 MSTORE PUSH1 0x20 ADD SWAP1 PUSH1 0x1 SWAP1 SUB SWAP1 DUP2 PUSH2 0x21C6 JUMPI SWAP1 POP JUMPDEST POP SWAP1 POP PUSH0 JUMPDEST DUP3 DUP1 SLOAD SWAP1 POP DUP2 LT ISZERO PUSH2 0x22D7 JUMPI DUP5 PUSH1 0x3 ADD DUP4 DUP3 DUP2 SLOAD DUP2 LT PUSH2 0x2203 JUMPI PUSH2 0x2202 PUSH2 0x39E4 JUMP JUMPDEST JUMPDEST SWAP1 PUSH0 MSTORE PUSH1 0x20 PUSH0 KECCAK256 ADD SLOAD DUP2 SLOAD DUP2 LT PUSH2 0x221D JUMPI PUSH2 0x221C PUSH2 0x39E4 JUMP JUMPDEST JUMPDEST SWAP1 PUSH0 MSTORE PUSH1 0x20 PUSH0 KECCAK256 ADD DUP1 SLOAD PUSH2 0x2230 SWAP1 PUSH2 0x3D0E JUMP JUMPDEST DUP1 PUSH1 0x1F ADD PUSH1 0x20 DUP1 SWAP2 DIV MUL PUSH1 0x20 ADD PUSH1 0x40 MLOAD SWAP1 DUP2 ADD PUSH1 0x40 MSTORE DUP1 SWAP3 SWAP2 SWAP1 DUP2 DUP2 MSTORE PUSH1 0x20 ADD DUP3 DUP1 SLOAD PUSH2 0x225C SWAP1 PUSH2 0x3D0E JUMP JUMPDEST DUP1 ISZERO PUSH2 0x22A7 JUMPI DUP1 PUSH1 0x1F LT PUSH2 0x227E JUMPI PUSH2 0x100 DUP1 DUP4 SLOAD DIV MUL DUP4 MSTORE SWAP2 PUSH1 0x20 ADD SWAP2 PUSH2 0x22A7 JUMP JUMPDEST DUP3 ADD SWAP2 SWAP1 PUSH0 MSTORE PUSH1 0x20 PUSH0 KECCAK256 SWAP1 JUMPDEST DUP2 SLOAD DUP2 MSTORE SWAP1 PUSH1 0x1 ADD SWAP1 PUSH1 0x20 ADD DUP1 DUP4 GT PUSH2 0x228A JUMPI DUP3 SWAP1 SUB PUSH1 0x1F AND DUP3 ADD SWAP2 JUMPDEST POP POP POP POP POP DUP3 DUP3 DUP2 MLOAD DUP2 LT PUSH2 0x22BF JUMPI PUSH2 0x22BE PUSH2 0x39E4 JUMP JUMPDEST JUMPDEST PUSH1 0x20 MUL PUSH1 0x20 ADD ADD DUP2 SWAP1 MSTORE POP DUP1 DUP1 PUSH1 0x1 ADD SWAP2 POP POP PUSH2 0x21E0 JUMP JUMPDEST POP DUP1 SWAP5 POP POP POP POP POP SWAP3 SWAP2 POP POP JUMP JUMPDEST PUSH1 0x60 PUSH0 PUSH1 0x2 PUSH0 DUP5 DUP2 MSTORE PUSH1 0x20 ADD SWAP1 DUP2 MSTORE PUSH1 0x20 ADD PUSH0 KECCAK256 SWAP1 POP DUP1 PUSH1 0x7 ADD DUP1 SLOAD DUP1 PUSH1 0x20 MUL PUSH1 0x20 ADD PUSH1 0x40 MLOAD SWAP1 DUP2 ADD PUSH1 0x40 MSTORE DUP1 SWAP3 SWAP2 SWAP1 DUP2 DUP2 MSTORE PUSH1 0x20 ADD PUSH0 SWAP1 JUMPDEST DUP3 DUP3 LT ISZERO PUSH2 0x23B6 JUMPI DUP4 DUP3 SWAP1 PUSH0 MSTORE PUSH1 0x20 PUSH0 KECCAK256 SWAP1 PUSH1 0x3 MUL ADD PUSH1 0x40 MLOAD DUP1 PUSH1 0x60 ADD PUSH1 0x40 MSTORE SWAP1 DUP2 PUSH0 DUP3 ADD PUSH0 SWAP1 SLOAD SWAP1 PUSH2 0x100 EXP SWAP1 DIV PUSH20 0xFFFFFFFFFFFFFFFFFFFFFFFFFFFFFFFFFFFFFFFF AND PUSH20 0xFFFFFFFFFFFFFFFFFFFFFFFFFFFFFFFFFFFFFFFF AND PUSH20 0xFFFFFFFFFFFFFFFFFFFFFFFFFFFFFFFFFFFFFFFF AND DUP2 MSTORE PUSH1 0x20 ADD PUSH1 0x1 DUP3 ADD SLOAD DUP2 MSTORE PUSH1 0x20 ADD PUSH1 0x2 DUP3 ADD SLOAD DUP2 MSTORE POP POP DUP2 MSTORE PUSH1 0x20 ADD SWAP1 PUSH1 0x1 ADD SWAP1 PUSH2 0x231E JUMP JUMPDEST POP POP POP POP SWAP2 POP POP SWAP2 SWAP1 POP JUMP JUMPDEST PUSH0 PUSH1 0x2 PUSH0 PUSH1 0x1 SLOAD DUP2 MSTORE PUSH1 0x20 ADD SWAP1 DUP2 MSTORE PUSH1 0x20 ADD PUSH0 KECCAK256 SWAP1 POP CALLER DUP2 PUSH0 ADD PUSH0 PUSH2 0x100 EXP DUP2 SLOAD DUP2 PUSH20 0xFFFFFFFFFFFFFFFFFFFFFFFFFFFFFFFFFFFFFFFF MUL NOT AND SWAP1 DUP4 PUSH20 0xFFFFFFFFFFFFFFFFFFFFFFFFFFFFFFFFFFFFFFFF AND MUL OR SWAP1 SSTORE POP DUP1 PUSH1 0x3 ADD PUSH0 PUSH2 0x2428 SWAP2 SWAP1 PUSH2 0x2910 JUMP JUMPDEST PUSH0 JUMPDEST DUP6 MLOAD DUP2 LT ISZERO PUSH2 0x248E JUMPI DUP2 PUSH1 0x3 ADD DUP7 DUP3 DUP2 MLOAD DUP2 LT PUSH2 0x244A JUMPI PUSH2 0x2449 PUSH2 0x39E4 JUMP JUMPDEST JUMPDEST PUSH1 0x20 MUL PUSH1 0x20 ADD ADD MLOAD SWAP1 DUP1 PUSH1 0x1 DUP2 SLOAD ADD DUP1 DUP3 SSTORE DUP1 SWAP2 POP POP PUSH1 0x1 SWAP1 SUB SWAP1 PUSH0 MSTORE PUSH1 0x20 PUSH0 KECCAK256 ADD PUSH0 SWAP1 SWAP2 SWAP1 SWAP2 SWAP1 SWAP2 POP SWAP1 DUP2 PUSH2 0x2480 SWAP2 SWAP1 PUSH2 0x45FB JUMP JUMPDEST POP DUP1 DUP1 PUSH1 0x1 ADD SWAP2 POP POP PUSH2 0x242A JUMP JUMPDEST POP DUP3 DUP2 PUSH1 0x5 ADD DUP2 SWAP1 SSTORE POP DUP4 DUP2 PUSH1 0x4 ADD DUP2 SWAP1 SSTORE POP PUSH0 DUP2 PUSH1 0x6 ADD PUSH0 PUSH2 0x100 EXP DUP2 SLOAD DUP2 PUSH1 0xFF MUL NOT AND SWAP1 DUP4 PUSH1 0x3 DUP2 GT ISZERO PUSH2 0x24C7 JUMPI PUSH2 0x24C6 PUSH2 0x2C0F JUMP JUMPDEST JUMPDEST MUL OR SWAP1 SSTORE POP DUP2 DUP2 PUSH1 0x6 ADD PUSH1 0x1 PUSH2 0x100 EXP DUP2 SLOAD DUP2 PUSH1 0xFF MUL NOT AND SWAP1 DUP4 ISZERO ISZERO MUL OR SWAP1 SSTORE POP PUSH32 0xDB565BD8B7D99DA141036D23AB6E2B3FB4EB4FAA0968CB9F4E4414BF7486AFC0 PUSH1 0x1 SLOAD CALLER DUP8 DUP8 DUP8 DUP8 PUSH1 0x40 MLOAD PUSH2 0x2523 SWAP7 SWAP6 SWAP5 SWAP4 SWAP3 SWAP2 SWAP1 PUSH2 0x46CA JUMP JUMPDEST PUSH1 0x40 MLOAD DUP1 SWAP2 SUB SWAP1 LOG1 PUSH1 0x1 PUSH0 DUP2 SLOAD DUP1 SWAP3 SWAP2 SWAP1 PUSH2 0x253D SWAP1 PUSH2 0x4730 JUMP JUMPDEST SWAP2 SWAP1 POP SSTORE POP POP POP POP POP POP JUMP JUMPDEST PUSH0 DUP1 PUSH1 0x2 PUSH0 DUP6 DUP2 MSTORE PUSH1 0x20 ADD SWAP1 DUP2 MSTORE PUSH1 0x20 ADD PUSH0 KECCAK256 SWAP1 POP PUSH0 DUP2 PUSH1 0x7 ADD DUP1 SLOAD SWAP1 POP SWAP1 POP PUSH0 JUMPDEST DUP2 DUP2 LT ISZERO PUSH2 0x2601 JUMPI DUP5 PUSH20 0xFFFFFFFFFFFFFFFFFFFFFFFFFFFFFFFFFFFFFFFF AND DUP4 PUSH1 0x7 ADD DUP3 DUP2 SLOAD DUP2 LT PUSH2 0x25A0 JUMPI PUSH2 0x259F PUSH2 0x39E4 JUMP JUMPDEST JUMPDEST SWAP1 PUSH0 MSTORE PUSH1 0x20 PUSH0 KECCAK256 SWAP1 PUSH1 0x3 MUL ADD PUSH0 ADD PUSH0 SWAP1 SLOAD SWAP1 PUSH2 0x100 EXP SWAP1 DIV PUSH20 0xFFFFFFFFFFFFFFFFFFFFFFFFFFFFFFFFFFFFFFFF AND PUSH20 0xFFFFFFFFFFFFFFFFFFFFFFFFFFFFFFFFFFFFFFFF AND SUB PUSH2 0x25F4 JUMPI DUP1 SWAP4 POP POP POP POP PUSH2 0x2608 JUMP JUMPDEST DUP1 DUP1 PUSH1 0x1 ADD SWAP2 POP POP PUSH2 0x256B JUMP JUMPDEST POP DUP1 SWAP3 POP POP POP JUMPDEST SWAP3 SWAP2 POP POP JUMP JUMPDEST PUSH0 DUP1 PUSH1 0x2 PUSH0 DUP6 DUP2 MSTORE PUSH1 0x20 ADD SWAP1 DUP2 MSTORE PUSH1 0x20 ADD PUSH0 KECCAK256 SWAP1 POP PUSH0 DUP2 PUSH1 0x1 ADD DUP1 SLOAD SWAP1 POP SWAP1 POP PUSH0 JUMPDEST DUP2 DUP2 LT ISZERO PUSH2 0x26C6 JUMPI DUP5 PUSH20 0xFFFFFFFFFFFFFFFFFFFFFFFFFFFFFFFFFFFFFFFF AND DUP4 PUSH1 0x1 ADD DUP3 DUP2 SLOAD DUP2 LT PUSH2 0x2665 JUMPI PUSH2 0x2664 PUSH2 0x39E4 JUMP JUMPDEST JUMPDEST SWAP1 PUSH0 MSTORE PUSH1 0x20 PUSH0 KECCAK256 SWAP1 PUSH1 0x5 MUL ADD PUSH0 ADD PUSH0 SWAP1 SLOAD SWAP1 PUSH2 0x100 EXP SWAP1 DIV PUSH20 0xFFFFFFFFFFFFFFFFFFFFFFFFFFFFFFFFFFFFFFFF AND PUSH20 0xFFFFFFFFFFFFFFFFFFFFFFFFFFFFFFFFFFFFFFFF AND SUB PUSH2 0x26B9 JUMPI DUP1 SWAP4 POP POP POP POP PUSH2 0x26CD JUMP JUMPDEST DUP1 DUP1 PUSH1 0x1 ADD SWAP2 POP POP PUSH2 0x2630 JUMP JUMPDEST POP DUP1 SWAP3 POP POP POP JUMPDEST SWAP3 SWAP2 POP POP JUMP JUMPDEST PUSH0 PUSH1 0x1 SWAP1 POP PUSH0 PUSH1 0x2 PUSH0 DUP5 DUP2 MSTORE PUSH1 0x20 ADD SWAP1 DUP2 MSTORE PUSH1 0x20 ADD PUSH0 KECCAK256 SWAP1 POP PUSH0 JUMPDEST DUP2 PUSH1 0x1 ADD DUP1 SLOAD SWAP1 POP DUP2 LT ISZERO PUSH2 0x27CD JUMPI PUSH1 0x2 PUSH1 0x3 DUP2 GT ISZERO PUSH2 0x2711 JUMPI PUSH2 0x2710 PUSH2 0x2C0F JUMP JUMPDEST JUMPDEST DUP3 PUSH1 0x1 ADD DUP3 DUP2 SLOAD DUP2 LT PUSH2 0x2727 JUMPI PUSH2 0x2726 PUSH2 0x39E4 JUMP JUMPDEST JUMPDEST SWAP1 PUSH0 MSTORE PUSH1 0x20 PUSH0 KECCAK256 SWAP1 PUSH1 0x5 MUL ADD PUSH1 0x4 ADD PUSH0 SWAP1 SLOAD SWAP1 PUSH2 0x100 EXP SWAP1 DIV PUSH1 0xFF AND PUSH1 0x3 DUP2 GT ISZERO PUSH2 0x2755 JUMPI PUSH2 0x2754 PUSH2 0x2C0F JUMP JUMPDEST JUMPDEST EQ ISZERO DUP1 PUSH2 0x27B7 JUMPI POP PUSH1 0x3 DUP1 DUP2 GT ISZERO PUSH2 0x2770 JUMPI PUSH2 0x276F PUSH2 0x2C0F JUMP JUMPDEST JUMPDEST DUP3 PUSH1 0x1 ADD DUP3 DUP2 SLOAD DUP2 LT PUSH2 0x2786 JUMPI PUSH2 0x2785 PUSH2 0x39E4 JUMP JUMPDEST JUMPDEST SWAP1 PUSH0 MSTORE PUSH1 0x20 PUSH0 KECCAK256 SWAP1 PUSH1 0x5 MUL ADD PUSH1 0x4 ADD PUSH0 SWAP1 SLOAD SWAP1 PUSH2 0x100 EXP SWAP1 DIV PUSH1 0xFF AND PUSH1 0x3 DUP2 GT ISZERO PUSH2 0x27B4 JUMPI PUSH2 0x27B3 PUSH2 0x2C0F JUMP JUMPDEST JUMPDEST EQ ISZERO JUMPDEST ISZERO PUSH2 0x27C0 JUMPI PUSH0 SWAP3 POP JUMPDEST DUP1 DUP1 PUSH1 0x1 ADD SWAP2 POP POP PUSH2 0x26EE JUMP JUMPDEST POP DUP2 DUP1 ISZERO PUSH2 0x27DE JUMPI POP PUSH0 DUP2 PUSH1 0x4 ADD SLOAD EQ JUMPDEST ISZERO PUSH2 0x2810 JUMPI PUSH1 0x3 DUP2 PUSH1 0x6 ADD PUSH0 PUSH2 0x100 EXP DUP2 SLOAD DUP2 PUSH1 0xFF MUL NOT AND SWAP1 DUP4 PUSH1 0x3 DUP2 GT ISZERO PUSH2 0x280A JUMPI PUSH2 0x2809 PUSH2 0x2C0F JUMP JUMPDEST JUMPDEST MUL OR SWAP1 SSTORE POP JUMPDEST POP POP POP JUMP JUMPDEST DUP3 DUP1 SLOAD DUP3 DUP3 SSTORE SWAP1 PUSH0 MSTORE PUSH1 0x20 PUSH0 KECCAK256 SWAP1 DUP2 ADD SWAP3 DUP3 ISZERO PUSH2 0x284F JUMPI SWAP2 PUSH1 0x20 MUL DUP3 ADD JUMPDEST DUP3 DUP2 GT ISZERO PUSH2 0x284E JUMPI DUP3 MLOAD DUP3 SSTORE SWAP2 PUSH1 0x20 ADD SWAP2 SWAP1 PUSH1 0x1 ADD SWAP1 PUSH2 0x2833 JUMP JUMPDEST JUMPDEST POP SWAP1 POP PUSH2 0x285C SWAP2 SWAP1 PUSH2 0x292E JUMP JUMPDEST POP SWAP1 JUMP JUMPDEST POP DUP1 SLOAD PUSH0 DUP3 SSTORE PUSH1 0x3 MUL SWAP1 PUSH0 MSTORE PUSH1 0x20 PUSH0 KECCAK256 SWAP1 DUP2 ADD SWAP1 PUSH2 0x287E SWAP2 SWAP1 PUSH2 0x2949 JUMP JUMPDEST POP JUMP JUMPDEST PUSH1 0x40 MLOAD DUP1 PUSH2 0x120 ADD PUSH1 0x40 MSTORE DUP1 PUSH0 PUSH20 0xFFFFFFFFFFFFFFFFFFFFFFFFFFFFFFFFFFFFFFFF AND DUP2 MSTORE PUSH1 0x20 ADD PUSH1 0x60 DUP2 MSTORE PUSH1 0x20 ADD PUSH1 0x60 DUP2 MSTORE PUSH1 0x20 ADD PUSH1 0x60 DUP2 MSTORE PUSH1 0x20 ADD PUSH0 DUP2 MSTORE PUSH1 0x20 ADD PUSH0 DUP2 MSTORE PUSH1 0x20 ADD PUSH0 PUSH1 0x3 DUP2 GT ISZERO PUSH2 0x28DD JUMPI PUSH2 0x28DC PUSH2 0x2C0F JUMP JUMPDEST JUMPDEST DUP2 MSTORE PUSH1 0x20 ADD PUSH0 ISZERO ISZERO DUP2 MSTORE PUSH1 0x20 ADD PUSH1 0x60 DUP2 MSTORE POP SWAP1 JUMP JUMPDEST POP DUP1 SLOAD PUSH0 DUP3 SSTORE SWAP1 PUSH0 MSTORE PUSH1 0x20 PUSH0 KECCAK256 SWAP1 DUP2 ADD SWAP1 PUSH2 0x290D SWAP2 SWAP1 PUSH2 0x292E JUMP JUMPDEST POP JUMP JUMPDEST POP DUP1 SLOAD PUSH0 DUP3 SSTORE SWAP1 PUSH0 MSTORE PUSH1 0x20 PUSH0 KECCAK256 SWAP1 DUP2 ADD SWAP1 PUSH2 0x292B SWAP2 SWAP1 PUSH2 0x2993 JUMP JUMPDEST POP JUMP JUMPDEST JUMPDEST DUP1 DUP3 GT ISZERO PUSH2 0x2945 JUMPI PUSH0 DUP2 PUSH0 SWAP1 SSTORE POP PUSH1 0x1 ADD PUSH2 0x292F JUMP JUMPDEST POP SWAP1 JUMP JUMPDEST JUMPDEST DUP1 DUP3 GT ISZERO PUSH2 0x298F JUMPI PUSH0 DUP1 DUP3 ADD PUSH0 PUSH2 0x100 EXP DUP2 SLOAD SWAP1 PUSH20 0xFFFFFFFFFFFFFFFFFFFFFFFFFFFFFFFFFFFFFFFF MUL NOT AND SWAP1 SSTORE PUSH1 0x1 DUP3 ADD PUSH0 SWAP1 SSTORE PUSH1 0x2 DUP3 ADD PUSH0 SWAP1 SSTORE POP PUSH1 0x3 ADD PUSH2 0x294A JUMP JUMPDEST POP SWAP1 JUMP JUMPDEST JUMPDEST DUP1 DUP3 GT ISZERO PUSH2 0x29B2 JUMPI PUSH0 DUP2 DUP2 PUSH2 0x29A9 SWAP2 SWAP1 PUSH2 0x29B6 JUMP JUMPDEST POP PUSH1 0x1 ADD PUSH2 0x2994 JUMP JUMPDEST POP SWAP1 JUMP JUMPDEST POP DUP1 SLOAD PUSH2 0x29C2 SWAP1 PUSH2 0x3D0E JUMP JUMPDEST PUSH0 DUP3 SSTORE DUP1 PUSH1 0x1F LT PUSH2 0x29D3 JUMPI POP PUSH2 0x29F0 JUMP JUMPDEST PUSH1 0x1F ADD PUSH1 0x20 SWAP1 DIV SWAP1 PUSH0 MSTORE PUSH1 0x20 PUSH0 KECCAK256 SWAP1 DUP2 ADD SWAP1 PUSH2 0x29EF SWAP2 SWAP1 PUSH2 0x292E JUMP JUMPDEST JUMPDEST POP JUMP JUMPDEST PUSH0 PUSH1 0x40 MLOAD SWAP1 POP SWAP1 JUMP JUMPDEST PUSH0 DUP1 REVERT JUMPDEST PUSH0 DUP1 REVERT JUMPDEST PUSH0 DUP2 SWAP1 POP SWAP2 SWAP1 POP JUMP JUMPDEST PUSH2 0x2A16 DUP2 PUSH2 0x2A04 JUMP JUMPDEST DUP2 EQ PUSH2 0x2A20 JUMPI PUSH0 DUP1 REVERT JUMPDEST POP JUMP JUMPDEST PUSH0 DUP2 CALLDATALOAD SWAP1 POP PUSH2 0x2A31 DUP2 PUSH2 0x2A0D JUMP JUMPDEST SWAP3 SWAP2 POP POP JUMP JUMPDEST PUSH0 PUSH20 0xFFFFFFFFFFFFFFFFFFFFFFFFFFFFFFFFFFFFFFFF DUP3 AND SWAP1 POP SWAP2 SWAP1 POP JUMP JUMPDEST PUSH0 PUSH2 0x2A60 DUP3 PUSH2 0x2A37 JUMP JUMPDEST SWAP1 POP SWAP2 SWAP1 POP JUMP JUMPDEST PUSH2 0x2A70 DUP2 PUSH2 0x2A56 JUMP JUMPDEST DUP2 EQ PUSH2 0x2A7A JUMPI PUSH0 DUP1 REVERT JUMPDEST POP JUMP JUMPDEST PUSH0 DUP2 CALLDATALOAD SWAP1 POP PUSH2 0x2A8B DUP2 PUSH2 0x2A67 JUMP JUMPDEST SWAP3 SWAP2 POP POP JUMP JUMPDEST PUSH0 DUP1 PUSH1 0x40 DUP4 DUP6 SUB SLT ISZERO PUSH2 0x2AA7 JUMPI PUSH2 0x2AA6 PUSH2 0x29FC JUMP JUMPDEST JUMPDEST PUSH0 PUSH2 0x2AB4 DUP6 DUP3 DUP7 ADD PUSH2 0x2A23 JUMP JUMPDEST SWAP3 POP POP PUSH1 0x20 PUSH2 0x2AC5 DUP6 DUP3 DUP7 ADD PUSH2 0x2A7D JUMP JUMPDEST SWAP2 POP POP SWAP3 POP SWAP3 SWAP1 POP JUMP JUMPDEST PUSH2 0x2AD8 DUP2 PUSH2 0x2A56 JUMP JUMPDEST DUP3 MSTORE POP POP JUMP JUMPDEST PUSH0 PUSH1 0x20 DUP3 ADD SWAP1 POP PUSH2 0x2AF1 PUSH0 DUP4 ADD DUP5 PUSH2 0x2ACF JUMP JUMPDEST SWAP3 SWAP2 POP POP JUMP JUMPDEST PUSH0 DUP2 MLOAD SWAP1 POP SWAP2 SWAP1 POP JUMP JUMPDEST PUSH0 DUP3 DUP3 MSTORE PUSH1 0x20 DUP3 ADD SWAP1 POP SWAP3 SWAP2 POP POP JUMP JUMPDEST PUSH0 DUP2 SWAP1 POP PUSH1 0x20 DUP3 ADD SWAP1 POP SWAP2 SWAP1 POP JUMP JUMPDEST PUSH2 0x2B29 DUP2 PUSH2 0x2A56 JUMP JUMPDEST DUP3 MSTORE POP POP JUMP JUMPDEST PUSH0 DUP2 MLOAD SWAP1 POP SWAP2 SWAP1 POP JUMP JUMPDEST PUSH0 DUP3 DUP3 MSTORE PUSH1 0x20 DUP3 ADD SWAP1 POP SWAP3 SWAP2 POP POP JUMP JUMPDEST PUSH0 DUP2 SWAP1 POP PUSH1 0x20 DUP3 ADD SWAP1 POP SWAP2 SWAP1 POP JUMP JUMPDEST PUSH2 0x2B61 DUP2 PUSH2 0x2A04 JUMP JUMPDEST DUP3 MSTORE POP POP JUMP JUMPDEST PUSH0 DUP2 MLOAD SWAP1 POP SWAP2 SWAP1 POP JUMP JUMPDEST PUSH0 DUP3 DUP3 MSTORE PUSH1 0x20 DUP3 ADD SWAP1 POP SWAP3 SWAP2 POP POP JUMP JUMPDEST PUSH0 DUP2 SWAP1 POP PUSH1 0x20 DUP3 ADD SWAP1 POP SWAP2 SWAP1 POP JUMP JUMPDEST PUSH0 PUSH2 0x2B9B DUP4 DUP4 PUSH2 0x2B58 JUMP JUMPDEST PUSH1 0x20 DUP4 ADD SWAP1 POP SWAP3 SWAP2 POP POP JUMP JUMPDEST PUSH0 PUSH1 0x20 DUP3 ADD SWAP1 POP SWAP2 SWAP1 POP JUMP JUMPDEST PUSH0 PUSH2 0x2BBD DUP3 PUSH2 0x2B67 JUMP JUMPDEST PUSH2 0x2BC7 DUP2 DUP6 PUSH2 0x2B71 JUMP JUMPDEST SWAP4 POP PUSH2 0x2BD2 DUP4 PUSH2 0x2B81 JUMP JUMPDEST DUP1 PUSH0 JUMPDEST DUP4 DUP2 LT ISZERO PUSH2 0x2C02 JUMPI DUP2 MLOAD PUSH2 0x2BE9 DUP9 DUP3 PUSH2 0x2B90 JUMP JUMPDEST SWAP8 POP PUSH2 0x2BF4 DUP4 PUSH2 0x2BA7 JUMP JUMPDEST SWAP3 POP POP PUSH1 0x1 DUP2 ADD SWAP1 POP PUSH2 0x2BD5 JUMP JUMPDEST POP DUP6 SWAP4 POP POP POP POP SWAP3 SWAP2 POP POP JUMP JUMPDEST PUSH32 0x4E487B7100000000000000000000000000000000000000000000000000000000 PUSH0 MSTORE PUSH1 0x21 PUSH1 0x4 MSTORE PUSH1 0x24 PUSH0 REVERT JUMPDEST PUSH1 0x4 DUP2 LT PUSH2 0x2C4D JUMPI PUSH2 0x2C4C PUSH2 0x2C0F JUMP JUMPDEST JUMPDEST POP JUMP JUMPDEST PUSH0 DUP2 SWAP1 POP PUSH2 0x2C5D DUP3 PUSH2 0x2C3C JUMP JUMPDEST SWAP2 SWAP1 POP JUMP JUMPDEST PUSH0 PUSH2 0x2C6C DUP3 PUSH2 0x2C50 JUMP JUMPDEST SWAP1 POP SWAP2 SWAP1 POP JUMP JUMPDEST PUSH2 0x2C7C DUP2 PUSH2 0x2C62 JUMP JUMPDEST DUP3 MSTORE POP POP JUMP JUMPDEST PUSH0 PUSH1 0xA0 DUP4 ADD PUSH0 DUP4 ADD MLOAD PUSH2 0x2C97 PUSH0 DUP7 ADD DUP3 PUSH2 0x2B20 JUMP JUMPDEST POP PUSH1 0x20 DUP4 ADD MLOAD PUSH2 0x2CAA PUSH1 0x20 DUP7 ADD DUP3 PUSH2 0x2B58 JUMP JUMPDEST POP PUSH1 0x40 DUP4 ADD MLOAD PUSH2 0x2CBD PUSH1 0x40 DUP7 ADD DUP3 PUSH2 0x2B58 JUMP JUMPDEST POP PUSH1 0x60 DUP4 ADD MLOAD DUP5 DUP3 SUB PUSH1 0x60 DUP7 ADD MSTORE PUSH2 0x2CD5 DUP3 DUP3 PUSH2 0x2BB3 JUMP JUMPDEST SWAP2 POP POP PUSH1 0x80 DUP4 ADD MLOAD PUSH2 0x2CEA PUSH1 0x80 DUP7 ADD DUP3 PUSH2 0x2C73 JUMP JUMPDEST POP DUP1 SWAP2 POP POP SWAP3 SWAP2 POP POP JUMP JUMPDEST PUSH0 PUSH2 0x2D00 DUP4 DUP4 PUSH2 0x2C82 JUMP JUMPDEST SWAP1 POP SWAP3 SWAP2 POP POP JUMP JUMPDEST PUSH0 PUSH1 0x20 DUP3 ADD SWAP1 POP SWAP2 SWAP1 POP JUMP JUMPDEST PUSH0 PUSH2 0x2D1E DUP3 PUSH2 0x2B2F JUMP JUMPDEST PUSH2 0x2D28 DUP2 DUP6 PUSH2 0x2B39 JUMP JUMPDEST SWAP4 POP DUP4 PUSH1 0x20 DUP3 MUL DUP6 ADD PUSH2 0x2D3A DUP6 PUSH2 0x2B49 JUMP JUMPDEST DUP1 PUSH0 JUMPDEST DUP6 DUP2 LT ISZERO PUSH2 0x2D75 JUMPI DUP5 DUP5 SUB DUP10 MSTORE DUP2 MLOAD PUSH2 0x2D56 DUP6 DUP3 PUSH2 0x2CF5 JUMP JUMPDEST SWAP5 POP PUSH2 0x2D61 DUP4 PUSH2 0x2D08 JUMP JUMPDEST SWAP3 POP PUSH1 0x20 DUP11 ADD SWAP10 POP POP PUSH1 0x1 DUP2 ADD SWAP1 POP PUSH2 0x2D3D JUMP JUMPDEST POP DUP3 SWAP8 POP DUP8 SWAP6 POP POP POP POP POP POP SWAP3 SWAP2 POP POP JUMP JUMPDEST PUSH0 DUP2 MLOAD SWAP1 POP SWAP2 SWAP1 POP JUMP JUMPDEST PUSH0 DUP3 DUP3 MSTORE PUSH1 0x20 DUP3 ADD SWAP1 POP SWAP3 SWAP2 POP POP JUMP JUMPDEST PUSH0 DUP2 SWAP1 POP PUSH1 0x20 DUP3 ADD SWAP1 POP SWAP2 SWAP1 POP JUMP JUMPDEST PUSH0 PUSH2 0x2DBB DUP4 DUP4 PUSH2 0x2B20 JUMP JUMPDEST PUSH1 0x20 DUP4 ADD SWAP1 POP SWAP3 SWAP2 POP POP JUMP JUMPDEST PUSH0 PUSH1 0x20 DUP3 ADD SWAP1 POP SWAP2 SWAP1 POP JUMP JUMPDEST PUSH0 PUSH2 0x2DDD DUP3 PUSH2 0x2D87 JUMP JUMPDEST PUSH2 0x2DE7 DUP2 DUP6 PUSH2 0x2D91 JUMP JUMPDEST SWAP4 POP PUSH2 0x2DF2 DUP4 PUSH2 0x2DA1 JUMP JUMPDEST DUP1 PUSH0 JUMPDEST DUP4 DUP2 LT ISZERO PUSH2 0x2E22 JUMPI DUP2 MLOAD PUSH2 0x2E09 DUP9 DUP3 PUSH2 0x2DB0 JUMP JUMPDEST SWAP8 POP PUSH2 0x2E14 DUP4 PUSH2 0x2DC7 JUMP JUMPDEST SWAP3 POP POP PUSH1 0x1 DUP2 ADD SWAP1 POP PUSH2 0x2DF5 JUMP JUMPDEST POP DUP6 SWAP4 POP POP POP POP SWAP3 SWAP2 POP POP JUMP JUMPDEST PUSH0 DUP2 MLOAD SWAP1 POP SWAP2 SWAP1 POP JUMP JUMPDEST PUSH0 DUP3 DUP3 MSTORE PUSH1 0x20 DUP3 ADD SWAP1 POP SWAP3 SWAP2 POP POP JUMP JUMPDEST PUSH0 DUP2 SWAP1 POP PUSH1 0x20 DUP3 ADD SWAP1 POP SWAP2 SWAP1 POP JUMP JUMPDEST PUSH0 DUP2 MLOAD SWAP1 POP SWAP2 SWAP1 POP JUMP JUMPDEST PUSH0 DUP3 DUP3 MSTORE PUSH1 0x20 DUP3 ADD SWAP1 POP SWAP3 SWAP2 POP POP JUMP JUMPDEST DUP3 DUP2 DUP4 MCOPY PUSH0 DUP4 DUP4 ADD MSTORE POP POP POP JUMP JUMPDEST PUSH0 PUSH1 0x1F NOT PUSH1 0x1F DUP4 ADD AND SWAP1 POP SWAP2 SWAP1 POP JUMP JUMPDEST PUSH0 PUSH2 0x2E9A DUP3 PUSH2 0x2E58 JUMP JUMPDEST PUSH2 0x2EA4 DUP2 DUP6 PUSH2 0x2E62 JUMP JUMPDEST SWAP4 POP PUSH2 0x2EB4 DUP2 DUP6 PUSH1 0x20 DUP7 ADD PUSH2 0x2E72 JUMP JUMPDEST PUSH2 0x2EBD DUP2 PUSH2 0x2E80 JUMP JUMPDEST DUP5 ADD SWAP2 POP POP SWAP3 SWAP2 POP POP JUMP JUMPDEST PUSH0 PUSH2 0x2ED3 DUP4 DUP4 PUSH2 0x2E90 JUMP JUMPDEST SWAP1 POP SWAP3 SWAP2 POP POP JUMP JUMPDEST PUSH0 PUSH1 0x20 DUP3 ADD SWAP1 POP SWAP2 SWAP1 POP JUMP JUMPDEST PUSH0 PUSH2 0x2EF1 DUP3 PUSH2 0x2E2F JUMP JUMPDEST PUSH2 0x2EFB DUP2 DUP6 PUSH2 0x2E39 JUMP JUMPDEST SWAP4 POP DUP4 PUSH1 0x20 DUP3 MUL DUP6 ADD PUSH2 0x2F0D DUP6 PUSH2 0x2E49 JUMP JUMPDEST DUP1 PUSH0 JUMPDEST DUP6 DUP2 LT ISZERO PUSH2 0x2F48 JUMPI DUP5 DUP5 SUB DUP10 MSTORE DUP2 MLOAD PUSH2 0x2F29 DUP6 DUP3 PUSH2 0x2EC8 JUMP JUMPDEST SWAP5 POP PUSH2 0x2F34 DUP4 PUSH2 0x2EDB JUMP JUMPDEST SWAP3 POP PUSH1 0x20 DUP11 ADD SWAP10 POP POP PUSH1 0x1 DUP2 ADD SWAP1 POP PUSH2 0x2F10 JUMP JUMPDEST POP DUP3 SWAP8 POP DUP8 SWAP6 POP POP POP POP POP POP SWAP3 SWAP2 POP POP JUMP JUMPDEST PUSH1 0x4 DUP2 LT PUSH2 0x2F6B JUMPI PUSH2 0x2F6A PUSH2 0x2C0F JUMP JUMPDEST JUMPDEST POP JUMP JUMPDEST PUSH0 DUP2 SWAP1 POP PUSH2 0x2F7B DUP3 PUSH2 0x2F5A JUMP JUMPDEST SWAP2 SWAP1 POP JUMP JUMPDEST PUSH0 PUSH2 0x2F8A DUP3 PUSH2 0x2F6E JUMP JUMPDEST SWAP1 POP SWAP2 SWAP1 POP JUMP JUMPDEST PUSH2 0x2F9A DUP2 PUSH2 0x2F80 JUMP JUMPDEST DUP3 MSTORE POP POP JUMP JUMPDEST PUSH0 DUP2 ISZERO ISZERO SWAP1 POP SWAP2 SWAP1 POP JUMP JUMPDEST PUSH2 0x2FB4 DUP2 PUSH2 0x2FA0 JUMP JUMPDEST DUP3 MSTORE POP POP JUMP JUMPDEST PUSH0 DUP2 MLOAD SWAP1 POP SWAP2 SWAP1 POP JUMP JUMPDEST PUSH0 DUP3 DUP3 MSTORE PUSH1 0x20 DUP3 ADD SWAP1 POP SWAP3 SWAP2 POP POP JUMP JUMPDEST PUSH0 DUP2 SWAP1 POP PUSH1 0x20 DUP3 ADD SWAP1 POP SWAP2 SWAP1 POP JUMP JUMPDEST PUSH1 0x60 DUP3 ADD PUSH0 DUP3 ADD MLOAD PUSH2 0x2FF7 PUSH0 DUP6 ADD DUP3 PUSH2 0x2B20 JUMP JUMPDEST POP PUSH1 0x20 DUP3 ADD MLOAD PUSH2 0x300A PUSH1 0x20 DUP6 ADD DUP3 PUSH2 0x2B58 JUMP JUMPDEST POP PUSH1 0x40 DUP3 ADD MLOAD PUSH2 0x301D PUSH1 0x40 DUP6 ADD DUP3 PUSH2 0x2B58 JUMP JUMPDEST POP POP POP POP JUMP JUMPDEST PUSH0 PUSH2 0x302E DUP4 DUP4 PUSH2 0x2FE3 JUMP JUMPDEST PUSH1 0x60 DUP4 ADD SWAP1 POP SWAP3 SWAP2 POP POP JUMP JUMPDEST PUSH0 PUSH1 0x20 DUP3 ADD SWAP1 POP SWAP2 SWAP1 POP JUMP JUMPDEST PUSH0 PUSH2 0x3050 DUP3 PUSH2 0x2FBA JUMP JUMPDEST PUSH2 0x305A DUP2 DUP6 PUSH2 0x2FC4 JUMP JUMPDEST SWAP4 POP PUSH2 0x3065 DUP4 PUSH2 0x2FD4 JUMP JUMPDEST DUP1 PUSH0 JUMPDEST DUP4 DUP2 LT ISZERO PUSH2 0x3095 JUMPI DUP2 MLOAD PUSH2 0x307C DUP9 DUP3 PUSH2 0x3023 JUMP JUMPDEST SWAP8 POP PUSH2 0x3087 DUP4 PUSH2 0x303A JUMP JUMPDEST SWAP3 POP POP PUSH1 0x1 DUP2 ADD SWAP1 POP PUSH2 0x3068 JUMP JUMPDEST POP DUP6 SWAP4 POP POP POP POP SWAP3 SWAP2 POP POP JUMP JUMPDEST PUSH0 PUSH2 0x120 DUP4 ADD PUSH0 DUP4 ADD MLOAD PUSH2 0x30B8 PUSH0 DUP7 ADD DUP3 PUSH2 0x2B20 JUMP JUMPDEST POP PUSH1 0x20 DUP4 ADD MLOAD DUP5 DUP3 SUB PUSH1 0x20 DUP7 ADD MSTORE PUSH2 0x30D0 DUP3 DUP3 PUSH2 0x2D14 JUMP JUMPDEST SWAP2 POP POP PUSH1 0x40 DUP4 ADD MLOAD DUP5 DUP3 SUB PUSH1 0x40 DUP7 ADD MSTORE PUSH2 0x30EA DUP3 DUP3 PUSH2 0x2DD3 JUMP JUMPDEST SWAP2 POP POP PUSH1 0x60 DUP4 ADD MLOAD DUP5 DUP3 SUB PUSH1 0x60 DUP7 ADD MSTORE PUSH2 0x3104 DUP3 DUP3 PUSH2 0x2EE7 JUMP JUMPDEST SWAP2 POP POP PUSH1 0x80 DUP4 ADD MLOAD PUSH2 0x3119 PUSH1 0x80 DUP7 ADD DUP3 PUSH2 0x2B58 JUMP JUMPDEST POP PUSH1 0xA0 DUP4 ADD MLOAD PUSH2 0x312C PUSH1 0xA0 DUP7 ADD DUP3 PUSH2 0x2B58 JUMP JUMPDEST POP PUSH1 0xC0 DUP4 ADD MLOAD PUSH2 0x313F PUSH1 0xC0 DUP7 ADD DUP3 PUSH2 0x2F91 JUMP JUMPDEST POP PUSH1 0xE0 DUP4 ADD MLOAD PUSH2 0x3152 PUSH1 0xE0 DUP7 ADD DUP3 PUSH2 0x2FAB JUMP JUMPDEST POP PUSH2 0x100 DUP4 ADD MLOAD DUP5 DUP3 SUB PUSH2 0x100 DUP7 ADD MSTORE PUSH2 0x316C DUP3 DUP3 PUSH2 0x3046 JUMP JUMPDEST SWAP2 POP POP DUP1 SWAP2 POP POP SWAP3 SWAP2 POP POP JUMP JUMPDEST PUSH0 PUSH2 0x3184 DUP4 DUP4 PUSH2 0x30A2 JUMP JUMPDEST SWAP1 POP SWAP3 SWAP2 POP POP JUMP JUMPDEST PUSH0 PUSH1 0x20 DUP3 ADD SWAP1 POP SWAP2 SWAP1 POP JUMP JUMPDEST PUSH0 PUSH2 0x31A2 DUP3 PUSH2 0x2AF7 JUMP JUMPDEST PUSH2 0x31AC DUP2 DUP6 PUSH2 0x2B01 JUMP JUMPDEST SWAP4 POP DUP4 PUSH1 0x20 DUP3 MUL DUP6 ADD PUSH2 0x31BE DUP6 PUSH2 0x2B11 JUMP JUMPDEST DUP1 PUSH0 JUMPDEST DUP6 DUP2 LT ISZERO PUSH2 0x31F9 JUMPI DUP5 DUP5 SUB DUP10 MSTORE DUP2 MLOAD PUSH2 0x31DA DUP6 DUP3 PUSH2 0x3179 JUMP JUMPDEST SWAP5 POP PUSH2 0x31E5 DUP4 PUSH2 0x318C JUMP JUMPDEST SWAP3 POP PUSH1 0x20 DUP11 ADD SWAP10 POP POP PUSH1 0x1 DUP2 ADD SWAP1 POP PUSH2 0x31C1 JUMP JUMPDEST POP DUP3 SWAP8 POP DUP8 SWAP6 POP POP POP POP POP POP SWAP3 SWAP2 POP POP JUMP JUMPDEST PUSH0 PUSH1 0x20 DUP3 ADD SWAP1 POP DUP2 DUP2 SUB PUSH0 DUP4 ADD MSTORE PUSH2 0x3223 DUP2 DUP5 PUSH2 0x3198 JUMP JUMPDEST SWAP1 POP SWAP3 SWAP2 POP POP JUMP JUMPDEST PUSH0 PUSH1 0x20 DUP3 DUP5 SUB SLT ISZERO PUSH2 0x3240 JUMPI PUSH2 0x323F PUSH2 0x29FC JUMP JUMPDEST JUMPDEST PUSH0 PUSH2 0x324D DUP5 DUP3 DUP6 ADD PUSH2 0x2A23 JUMP JUMPDEST SWAP2 POP POP SWAP3 SWAP2 POP POP JUMP JUMPDEST PUSH2 0x325F DUP2 PUSH2 0x2A04 JUMP JUMPDEST DUP3 MSTORE POP POP JUMP JUMPDEST PUSH2 0x326E DUP2 PUSH2 0x2F80 JUMP JUMPDEST DUP3 MSTORE POP POP JUMP JUMPDEST PUSH2 0x327D DUP2 PUSH2 0x2FA0 JUMP JUMPDEST DUP3 MSTORE POP POP JUMP JUMPDEST PUSH0 PUSH1 0xA0 DUP3 ADD SWAP1 POP PUSH2 0x3296 PUSH0 DUP4 ADD DUP9 PUSH2 0x2ACF JUMP JUMPDEST PUSH2 0x32A3 PUSH1 0x20 DUP4 ADD DUP8 PUSH2 0x3256 JUMP JUMPDEST PUSH2 0x32B0 PUSH1 0x40 DUP4 ADD DUP7 PUSH2 0x3256 JUMP JUMPDEST PUSH2 0x32BD PUSH1 0x60 DUP4 ADD DUP6 PUSH2 0x3265 JUMP JUMPDEST PUSH2 0x32CA PUSH1 0x80 DUP4 ADD DUP5 PUSH2 0x3274 JUMP JUMPDEST SWAP7 SWAP6 POP POP POP POP POP POP JUMP JUMPDEST PUSH0 DUP1 PUSH1 0x40 DUP4 DUP6 SUB SLT ISZERO PUSH2 0x32EA JUMPI PUSH2 0x32E9 PUSH2 0x29FC JUMP JUMPDEST JUMPDEST PUSH0 PUSH2 0x32F7 DUP6 DUP3 DUP7 ADD PUSH2 0x2A23 JUMP JUMPDEST SWAP3 POP POP PUSH1 0x20 PUSH2 0x3308 DUP6 DUP3 DUP7 ADD PUSH2 0x2A23 JUMP JUMPDEST SWAP2 POP POP SWAP3 POP SWAP3 SWAP1 POP JUMP JUMPDEST PUSH2 0x331B DUP2 PUSH2 0x2FA0 JUMP JUMPDEST DUP2 EQ PUSH2 0x3325 JUMPI PUSH0 DUP1 REVERT JUMPDEST POP JUMP JUMPDEST PUSH0 DUP2 CALLDATALOAD SWAP1 POP PUSH2 0x3336 DUP2 PUSH2 0x3312 JUMP JUMPDEST SWAP3 SWAP2 POP POP JUMP JUMPDEST PUSH0 DUP1 PUSH0 PUSH1 0x60 DUP5 DUP7 SUB SLT ISZERO PUSH2 0x3353 JUMPI PUSH2 0x3352 PUSH2 0x29FC JUMP JUMPDEST JUMPDEST PUSH0 PUSH2 0x3360 DUP7 DUP3 DUP8 ADD PUSH2 0x2A23 JUMP JUMPDEST SWAP4 POP POP PUSH1 0x20 PUSH2 0x3371 DUP7 DUP3 DUP8 ADD PUSH2 0x2A7D JUMP JUMPDEST SWAP3 POP POP PUSH1 0x40 PUSH2 0x3382 DUP7 DUP3 DUP8 ADD PUSH2 0x3328 JUMP JUMPDEST SWAP2 POP POP SWAP3 POP SWAP3 POP SWAP3 JUMP JUMPDEST PUSH0 DUP1 REVERT JUMPDEST PUSH32 0x4E487B7100000000000000000000000000000000000000000000000000000000 PUSH0 MSTORE PUSH1 0x41 PUSH1 0x4 MSTORE PUSH1 0x24 PUSH0 REVERT JUMPDEST PUSH2 0x33C6 DUP3 PUSH2 0x2E80 JUMP JUMPDEST DUP2 ADD DUP2 DUP2 LT PUSH8 0xFFFFFFFFFFFFFFFF DUP3 GT OR ISZERO PUSH2 0x33E5 JUMPI PUSH2 0x33E4 PUSH2 0x3390 JUMP JUMPDEST JUMPDEST DUP1 PUSH1 0x40 MSTORE POP POP POP JUMP JUMPDEST PUSH0 PUSH2 0x33F7 PUSH2 0x29F3 JUMP JUMPDEST SWAP1 POP PUSH2 0x3403 DUP3 DUP3 PUSH2 0x33BD JUMP JUMPDEST SWAP2 SWAP1 POP JUMP JUMPDEST PUSH0 PUSH8 0xFFFFFFFFFFFFFFFF DUP3 GT ISZERO PUSH2 0x3422 JUMPI PUSH2 0x3421 PUSH2 0x3390 JUMP JUMPDEST JUMPDEST PUSH1 0x20 DUP3 MUL SWAP1 POP PUSH1 0x20 DUP2 ADD SWAP1 POP SWAP2 SWAP1 POP JUMP JUMPDEST PUSH0 DUP1 REVERT JUMPDEST PUSH0 PUSH2 0x3449 PUSH2 0x3444 DUP5 PUSH2 0x3408 JUMP JUMPDEST PUSH2 0x33EE JUMP JUMPDEST SWAP1 POP DUP1 DUP4 DUP3 MSTORE PUSH1 0x20 DUP3 ADD SWAP1 POP PUSH1 0x20 DUP5 MUL DUP4 ADD DUP6 DUP2 GT ISZERO PUSH2 0x346C JUMPI PUSH2 0x346B PUSH2 0x3433 JUMP JUMPDEST JUMPDEST DUP4 JUMPDEST DUP2 DUP2 LT ISZERO PUSH2 0x3495 JUMPI DUP1 PUSH2 0x3481 DUP9 DUP3 PUSH2 0x2A23 JUMP JUMPDEST DUP5 MSTORE PUSH1 0x20 DUP5 ADD SWAP4 POP POP PUSH1 0x20 DUP2 ADD SWAP1 POP PUSH2 0x346E JUMP JUMPDEST POP POP POP SWAP4 SWAP3 POP POP POP JUMP JUMPDEST PUSH0 DUP3 PUSH1 0x1F DUP4 ADD SLT PUSH2 0x34B3 JUMPI PUSH2 0x34B2 PUSH2 0x338C JUMP JUMPDEST JUMPDEST DUP2 CALLDATALOAD PUSH2 0x34C3 DUP5 DUP3 PUSH1 0x20 DUP7 ADD PUSH2 0x3437 JUMP JUMPDEST SWAP2 POP POP SWAP3 SWAP2 POP POP JUMP JUMPDEST PUSH0 DUP1 PUSH0 PUSH1 0x60 DUP5 DUP7 SUB SLT ISZERO PUSH2 0x34E3 JUMPI PUSH2 0x34E2 PUSH2 0x29FC JUMP JUMPDEST JUMPDEST PUSH0 PUSH2 0x34F0 DUP7 DUP3 DUP8 ADD PUSH2 0x2A23 JUMP JUMPDEST SWAP4 POP POP PUSH1 0x20 PUSH2 0x3501 DUP7 DUP3 DUP8 ADD PUSH2 0x2A7D JUMP JUMPDEST SWAP3 POP POP PUSH1 0x40 DUP5 ADD CALLDATALOAD PUSH8 0xFFFFFFFFFFFFFFFF DUP2 GT ISZERO PUSH2 0x3522 JUMPI PUSH2 0x3521 PUSH2 0x2A00 JUMP JUMPDEST JUMPDEST PUSH2 0x352E DUP7 DUP3 DUP8 ADD PUSH2 0x349F JUMP JUMPDEST SWAP2 POP POP SWAP3 POP SWAP3 POP SWAP3 JUMP JUMPDEST PUSH0 DUP1 PUSH0 PUSH1 0x60 DUP5 DUP7 SUB SLT ISZERO PUSH2 0x354F JUMPI PUSH2 0x354E PUSH2 0x29FC JUMP JUMPDEST JUMPDEST PUSH0 PUSH2 0x355C DUP7 DUP3 DUP8 ADD PUSH2 0x2A23 JUMP JUMPDEST SWAP4 POP POP PUSH1 0x20 PUSH2 0x356D DUP7 DUP3 DUP8 ADD PUSH2 0x2A23 JUMP JUMPDEST SWAP3 POP POP PUSH1 0x40 PUSH2 0x357E DUP7 DUP3 DUP8 ADD PUSH2 0x2A23 JUMP JUMPDEST SWAP2 POP POP SWAP3 POP SWAP3 POP SWAP3 JUMP JUMPDEST PUSH0 PUSH1 0x20 DUP3 ADD SWAP1 POP PUSH2 0x359B PUSH0 DUP4 ADD DUP5 PUSH2 0x3256 JUMP JUMPDEST SWAP3 SWAP2 POP POP JUMP JUMPDEST PUSH0 DUP3 DUP3 MSTORE PUSH1 0x20 DUP3 ADD SWAP1 POP SWAP3 SWAP2 POP POP JUMP JUMPDEST PUSH0 PUSH2 0x35BB DUP3 PUSH2 0x2E2F JUMP JUMPDEST PUSH2 0x35C5 DUP2 DUP6 PUSH2 0x35A1 JUMP JUMPDEST SWAP4 POP DUP4 PUSH1 0x20 DUP3 MUL DUP6 ADD PUSH2 0x35D7 DUP6 PUSH2 0x2E49 JUMP JUMPDEST DUP1 PUSH0 JUMPDEST DUP6 DUP2 LT ISZERO PUSH2 0x3612 JUMPI DUP5 DUP5 SUB DUP10 MSTORE DUP2 MLOAD PUSH2 0x35F3 DUP6 DUP3 PUSH2 0x2EC8 JUMP JUMPDEST SWAP5 POP PUSH2 0x35FE DUP4 PUSH2 0x2EDB JUMP JUMPDEST SWAP3 POP PUSH1 0x20 DUP11 ADD SWAP10 POP POP PUSH1 0x1 DUP2 ADD SWAP1 POP PUSH2 0x35DA JUMP JUMPDEST POP DUP3 SWAP8 POP DUP8 SWAP6 POP POP POP POP POP POP SWAP3 SWAP2 POP POP JUMP JUMPDEST PUSH0 PUSH1 0x20 DUP3 ADD SWAP1 POP DUP2 DUP2 SUB PUSH0 DUP4 ADD MSTORE PUSH2 0x363C DUP2 DUP5 PUSH2 0x35B1 JUMP JUMPDEST SWAP1 POP SWAP3 SWAP2 POP POP JUMP JUMPDEST PUSH0 DUP3 DUP3 MSTORE PUSH1 0x20 DUP3 ADD SWAP1 POP SWAP3 SWAP2 POP POP JUMP JUMPDEST PUSH0 PUSH2 0x365E DUP3 PUSH2 0x2FBA JUMP JUMPDEST PUSH2 0x3668 DUP2 DUP6 PUSH2 0x3644 JUMP JUMPDEST SWAP4 POP PUSH2 0x3673 DUP4 PUSH2 0x2FD4 JUMP JUMPDEST DUP1 PUSH0 JUMPDEST DUP4 DUP2 LT ISZERO PUSH2 0x36A3 JUMPI DUP2 MLOAD PUSH2 0x368A DUP9 DUP3 PUSH2 0x3023 JUMP JUMPDEST SWAP8 POP PUSH2 0x3695 DUP4 PUSH2 0x303A JUMP JUMPDEST SWAP3 POP POP PUSH1 0x1 DUP2 ADD SWAP1 POP PUSH2 0x3676 JUMP JUMPDEST POP DUP6 SWAP4 POP POP POP POP SWAP3 SWAP2 POP POP JUMP JUMPDEST PUSH0 PUSH1 0x20 DUP3 ADD SWAP1 POP DUP2 DUP2 SUB PUSH0 DUP4 ADD MSTORE PUSH2 0x36C8 DUP2 DUP5 PUSH2 0x3654 JUMP JUMPDEST SWAP1 POP SWAP3 SWAP2 POP POP JUMP JUMPDEST PUSH0 PUSH8 0xFFFFFFFFFFFFFFFF DUP3 GT ISZERO PUSH2 0x36EA JUMPI PUSH2 0x36E9 PUSH2 0x3390 JUMP JUMPDEST JUMPDEST PUSH1 0x20 DUP3 MUL SWAP1 POP PUSH1 0x20 DUP2 ADD SWAP1 POP SWAP2 SWAP1 POP JUMP JUMPDEST PUSH0 DUP1 REVERT JUMPDEST PUSH0 PUSH8 0xFFFFFFFFFFFFFFFF DUP3 GT ISZERO PUSH2 0x3719 JUMPI PUSH2 0x3718 PUSH2 0x3390 JUMP JUMPDEST JUMPDEST PUSH2 0x3722 DUP3 PUSH2 0x2E80 JUMP JUMPDEST SWAP1 POP PUSH1 0x20 DUP2 ADD SWAP1 POP SWAP2 SWAP1 POP JUMP JUMPDEST DUP3 DUP2 DUP4 CALLDATACOPY PUSH0 DUP4 DUP4 ADD MSTORE POP POP POP JUMP JUMPDEST PUSH0 PUSH2 0x374F PUSH2 0x374A DUP5 PUSH2 0x36FF JUMP JUMPDEST PUSH2 0x33EE JUMP JUMPDEST SWAP1 POP DUP3 DUP2 MSTORE PUSH1 0x20 DUP2 ADD DUP5 DUP5 DUP5 ADD GT ISZERO PUSH2 0x376B JUMPI PUSH2 0x376A PUSH2 0x36FB JUMP JUMPDEST JUMPDEST PUSH2 0x3776 DUP5 DUP3 DUP6 PUSH2 0x372F JUMP JUMPDEST POP SWAP4 SWAP3 POP POP POP JUMP JUMPDEST PUSH0 DUP3 PUSH1 0x1F DUP4 ADD SLT PUSH2 0x3792 JUMPI PUSH2 0x3791 PUSH2 0x338C JUMP JUMPDEST JUMPDEST DUP2 CALLDATALOAD PUSH2 0x37A2 DUP5 DUP3 PUSH1 0x20 DUP7 ADD PUSH2 0x373D JUMP JUMPDEST SWAP2 POP POP SWAP3 SWAP2 POP POP JUMP JUMPDEST PUSH0 PUSH2 0x37BD PUSH2 0x37B8 DUP5 PUSH2 0x36D0 JUMP JUMPDEST PUSH2 0x33EE JUMP JUMPDEST SWAP1 POP DUP1 DUP4 DUP3 MSTORE PUSH1 0x20 DUP3 ADD SWAP1 POP PUSH1 0x20 DUP5 MUL DUP4 ADD DUP6 DUP2 GT ISZERO PUSH2 0x37E0 JUMPI PUSH2 0x37DF PUSH2 0x3433 JUMP JUMPDEST JUMPDEST DUP4 JUMPDEST DUP2 DUP2 LT ISZERO PUSH2 0x3827 JUMPI DUP1 CALLDATALOAD PUSH8 0xFFFFFFFFFFFFFFFF DUP2 GT ISZERO PUSH2 0x3805 JUMPI PUSH2 0x3804 PUSH2 0x338C JUMP JUMPDEST JUMPDEST DUP1 DUP7 ADD PUSH2 0x3812 DUP10 DUP3 PUSH2 0x377E JUMP JUMPDEST DUP6 MSTORE PUSH1 0x20 DUP6 ADD SWAP5 POP POP POP PUSH1 0x20 DUP2 ADD SWAP1 POP PUSH2 0x37E2 JUMP JUMPDEST POP POP POP SWAP4 SWAP3 POP POP POP JUMP JUMPDEST PUSH0 DUP3 PUSH1 0x1F DUP4 ADD SLT PUSH2 0x3845 JUMPI PUSH2 0x3844 PUSH2 0x338C JUMP JUMPDEST JUMPDEST DUP2 CALLDATALOAD PUSH2 0x3855 DUP5 DUP3 PUSH1 0x20 DUP7 ADD PUSH2 0x37AB JUMP JUMPDEST SWAP2 POP POP SWAP3 SWAP2 POP POP JUMP JUMPDEST PUSH0 DUP1 PUSH0 DUP1 PUSH1 0x80 DUP6 DUP8 SUB SLT ISZERO PUSH2 0x3876 JUMPI PUSH2 0x3875 PUSH2 0x29FC JUMP JUMPDEST JUMPDEST PUSH0 DUP6 ADD CALLDATALOAD PUSH8 0xFFFFFFFFFFFFFFFF DUP2 GT ISZERO PUSH2 0x3893 JUMPI PUSH2 0x3892 PUSH2 0x2A00 JUMP JUMPDEST JUMPDEST PUSH2 0x389F DUP8 DUP3 DUP9 ADD PUSH2 0x3831 JUMP JUMPDEST SWAP5 POP POP PUSH1 0x20 PUSH2 0x38B0 DUP8 DUP3 DUP9 ADD PUSH2 0x2A23 JUMP JUMPDEST SWAP4 POP POP PUSH1 0x40 PUSH2 0x38C1 DUP8 DUP3 DUP9 ADD PUSH2 0x2A23 JUMP JUMPDEST SWAP3 POP POP PUSH1 0x60 PUSH2 0x38D2 DUP8 DUP3 DUP9 ADD PUSH2 0x3328 JUMP JUMPDEST SWAP2 POP POP SWAP3 SWAP6 SWAP2 SWAP5 POP SWAP3 POP JUMP JUMPDEST PUSH0 DUP3 DUP3 MSTORE PUSH1 0x20 DUP3 ADD SWAP1 POP SWAP3 SWAP2 POP POP JUMP JUMPDEST PUSH32 0x4F6E6C792062757965722063616E2063616C6C20746869732066756E6374696F PUSH0 DUP3 ADD MSTORE PUSH32 0x6E00000000000000000000000000000000000000000000000000000000000000 PUSH1 0x20 DUP3 ADD MSTORE POP JUMP JUMPDEST PUSH0 PUSH2 0x3948 PUSH1 0x21 DUP4 PUSH2 0x38DE JUMP JUMPDEST SWAP2 POP PUSH2 0x3953 DUP3 PUSH2 0x38EE JUMP JUMPDEST PUSH1 0x40 DUP3 ADD SWAP1 POP SWAP2 SWAP1 POP JUMP JUMPDEST PUSH0 PUSH1 0x20 DUP3 ADD SWAP1 POP DUP2 DUP2 SUB PUSH0 DUP4 ADD MSTORE PUSH2 0x3975 DUP2 PUSH2 0x393C JUMP JUMPDEST SWAP1 POP SWAP2 SWAP1 POP JUMP JUMPDEST PUSH32 0x54686520626964206973206E6F7420617661696C61626C650000000000000000 PUSH0 DUP3 ADD MSTORE POP JUMP JUMPDEST PUSH0 PUSH2 0x39B0 PUSH1 0x18 DUP4 PUSH2 0x38DE JUMP JUMPDEST SWAP2 POP PUSH2 0x39BB DUP3 PUSH2 0x397C JUMP JUMPDEST PUSH1 0x20 DUP3 ADD SWAP1 POP SWAP2 SWAP1 POP JUMP JUMPDEST PUSH0 PUSH1 0x20 DUP3 ADD SWAP1 POP DUP2 DUP2 SUB PUSH0 DUP4 ADD MSTORE PUSH2 0x39DD DUP2 PUSH2 0x39A4 JUMP JUMPDEST SWAP1 POP SWAP2 SWAP1 POP JUMP JUMPDEST PUSH32 0x4E487B7100000000000000000000000000000000000000000000000000000000 PUSH0 MSTORE PUSH1 0x32 PUSH1 0x4 MSTORE PUSH1 0x24 PUSH0 REVERT JUMPDEST PUSH32 0x4E487B7100000000000000000000000000000000000000000000000000000000 PUSH0 MSTORE PUSH1 0x11 PUSH1 0x4 MSTORE PUSH1 0x24 PUSH0 REVERT JUMPDEST PUSH0 PUSH2 0x3A48 DUP3 PUSH2 0x2A04 JUMP JUMPDEST SWAP2 POP PUSH2 0x3A53 DUP4 PUSH2 0x2A04 JUMP JUMPDEST SWAP3 POP DUP3 DUP3 MUL PUSH2 0x3A61 DUP2 PUSH2 0x2A04 JUMP JUMPDEST SWAP2 POP DUP3 DUP3 DIV DUP5 EQ DUP4 ISZERO OR PUSH2 0x3A78 JUMPI PUSH2 0x3A77 PUSH2 0x3A11 JUMP JUMPDEST JUMPDEST POP SWAP3 SWAP2 POP POP JUMP JUMPDEST PUSH32 0x546865207072696365206973206E6F742073616D65206173206E65676F746961 PUSH0 DUP3 ADD MSTORE PUSH32 0x74696F6E00000000000000000000000000000000000000000000000000000000 PUSH1 0x20 DUP3 ADD MSTORE POP JUMP JUMPDEST PUSH0 PUSH2 0x3AD9 PUSH1 0x24 DUP4 PUSH2 0x38DE JUMP JUMPDEST SWAP2 POP PUSH2 0x3AE4 DUP3 PUSH2 0x3A7F JUMP JUMPDEST PUSH1 0x40 DUP3 ADD SWAP1 POP SWAP2 SWAP1 POP JUMP JUMPDEST PUSH0 PUSH1 0x20 DUP3 ADD SWAP1 POP DUP2 DUP2 SUB PUSH0 DUP4 ADD MSTORE PUSH2 0x3B06 DUP2 PUSH2 0x3ACD JUMP JUMPDEST SWAP1 POP SWAP2 SWAP1 POP JUMP JUMPDEST PUSH32 0x4E6F74207468652073616D65206661726D657200000000000000000000000000 PUSH0 DUP3 ADD MSTORE POP JUMP JUMPDEST PUSH0 PUSH2 0x3B41 PUSH1 0x13 DUP4 PUSH2 0x38DE JUMP JUMPDEST SWAP2 POP PUSH2 0x3B4C DUP3 PUSH2 0x3B0D JUMP JUMPDEST PUSH1 0x20 DUP3 ADD SWAP1 POP SWAP2 SWAP1 POP JUMP JUMPDEST PUSH0 PUSH1 0x20 DUP3 ADD SWAP1 POP DUP2 DUP2 SUB PUSH0 DUP4 ADD MSTORE PUSH2 0x3B6E DUP2 PUSH2 0x3B35 JUMP JUMPDEST SWAP1 POP SWAP2 SWAP1 POP JUMP JUMPDEST PUSH32 0x436F6E7472616374206973206E6F7420617661696C61626C6520666F72206E65 PUSH0 DUP3 ADD MSTORE PUSH32 0x676F74696174696F6E0000000000000000000000000000000000000000000000 PUSH1 0x20 DUP3 ADD MSTORE POP JUMP JUMPDEST PUSH0 PUSH2 0x3BCF PUSH1 0x29 DUP4 PUSH2 0x38DE JUMP JUMPDEST SWAP2 POP PUSH2 0x3BDA DUP3 PUSH2 0x3B75 JUMP JUMPDEST PUSH1 0x40 DUP3 ADD SWAP1 POP SWAP2 SWAP1 POP JUMP JUMPDEST PUSH0 PUSH1 0x20 DUP3 ADD SWAP1 POP DUP2 DUP2 SUB PUSH0 DUP4 ADD MSTORE PUSH2 0x3BFC DUP2 PUSH2 0x3BC3 JUMP JUMPDEST SWAP1 POP SWAP2 SWAP1 POP JUMP JUMPDEST PUSH0 PUSH2 0x3C0D DUP3 PUSH2 0x2A04 JUMP JUMPDEST SWAP2 POP PUSH2 0x3C18 DUP4 PUSH2 0x2A04 JUMP JUMPDEST SWAP3 POP DUP3 DUP3 SUB SWAP1 POP DUP2 DUP2 GT ISZERO PUSH2 0x3C30 JUMPI PUSH2 0x3C2F PUSH2 0x3A11 JUMP JUMPDEST JUMPDEST SWAP3 SWAP2 POP POP JUMP JUMPDEST PUSH32 0x5175616E746974792067726561746572207468616E2072657175697265640000 PUSH0 DUP3 ADD MSTORE POP JUMP JUMPDEST PUSH0 PUSH2 0x3C6A PUSH1 0x1E DUP4 PUSH2 0x38DE JUMP JUMPDEST SWAP2 POP PUSH2 0x3C75 DUP3 PUSH2 0x3C36 JUMP JUMPDEST PUSH1 0x20 DUP3 ADD SWAP1 POP SWAP2 SWAP1 POP JUMP JUMPDEST PUSH0 PUSH1 0x20 DUP3 ADD SWAP1 POP DUP2 DUP2 SUB PUSH0 DUP4 ADD MSTORE PUSH2 0x3C97 DUP2 PUSH2 0x3C5E JUMP JUMPDEST SWAP1 POP SWAP2 SWAP1 POP JUMP JUMPDEST PUSH0 PUSH1 0x80 DUP3 ADD SWAP1 POP PUSH2 0x3CB1 PUSH0 DUP4 ADD DUP8 PUSH2 0x3256 JUMP JUMPDEST PUSH2 0x3CBE PUSH1 0x20 DUP4 ADD DUP7 PUSH2 0x2ACF JUMP JUMPDEST PUSH2 0x3CCB PUSH1 0x40 DUP4 ADD DUP6 PUSH2 0x3256 JUMP JUMPDEST PUSH2 0x3CD8 PUSH1 0x60 DUP4 ADD DUP5 PUSH2 0x3256 JUMP JUMPDEST SWAP6 SWAP5 POP POP POP POP POP JUMP JUMPDEST PUSH32 0x4E487B7100000000000000000000000000000000000000000000000000000000 PUSH0 MSTORE PUSH1 0x22 PUSH1 0x4 MSTORE PUSH1 0x24 PUSH0 REVERT JUMPDEST PUSH0 PUSH1 0x2 DUP3 DIV SWAP1 POP PUSH1 0x1 DUP3 AND DUP1 PUSH2 0x3D25 JUMPI PUSH1 0x7F DUP3 AND SWAP2 POP JUMPDEST PUSH1 0x20 DUP3 LT DUP2 SUB PUSH2 0x3D38 JUMPI PUSH2 0x3D37 PUSH2 0x3CE1 JUMP JUMPDEST JUMPDEST POP SWAP2 SWAP1 POP JUMP JUMPDEST PUSH32 0x546865206661726D6572206973206E6F7420617661696C61626C650000000000 PUSH0 DUP3 ADD MSTORE POP JUMP JUMPDEST PUSH0 PUSH2 0x3D72 PUSH1 0x1B DUP4 PUSH2 0x38DE JUMP JUMPDEST SWAP2 POP PUSH2 0x3D7D DUP3 PUSH2 0x3D3E JUMP JUMPDEST PUSH1 0x20 DUP3 ADD SWAP1 POP SWAP2 SWAP1 POP JUMP JUMPDEST PUSH0 PUSH1 0x20 DUP3 ADD SWAP1 POP DUP2 DUP2 SUB PUSH0 DUP4 ADD MSTORE PUSH2 0x3D9F DUP2 PUSH2 0x3D66 JUMP JUMPDEST SWAP1 POP SWAP2 SWAP1 POP JUMP JUMPDEST PUSH32 0x4661726D657220636F6E7472616374206973206E6F7420696E20616363657074 PUSH0 DUP3 ADD MSTORE PUSH32 0x6564207374617465000000000000000000000000000000000000000000000000 PUSH1 0x20 DUP3 ADD MSTORE POP JUMP JUMPDEST PUSH0 PUSH2 0x3E00 PUSH1 0x28 DUP4 PUSH2 0x38DE JUMP JUMPDEST SWAP2 POP PUSH2 0x3E0B DUP3 PUSH2 0x3DA6 JUMP JUMPDEST PUSH1 0x40 DUP3 ADD SWAP1 POP SWAP2 SWAP1 POP JUMP JUMPDEST PUSH0 PUSH1 0x20 DUP3 ADD SWAP1 POP DUP2 DUP2 SUB PUSH0 DUP4 ADD MSTORE PUSH2 0x3E2D DUP2 PUSH2 0x3DF4 JUMP JUMPDEST SWAP1 POP SWAP2 SWAP1 POP JUMP JUMPDEST PUSH0 DUP2 SWAP1 POP SWAP3 SWAP2 POP POP JUMP JUMPDEST POP JUMP JUMPDEST PUSH0 PUSH2 0x3E4C PUSH0 DUP4 PUSH2 0x3E34 JUMP JUMPDEST SWAP2 POP PUSH2 0x3E57 DUP3 PUSH2 0x3E3E JUMP JUMPDEST PUSH0 DUP3 ADD SWAP1 POP SWAP2 SWAP1 POP JUMP JUMPDEST PUSH0 PUSH2 0x3E6B DUP3 PUSH2 0x3E41 JUMP JUMPDEST SWAP2 POP DUP2 SWAP1 POP SWAP2 SWAP1 POP JUMP JUMPDEST PUSH32 0x5061796D656E74206661696C65642E0000000000000000000000000000000000 PUSH0 DUP3 ADD MSTORE POP JUMP JUMPDEST PUSH0 PUSH2 0x3EA9 PUSH1 0xF DUP4 PUSH2 0x38DE JUMP JUMPDEST SWAP2 POP PUSH2 0x3EB4 DUP3 PUSH2 0x3E75 JUMP JUMPDEST PUSH1 0x20 DUP3 ADD SWAP1 POP SWAP2 SWAP1 POP JUMP JUMPDEST PUSH0 PUSH1 0x20 DUP3 ADD SWAP1 POP DUP2 DUP2 SUB PUSH0 DUP4 ADD MSTORE PUSH2 0x3ED6 DUP2 PUSH2 0x3E9D JUMP JUMPDEST SWAP1 POP SWAP2 SWAP1 POP JUMP JUMPDEST PUSH0 PUSH1 0x40 DUP3 ADD SWAP1 POP PUSH2 0x3EF0 PUSH0 DUP4 ADD DUP6 PUSH2 0x3256 JUMP JUMPDEST PUSH2 0x3EFD PUSH1 0x20 DUP4 ADD DUP5 PUSH2 0x2ACF JUMP JUMPDEST SWAP4 SWAP3 POP POP POP JUMP JUMPDEST PUSH32 0x436F6E7472616374206973206E6F7420617661696C61626C6520666F72206163 PUSH0 DUP3 ADD MSTORE PUSH32 0x63657074616E6365000000000000000000000000000000000000000000000000 PUSH1 0x20 DUP3 ADD MSTORE POP JUMP JUMPDEST PUSH0 PUSH2 0x3F5E PUSH1 0x28 DUP4 PUSH2 0x38DE JUMP JUMPDEST SWAP2 POP PUSH2 0x3F69 DUP3 PUSH2 0x3F04 JUMP JUMPDEST PUSH1 0x40 DUP3 ADD SWAP1 POP SWAP2 SWAP1 POP JUMP JUMPDEST PUSH0 PUSH1 0x20 DUP3 ADD SWAP1 POP DUP2 DUP2 SUB PUSH0 DUP4 ADD MSTORE PUSH2 0x3F8B DUP2 PUSH2 0x3F52 JUMP JUMPDEST SWAP1 POP SWAP2 SWAP1 POP JUMP JUMPDEST PUSH32 0x506C6561736520706C6163652061206269642E20436F6E74726163742063616E PUSH0 DUP3 ADD MSTORE PUSH32 0x6E6F74206265206163636570746564206469726563746C790000000000000000 PUSH1 0x20 DUP3 ADD MSTORE POP JUMP JUMPDEST PUSH0 PUSH2 0x3FEC PUSH1 0x38 DUP4 PUSH2 0x38DE JUMP JUMPDEST SWAP2 POP PUSH2 0x3FF7 DUP3 PUSH2 0x3F92 JUMP JUMPDEST PUSH1 0x40 DUP3 ADD SWAP1 POP SWAP2 SWAP1 POP JUMP JUMPDEST PUSH0 PUSH1 0x20 DUP3 ADD SWAP1 POP DUP2 DUP2 SUB PUSH0 DUP4 ADD MSTORE PUSH2 0x4019 DUP2 PUSH2 0x3FE0 JUMP JUMPDEST SWAP1 POP SWAP2 SWAP1 POP JUMP JUMPDEST PUSH32 0x546865207175616E74697479206D75737420626520657175616C20746F206F72 PUSH0 DUP3 ADD MSTORE PUSH32 0x206C657373207468616E207265717569726564207175616E7469747900000000 PUSH1 0x20 DUP3 ADD MSTORE POP JUMP JUMPDEST PUSH0 PUSH2 0x407A PUSH1 0x3C DUP4 PUSH2 0x38DE JUMP JUMPDEST SWAP2 POP PUSH2 0x4085 DUP3 PUSH2 0x4020 JUMP JUMPDEST PUSH1 0x40 DUP3 ADD SWAP1 POP SWAP2 SWAP1 POP JUMP JUMPDEST PUSH0 PUSH1 0x20 DUP3 ADD SWAP1 POP DUP2 DUP2 SUB PUSH0 DUP4 ADD MSTORE PUSH2 0x40A7 DUP2 PUSH2 0x406E JUMP JUMPDEST SWAP1 POP SWAP2 SWAP1 POP JUMP JUMPDEST PUSH32 0x4F6E6C7920676F7665726E6D656E742063616E2063616C6C2074686973206675 PUSH0 DUP3 ADD MSTORE PUSH32 0x6E6374696F6E0000000000000000000000000000000000000000000000000000 PUSH1 0x20 DUP3 ADD MSTORE POP JUMP JUMPDEST PUSH0 PUSH2 0x4108 PUSH1 0x26 DUP4 PUSH2 0x38DE JUMP JUMPDEST SWAP2 POP PUSH2 0x4113 DUP3 PUSH2 0x40AE JUMP JUMPDEST PUSH1 0x40 DUP3 ADD SWAP1 POP SWAP2 SWAP1 POP JUMP JUMPDEST PUSH0 PUSH1 0x20 DUP3 ADD SWAP1 POP DUP2 DUP2 SUB PUSH0 DUP4 ADD MSTORE PUSH2 0x4135 DUP2 PUSH2 0x40FC JUMP JUMPDEST SWAP1 POP SWAP2 SWAP1 POP JUMP JUMPDEST PUSH32 0x436F6E7472616374206973206E6F7420696E2064697370757465642073746174 PUSH0 DUP3 ADD MSTORE PUSH32 0x6500000000000000000000000000000000000000000000000000000000000000 PUSH1 0x20 DUP3 ADD MSTORE POP JUMP JUMPDEST PUSH0 PUSH2 0x4196 PUSH1 0x21 DUP4 PUSH2 0x38DE JUMP JUMPDEST SWAP2 POP PUSH2 0x41A1 DUP3 PUSH2 0x413C JUMP JUMPDEST PUSH1 0x40 DUP3 ADD SWAP1 POP SWAP2 SWAP1 POP JUMP JUMPDEST PUSH0 PUSH1 0x20 DUP3 ADD SWAP1 POP DUP2 DUP2 SUB PUSH0 DUP4 ADD MSTORE PUSH2 0x41C3 DUP2 PUSH2 0x418A JUMP JUMPDEST SWAP1 POP SWAP2 SWAP1 POP JUMP JUMPDEST PUSH32 0x546865206661726D6572206973206E6F7420696E206469737075746500000000 PUSH0 DUP3 ADD MSTORE POP JUMP JUMPDEST PUSH0 PUSH2 0x41FE PUSH1 0x1C DUP4 PUSH2 0x38DE JUMP JUMPDEST SWAP2 POP PUSH2 0x4209 DUP3 PUSH2 0x41CA JUMP JUMPDEST PUSH1 0x20 DUP3 ADD SWAP1 POP SWAP2 SWAP1 POP JUMP JUMPDEST PUSH0 PUSH1 0x20 DUP3 ADD SWAP1 POP DUP2 DUP2 SUB PUSH0 DUP4 ADD MSTORE PUSH2 0x422B DUP2 PUSH2 0x41F2 JUMP JUMPDEST SWAP1 POP SWAP2 SWAP1 POP JUMP JUMPDEST PUSH0 PUSH1 0x60 DUP3 ADD SWAP1 POP PUSH2 0x4245 PUSH0 DUP4 ADD DUP7 PUSH2 0x3256 JUMP JUMPDEST PUSH2 0x4252 PUSH1 0x20 DUP4 ADD DUP6 PUSH2 0x2ACF JUMP JUMPDEST PUSH2 0x425F PUSH1 0x40 DUP4 ADD DUP5 PUSH2 0x3274 JUMP JUMPDEST SWAP5 SWAP4 POP POP POP POP JUMP JUMPDEST PUSH0 PUSH2 0x4271 DUP3 PUSH2 0x2A04 JUMP JUMPDEST SWAP2 POP PUSH2 0x427C DUP4 PUSH2 0x2A04 JUMP JUMPDEST SWAP3 POP DUP3 DUP3 ADD SWAP1 POP DUP1 DUP3 GT ISZERO PUSH2 0x4294 JUMPI PUSH2 0x4293 PUSH2 0x3A11 JUMP JUMPDEST JUMPDEST SWAP3 SWAP2 POP POP JUMP JUMPDEST PUSH32 0x436F6E7472616374206973206E6F7420696E2061636365707465642073746174 PUSH0 DUP3 ADD MSTORE PUSH32 0x6500000000000000000000000000000000000000000000000000000000000000 PUSH1 0x20 DUP3 ADD MSTORE POP JUMP JUMPDEST PUSH0 PUSH2 0x42F4 PUSH1 0x21 DUP4 PUSH2 0x38DE JUMP JUMPDEST SWAP2 POP PUSH2 0x42FF DUP3 PUSH2 0x429A JUMP JUMPDEST PUSH1 0x40 DUP3 ADD SWAP1 POP SWAP2 SWAP1 POP JUMP JUMPDEST PUSH0 PUSH1 0x20 DUP3 ADD SWAP1 POP DUP2 DUP2 SUB PUSH0 DUP4 ADD MSTORE PUSH2 0x4321 DUP2 PUSH2 0x42E8 JUMP JUMPDEST SWAP1 POP SWAP2 SWAP1 POP JUMP JUMPDEST PUSH0 DUP3 DUP3 MSTORE PUSH1 0x20 DUP3 ADD SWAP1 POP SWAP3 SWAP2 POP POP JUMP JUMPDEST PUSH0 PUSH2 0x4342 DUP3 PUSH2 0x2B67 JUMP JUMPDEST PUSH2 0x434C DUP2 DUP6 PUSH2 0x4328 JUMP JUMPDEST SWAP4 POP PUSH2 0x4357 DUP4 PUSH2 0x2B81 JUMP JUMPDEST DUP1 PUSH0 JUMPDEST DUP4 DUP2 LT ISZERO PUSH2 0x4387 JUMPI DUP2 MLOAD PUSH2 0x436E DUP9 DUP3 PUSH2 0x2B90 JUMP JUMPDEST SWAP8 POP PUSH2 0x4379 DUP4 PUSH2 0x2BA7 JUMP JUMPDEST SWAP3 POP POP PUSH1 0x1 DUP2 ADD SWAP1 POP PUSH2 0x435A JUMP JUMPDEST POP DUP6 SWAP4 POP POP POP POP SWAP3 SWAP2 POP POP JUMP JUMPDEST PUSH0 PUSH1 0x60 DUP3 ADD SWAP1 POP PUSH2 0x43A7 PUSH0 DUP4 ADD DUP7 PUSH2 0x3256 JUMP JUMPDEST PUSH2 0x43B4 PUSH1 0x20 DUP4 ADD DUP6 PUSH2 0x2ACF JUMP JUMPDEST DUP2 DUP2 SUB PUSH1 0x40 DUP4 ADD MSTORE PUSH2 0x43C6 DUP2 DUP5 PUSH2 0x4338 JUMP JUMPDEST SWAP1 POP SWAP5 SWAP4 POP POP POP POP JUMP JUMPDEST PUSH32 0x54686520636F6E7472616374206973206E6F7420617661696C61626C6520666F PUSH0 DUP3 ADD MSTORE PUSH32 0x72206E65676F74696174696F6E00000000000000000000000000000000000000 PUSH1 0x20 DUP3 ADD MSTORE POP JUMP JUMPDEST PUSH0 PUSH2 0x442A PUSH1 0x2D DUP4 PUSH2 0x38DE JUMP JUMPDEST SWAP2 POP PUSH2 0x4435 DUP3 PUSH2 0x43D0 JUMP JUMPDEST PUSH1 0x40 DUP3 ADD SWAP1 POP SWAP2 SWAP1 POP JUMP JUMPDEST PUSH0 PUSH1 0x20 DUP3 ADD SWAP1 POP DUP2 DUP2 SUB PUSH0 DUP4 ADD MSTORE PUSH2 0x4457 DUP2 PUSH2 0x441E JUMP JUMPDEST SWAP1 POP SWAP2 SWAP1 POP JUMP JUMPDEST PUSH0 DUP2 SWAP1 POP DUP2 PUSH0 MSTORE PUSH1 0x20 PUSH0 KECCAK256 SWAP1 POP SWAP2 SWAP1 POP JUMP JUMPDEST PUSH0 PUSH1 0x20 PUSH1 0x1F DUP4 ADD DIV SWAP1 POP SWAP2 SWAP1 POP JUMP JUMPDEST PUSH0 DUP3 DUP3 SHL SWAP1 POP SWAP3 SWAP2 POP POP JUMP JUMPDEST PUSH0 PUSH1 0x8 DUP4 MUL PUSH2 0x44BA PUSH32 0xFFFFFFFFFFFFFFFFFFFFFFFFFFFFFFFFFFFFFFFFFFFFFFFFFFFFFFFFFFFFFFFF DUP3 PUSH2 0x447F JUMP JUMPDEST PUSH2 0x44C4 DUP7 DUP4 PUSH2 0x447F JUMP JUMPDEST SWAP6 POP DUP1 NOT DUP5 AND SWAP4 POP DUP1 DUP7 AND DUP5 OR SWAP3 POP POP POP SWAP4 SWAP3 POP POP POP JUMP JUMPDEST PUSH0 DUP2 SWAP1 POP SWAP2 SWAP1 POP JUMP JUMPDEST PUSH0 PUSH2 0x44FF PUSH2 0x44FA PUSH2 0x44F5 DUP5 PUSH2 0x2A04 JUMP JUMPDEST PUSH2 0x44DC JUMP JUMPDEST PUSH2 0x2A04 JUMP JUMPDEST SWAP1 POP SWAP2 SWAP1 POP JUMP JUMPDEST PUSH0 DUP2 SWAP1 POP SWAP2 SWAP1 POP JUMP JUMPDEST PUSH2 0x4518 DUP4 PUSH2 0x44E5 JUMP JUMPDEST PUSH2 0x452C PUSH2 0x4524 DUP3 PUSH2 0x4506 JUMP JUMPDEST DUP5 DUP5 SLOAD PUSH2 0x448B JUMP JUMPDEST DUP3 SSTORE POP POP POP POP JUMP JUMPDEST PUSH0 SWAP1 JUMP JUMPDEST PUSH2 0x4540 PUSH2 0x4534 JUMP JUMPDEST PUSH2 0x454B DUP2 DUP5 DUP5 PUSH2 0x450F JUMP JUMPDEST POP POP POP JUMP JUMPDEST JUMPDEST DUP2 DUP2 LT ISZERO PUSH2 0x456E JUMPI PUSH2 0x4563 PUSH0 DUP3 PUSH2 0x4538 JUMP JUMPDEST PUSH1 0x1 DUP2 ADD SWAP1 POP PUSH2 0x4551 JUMP JUMPDEST POP POP JUMP JUMPDEST PUSH1 0x1F DUP3 GT ISZERO PUSH2 0x45B3 JUMPI PUSH2 0x4584 DUP2 PUSH2 0x445E JUMP JUMPDEST PUSH2 0x458D DUP5 PUSH2 0x4470 JUMP JUMPDEST DUP2 ADD PUSH1 0x20 DUP6 LT ISZERO PUSH2 0x459C JUMPI DUP2 SWAP1 POP JUMPDEST PUSH2 0x45B0 PUSH2 0x45A8 DUP6 PUSH2 0x4470 JUMP JUMPDEST DUP4 ADD DUP3 PUSH2 0x4550 JUMP JUMPDEST POP POP JUMPDEST POP POP POP JUMP JUMPDEST PUSH0 DUP3 DUP3 SHR SWAP1 POP SWAP3 SWAP2 POP POP JUMP JUMPDEST PUSH0 PUSH2 0x45D3 PUSH0 NOT DUP5 PUSH1 0x8 MUL PUSH2 0x45B8 JUMP JUMPDEST NOT DUP1 DUP4 AND SWAP2 POP POP SWAP3 SWAP2 POP POP JUMP JUMPDEST PUSH0 PUSH2 0x45EB DUP4 DUP4 PUSH2 0x45C4 JUMP JUMPDEST SWAP2 POP DUP3 PUSH1 0x2 MUL DUP3 OR SWAP1 POP SWAP3 SWAP2 POP POP JUMP JUMPDEST PUSH2 0x4604 DUP3 PUSH2 0x2E58 JUMP JUMPDEST PUSH8 0xFFFFFFFFFFFFFFFF DUP2 GT ISZERO PUSH2 0x461D JUMPI PUSH2 0x461C PUSH2 0x3390 JUMP JUMPDEST JUMPDEST PUSH2 0x4627 DUP3 SLOAD PUSH2 0x3D0E JUMP JUMPDEST PUSH2 0x4632 DUP3 DUP3 DUP6 PUSH2 0x4572 JUMP JUMPDEST PUSH0 PUSH1 0x20 SWAP1 POP PUSH1 0x1F DUP4 GT PUSH1 0x1 DUP2 EQ PUSH2 0x4663 JUMPI PUSH0 DUP5 ISZERO PUSH2 0x4651 JUMPI DUP3 DUP8 ADD MLOAD SWAP1 POP JUMPDEST PUSH2 0x465B DUP6 DUP3 PUSH2 0x45E0 JUMP JUMPDEST DUP7 SSTORE POP PUSH2 0x46C2 JUMP JUMPDEST PUSH1 0x1F NOT DUP5 AND PUSH2 0x4671 DUP7 PUSH2 0x445E JUMP JUMPDEST PUSH0 JUMPDEST DUP3 DUP2 LT ISZERO PUSH2 0x4698 JUMPI DUP5 DUP10 ADD MLOAD DUP3 SSTORE PUSH1 0x1 DUP3 ADD SWAP2 POP PUSH1 0x20 DUP6 ADD SWAP5 POP PUSH1 0x20 DUP2 ADD SWAP1 POP PUSH2 0x4673 JUMP JUMPDEST DUP7 DUP4 LT ISZERO PUSH2 0x46B5 JUMPI DUP5 DUP10 ADD MLOAD PUSH2 0x46B1 PUSH1 0x1F DUP10 AND DUP3 PUSH2 0x45C4 JUMP JUMPDEST DUP4 SSTORE POP JUMPDEST PUSH1 0x1 PUSH1 0x2 DUP9 MUL ADD DUP9 SSTORE POP POP POP JUMPDEST POP POP POP POP POP POP JUMP JUMPDEST PUSH0 PUSH1 0xC0 DUP3 ADD SWAP1 POP PUSH2 0x46DD PUSH0 DUP4 ADD DUP10 PUSH2 0x3256 JUMP JUMPDEST PUSH2 0x46EA PUSH1 0x20 DUP4 ADD DUP9 PUSH2 0x2ACF JUMP JUMPDEST DUP2 DUP2 SUB PUSH1 0x40 DUP4 ADD MSTORE PUSH2 0x46FC DUP2 DUP8 PUSH2 0x35B1 JUMP JUMPDEST SWAP1 POP PUSH2 0x470B PUSH1 0x60 DUP4 ADD DUP7 PUSH2 0x3256 JUMP JUMPDEST PUSH2 0x4718 PUSH1 0x80 DUP4 ADD DUP6 PUSH2 0x3256 JUMP JUMPDEST PUSH2 0x4725 PUSH1 0xA0 DUP4 ADD DUP5 PUSH2 0x3274 JUMP JUMPDEST SWAP8 SWAP7 POP POP POP POP POP POP POP JUMP JUMPDEST PUSH0 PUSH2 0x473A DUP3 PUSH2 0x2A04 JUMP JUMPDEST SWAP2 POP PUSH32 0xFFFFFFFFFFFFFFFFFFFFFFFFFFFFFFFFFFFFFFFFFFFFFFFFFFFFFFFFFFFFFFFF DUP3 SUB PUSH2 0x476C JUMPI PUSH2 0x476B PUSH2 0x3A11 JUMP JUMPDEST JUMPDEST PUSH1 0x1 DUP3 ADD SWAP1 POP SWAP2 SWAP1 POP JUMP INVALID LOG2 PUSH5 0x6970667358 0x22 SLT KECCAK256 ORIGIN 0x27 JUMPI 0xA6 AND 0xD2 JUMPI PUSH6 0xAD430BC6F3D2 ADDRESS LT PUSH28 0x51BFD30E05F48EEFD47D5633A963BC64736F6C634300081A00330000 "
		},
		"gasEstimates": {
			"creation": {
				"codeDepositCost": "3669800",
				"executionCost": "33406",
				"totalCost": "3703206"
			},
			"external": {
				"acceptBid(uint256,address)": "infinite",
				"acceptContract(uint256,uint256)": "infinite",
				"bidPrice(uint256,uint256,uint256)": "infinite",
				"confirmDelivery(uint256,address)": "infinite",
				"contractCount()": "2447",
				"contracts(uint256)": "infinite",
				"createContract(string[],uint256,uint256,bool)": "infinite",
				"displayBids(uint256)": "infinite",
				"displayContracts()": "infinite",
				"government()": "2528",
				"raiseDispute(uint256,address,uint256[])": "infinite",
				"resolveDispute(uint256,address,bool)": "infinite",
				"seeDispute(uint256,address)": "infinite"
			},
			"internal": {
				"contractComplete(uint256)": "infinite",
				"findBidIndex(uint256,address)": "infinite",
				"findFarmerIndex(uint256,address)": "infinite"
			}
		},
		"methodIdentifiers": {
			"acceptBid(uint256,address)": "02068664",
			"acceptContract(uint256,uint256)": "5129a6fd",
			"bidPrice(uint256,uint256,uint256)": "77b130aa",
			"confirmDelivery(uint256,address)": "41fd4d2e",
			"contractCount()": "8736381a",
			"contracts(uint256)": "474da79a",
			"createContract(string[],uint256,uint256,bool)": "fa2f8b6b",
			"displayBids(uint256)": "e5511522",
			"displayContracts()": "302e693e",
			"government()": "2672f526",
			"raiseDispute(uint256,address,uint256[])": "6b932bd6",
			"resolveDispute(uint256,address,bool)": "64db84e6",
			"seeDispute(uint256,address)": "c6edda86"
		}
	},
	"abi": [
		{
			"inputs": [],
			"stateMutability": "nonpayable",
			"type": "constructor"
		},
		{
			"anonymous": false,
			"inputs": [
				{
					"indexed": false,
					"internalType": "uint256",
					"name": "contractId",
					"type": "uint256"
				},
				{
					"indexed": false,
					"internalType": "address",
					"name": "farmer",
					"type": "address"
				},
				{
					"indexed": false,
					"internalType": "uint256",
					"name": "quantity",
					"type": "uint256"
				},
				{
					"indexed": false,
					"internalType": "uint256",
					"name": "price",
					"type": "uint256"
				}
			],
			"name": "ContractAccepted",
			"type": "event"
		},
		{
			"anonymous": false,
			"inputs": [
				{
					"indexed": false,
					"internalType": "uint256",
					"name": "contractId",
					"type": "uint256"
				},
				{
					"indexed": false,
					"internalType": "address",
					"name": "farmer",
					"type": "address"
				}
			],
			"name": "ContractCompleted",
			"type": "event"
		},
		{
			"anonymous": false,
			"inputs": [
				{
					"indexed": false,
					"internalType": "uint256",
					"name": "contractId",
					"type": "uint256"
				},
				{
					"indexed": false,
					"internalType": "address",
					"name": "buyer",
					"type": "address"
				},
				{
					"indexed": false,
					"internalType": "string[]",
					"name": "conditions",
					"type": "string[]"
				},
				{
					"indexed": false,
					"internalType": "uint256",
					"name": "quantity",
					"type": "uint256"
				},
				{
					"indexed": false,
					"internalType": "uint256",
					"name": "price",
					"type": "uint256"
				},
				{
					"indexed": false,
					"internalType": "bool",
					"name": "negotiable",
					"type": "bool"
				}
			],
			"name": "ContractCreated",
			"type": "event"
		},
		{
			"anonymous": false,
			"inputs": [
				{
					"indexed": false,
					"internalType": "uint256",
					"name": "contractId",
					"type": "uint256"
				},
				{
					"indexed": false,
					"internalType": "address",
					"name": "farmer",
					"type": "address"
				},
				{
					"indexed": false,
					"internalType": "uint256[]",
					"name": "disputes",
					"type": "uint256[]"
				}
			],
			"name": "ContractDisputed",
			"type": "event"
		},
		{
			"anonymous": false,
			"inputs": [
				{
					"indexed": false,
					"internalType": "uint256",
					"name": "contractId",
					"type": "uint256"
				}
			],
			"name": "ContractFulfilled",
			"type": "event"
		},
		{
			"anonymous": false,
			"inputs": [
				{
					"indexed": false,
					"internalType": "uint256",
					"name": "contractId",
					"type": "uint256"
				},
				{
					"indexed": false,
					"internalType": "address",
					"name": "farmer",
					"type": "address"
				},
				{
					"indexed": false,
					"internalType": "uint256",
					"name": "quantity",
					"type": "uint256"
				},
				{
					"indexed": false,
					"internalType": "uint256",
					"name": "price",
					"type": "uint256"
				}
			],
			"name": "ContractPriceProposal",
			"type": "event"
		},
		{
			"anonymous": false,
			"inputs": [
				{
					"indexed": false,
					"internalType": "uint256",
					"name": "contractId",
					"type": "uint256"
				},
				{
					"indexed": false,
					"internalType": "address",
					"name": "farmer",
					"type": "address"
				},
				{
					"indexed": false,
					"internalType": "bool",
					"name": "success",
					"type": "bool"
				}
			],
			"name": "ContractResolved",
			"type": "event"
		},
		{
			"anonymous": false,
			"inputs": [
				{
					"indexed": false,
					"internalType": "uint256",
					"name": "contractId",
					"type": "uint256"
				},
				{
					"indexed": false,
					"internalType": "address",
					"name": "farmer",
					"type": "address"
				}
			],
			"name": "ContractVoided",
			"type": "event"
		},
		{
			"inputs": [
				{
					"internalType": "uint256",
					"name": "contractId",
					"type": "uint256"
				},
				{
					"internalType": "address",
					"name": "farmer",
					"type": "address"
				}
			],
			"name": "acceptBid",
			"outputs": [],
			"stateMutability": "payable",
			"type": "function"
		},
		{
			"inputs": [
				{
					"internalType": "uint256",
					"name": "contractId",
					"type": "uint256"
				},
				{
					"internalType": "uint256",
					"name": "quantity",
					"type": "uint256"
				}
			],
			"name": "acceptContract",
			"outputs": [],
			"stateMutability": "nonpayable",
			"type": "function"
		},
		{
			"inputs": [
				{
					"internalType": "uint256",
					"name": "contractId",
					"type": "uint256"
				},
				{
					"internalType": "uint256",
					"name": "quantity",
					"type": "uint256"
				},
				{
					"internalType": "uint256",
					"name": "price",
					"type": "uint256"
				}
			],
			"name": "bidPrice",
			"outputs": [],
			"stateMutability": "nonpayable",
			"type": "function"
		},
		{
			"inputs": [
				{
					"internalType": "uint256",
					"name": "contractId",
					"type": "uint256"
				},
				{
					"internalType": "address",
					"name": "farmer",
					"type": "address"
				}
			],
			"name": "confirmDelivery",
			"outputs": [],
			"stateMutability": "nonpayable",
			"type": "function"
		},
		{
			"inputs": [],
			"name": "contractCount",
			"outputs": [
				{
					"internalType": "uint256",
					"name": "",
					"type": "uint256"
				}
			],
			"stateMutability": "view",
			"type": "function"
		},
		{
			"inputs": [
				{
					"internalType": "uint256",
					"name": "",
					"type": "uint256"
				}
			],
			"name": "contracts",
			"outputs": [
				{
					"internalType": "address",
					"name": "buyer",
					"type": "address"
				},
				{
					"internalType": "uint256",
					"name": "quantity",
					"type": "uint256"
				},
				{
					"internalType": "uint256",
					"name": "price",
					"type": "uint256"
				},
				{
					"internalType": "enum BuyerContract.ContractStatus",
					"name": "status",
					"type": "uint8"
				},
				{
					"internalType": "bool",
					"name": "negotiable",
					"type": "bool"
				}
			],
			"stateMutability": "view",
			"type": "function"
		},
		{
			"inputs": [
				{
					"internalType": "string[]",
					"name": "conditions",
					"type": "string[]"
				},
				{
					"internalType": "uint256",
					"name": "quantity",
					"type": "uint256"
				},
				{
					"internalType": "uint256",
					"name": "price",
					"type": "uint256"
				},
				{
					"internalType": "bool",
					"name": "negotiable",
					"type": "bool"
				}
			],
			"name": "createContract",
			"outputs": [],
			"stateMutability": "nonpayable",
			"type": "function"
		},
		{
			"inputs": [
				{
					"internalType": "uint256",
					"name": "contractId",
					"type": "uint256"
				}
			],
			"name": "displayBids",
			"outputs": [
				{
					"components": [
						{
							"internalType": "address",
							"name": "farmer",
							"type": "address"
						},
						{
							"internalType": "uint256",
							"name": "price",
							"type": "uint256"
						},
						{
							"internalType": "uint256",
							"name": "quantity",
							"type": "uint256"
						}
					],
					"internalType": "struct BuyerContract.Bid[]",
					"name": "",
					"type": "tuple[]"
				}
			],
			"stateMutability": "view",
			"type": "function"
		},
		{
			"inputs": [],
			"name": "displayContracts",
			"outputs": [
				{
					"components": [
						{
							"internalType": "address",
							"name": "buyer",
							"type": "address"
						},
						{
							"components": [
								{
									"internalType": "address",
									"name": "farmer",
									"type": "address"
								},
								{
									"internalType": "uint256",
									"name": "price",
									"type": "uint256"
								},
								{
									"internalType": "uint256",
									"name": "quantity",
									"type": "uint256"
								},
								{
									"internalType": "uint256[]",
									"name": "disputes",
									"type": "uint256[]"
								},
								{
									"internalType": "enum BuyerContract.FarmerStatus",
									"name": "status",
									"type": "uint8"
								}
							],
							"internalType": "struct BuyerContract.Farmer[]",
							"name": "farmers",
							"type": "tuple[]"
						},
						{
							"internalType": "address[]",
							"name": "farmerAddresses",
							"type": "address[]"
						},
						{
							"internalType": "string[]",
							"name": "conditions",
							"type": "string[]"
						},
						{
							"internalType": "uint256",
							"name": "quantity",
							"type": "uint256"
						},
						{
							"internalType": "uint256",
							"name": "price",
							"type": "uint256"
						},
						{
							"internalType": "enum BuyerContract.ContractStatus",
							"name": "status",
							"type": "uint8"
						},
						{
							"internalType": "bool",
							"name": "negotiable",
							"type": "bool"
						},
						{
							"components": [
								{
									"internalType": "address",
									"name": "farmer",
									"type": "address"
								},
								{
									"internalType": "uint256",
									"name": "price",
									"type": "uint256"
								},
								{
									"internalType": "uint256",
									"name": "quantity",
									"type": "uint256"
								}
							],
							"internalType": "struct BuyerContract.Bid[]",
							"name": "bidList",
							"type": "tuple[]"
						}
					],
					"internalType": "struct BuyerContract.Contract[]",
					"name": "",
					"type": "tuple[]"
				}
			],
			"stateMutability": "view",
			"type": "function"
		},
		{
			"inputs": [],
			"name": "government",
			"outputs": [
				{
					"internalType": "address",
					"name": "",
					"type": "address"
				}
			],
			"stateMutability": "view",
			"type": "function"
		},
		{
			"inputs": [
				{
					"internalType": "uint256",
					"name": "contractId",
					"type": "uint256"
				},
				{
					"internalType": "address",
					"name": "farmer",
					"type": "address"
				},
				{
					"internalType": "uint256[]",
					"name": "disputes",
					"type": "uint256[]"
				}
			],
			"name": "raiseDispute",
			"outputs": [],
			"stateMutability": "nonpayable",
			"type": "function"
		},
		{
			"inputs": [
				{
					"internalType": "uint256",
					"name": "contractId",
					"type": "uint256"
				},
				{
					"internalType": "address",
					"name": "farmer",
					"type": "address"
				},
				{
					"internalType": "bool",
					"name": "success",
					"type": "bool"
				}
			],
			"name": "resolveDispute",
			"outputs": [],
			"stateMutability": "nonpayable",
			"type": "function"
		},
		{
			"inputs": [
				{
					"internalType": "uint256",
					"name": "contractId",
					"type": "uint256"
				},
				{
					"internalType": "address",
					"name": "farmer",
					"type": "address"
				}
			],
			"name": "seeDispute",
			"outputs": [
				{
					"internalType": "string[]",
					"name": "",
					"type": "string[]"
				}
			],
			"stateMutability": "view",
			"type": "function"
		}
	]
}